:100000000C9462000C948A000C948A000C948A0070
:100010000C948A000C948A000C948A000C948A0038
:100020000C948A000C948A000C948A000C948A0028
:100030000C948A000C948A000C948A000C948A0018
:100040000C9495070C948A000C9405080C94DF0717
:100050000C948A000C948A000C948A000C948A00F8
:100060000C9437080C948A0000000000240027003C
:100070002A0000000000250028002B0000000000DE
:1000800023002600290004040404040404040202DA
:100090000202020203030303030301020408102007
:1000A0004080010204081020010204081020000012
:1000B0000008000201000003040700000000000027
:1000C0000000560911241FBECFEFD8E0DEBFCDBF20
:1000D00011E0A0E0B1E0EEEBF5E202C005900D9278
:1000E000A63FB107D9F723E0A6EFB1E001C01D920A
:1000F000AC3AB207E1F710E0C2E6D0E004C02197C5
:10010000FE010E949410C136D107C9F70E94A909C7
:100110000C94DD120C940000833081F028F48130BF
:1001200099F08230A9F008958730A9F08830C9F09D
:100130008430B1F4809180008F7D03C08091800075
:100140008F7780938000089584B58F7784BD08955C
:1001500084B58F7DFBCF8091B0008F778093B00006
:1001600008958091B0008F7DF9CFCF93DF93282F32
:1001700030E0F901E255FF4F8491F901E656FF4F57
:10018000D491F901EA57FF4FC491CC23A1F081111A
:100190000E948C00EC2FF0E0EE0FFF1FE458FF4FA1
:1001A000A591B491EC91ED2381E090E009F480E019
:1001B000DF91CF91089580E090E0FACF1F93CF9325
:1001C000DF93282F30E0F901E255FF4F8491F901C8
:1001D000E656FF4FD491F901EA57FF4FC491CC2363
:1001E000A9F0162F81110E948C00EC2FF0E0EE0F89
:1001F000FF1FEE58FF4FA591B4918FB7F894EC9183
:10020000111108C0D095DE23DC938FBFDF91CF9111
:100210001F910895DE2BF8CFCF93DF93C5E7D3E08E
:1002200060E08C810E94DE0060E08D810E94DE0033
:1002300061E08C810E94DE0061E08D81DF91CF91D1
:100240000C94DE00CF93DF93C5E7D3E061E08C81AF
:100250000E94DE0061E08D810E94DE0060E08D8101
:100260000E94DE0060E08C81DF91CF910C94DE0073
:10027000CF93DF9390E0FC01E656FF4F24918A571D
:100280009F4FFC0184918823C9F090E0880F991F4B
:10029000FC01E859FF4FA591B491FC01EE58FF4FC6
:1002A000C591D49161110DC09FB7F8948C912095A0
:1002B00082238C938881282328839FBFDF91CF914D
:1002C0000895623051F49FB7F8943C91822F809545
:1002D00083238C93E8812E2BEFCF8FB7F894EC918A
:1002E0002E2B2C938FBFEACFEF92FF921F93CF93C9
:1002F000DF93182FD8E060E0809179030E94DE0040
:10030000E12E012E000CFF0861E010FF60E08091FB
:100310007A030E94DE00F594E7941E2D61E080913F
:1003200079030E94DE00D15031F760E080917903BB
:100330000E94DE0061E080917A030E94DE0061E0AD
:10034000809179030E94DE0060E080917A030E9430
:10035000380180917A030E94B500892B79F0CF5F34
:10036000C83C91F761E080917A030E94380160E017
:1003700080917A030E94DE00C0E0E6CF61E08091C8
:100380007A03DF91CF911F91FF90EF900C94380189
:10039000CF93DF93D82F80917803811180E8C82F05
:1003A0006F3739F0E62F660FFF0BEA5FFE4FC08113
:1003B000C80F0E94220184E40E9474010E940C0173
:1003C0000E9422018D2F806C0E9474018C2F0E944C
:1003D00074010E940C010E942201809177030E9407
:1003E0007401DF91CF910C940C016FE780E00E94C3
:1003F000C8016FE781E00E94C8016FE782E00E94B8
:10040000C8016FE783E00C94C8011F93CF93DF937B
:10041000182FEB0161E00E943801209739F460E069
:10042000812FDF91CF911F910C94DE00CF3FD1053A
:1004300011F461E0F5CFE12FF0E0E255FF4FE491D8
:10044000E33031F140F4E130B1F0E230E1F0C038B6
:10045000D1057CF7E4CFE73029F1E83059F1E430F9
:10046000B1F780918000806280938000D0938B00F0
:10047000C0938A0004C084B5806884BDC7BDDF9185
:10048000CF911F91089584B5806284BDC8BDF7CF18
:1004900080918000806880938000D0938900C09311
:1004A0008800EDCF8091B00080688093B000C09349
:1004B000B300E5CF8091B00080628093B000C0931C
:1004C000B400DDCF8E3008F08E508770806480934A
:1004D0007C0080917A00806480937A0080917A0019
:1004E00086FDFCCF809178009091790008953FB708
:1004F000F8948091620290916302A0916402B0919D
:10050000650226B5A89B05C02F3F19F00196A11DD5
:10051000B11D3FBFBA2FA92F982F8827BC01CD014D
:10052000620F711D811D911D42E0660F771F881FAC
:10053000991F4A95D1F7089508950895AF92BF92F3
:10054000CF92DF92EF92FF920F931F93CF93DF939F
:100550006C017B018B01040F151FEB015E01AE18CE
:10056000BF08C017D10759F06991D601ED91FC91F0
:100570000190F081E02DC6010995892B79F7C5011D
:10058000DF91CF911F910F91FF90EF90DF90CF906F
:10059000BF90AF900895FC01538D448D252F30E01E
:1005A000842F90E0821B930B541710F0CF96089580
:1005B00001970895FC01918D828D981761F0A28DAD
:1005C000AE0FBF2FB11D5D968C91928D9F5F9F7373
:1005D000928F90E008958FEF9FEF0895FC01918D29
:1005E000828D981731F0828DE80FF11D858D90E096
:1005F00008958FEF9FEF0895FC01918D228D892F33
:1006000090E0805C9F4F821B91098F73992708951A
:1006100088ED92E00E94FC0221E0892B09F420E0A1
:10062000822F089580E090E0892B29F00E94080332
:1006300081110C9400000895FC01A48DA80FB92F1E
:10064000B11DA35ABF4F2C91848D90E001968F73FA
:100650009927848FA689B7892C93A089B1898C9119
:10066000837080648C93938D848D981306C0028868
:10067000F389E02D80818F7D80830895EF92FF9232
:100680000F931F93CF93DF93EC0181E0888F9B8DB5
:100690008C8D98131AC0E889F989808185FF15C06F
:1006A0009FB7F894EE89FF896083E889F989808192
:1006B0008370806480839FBF81E090E0DF91CF9161
:1006C0001F910F91FF90EF900895F62E0B8D10E083
:1006D0000F5F1F4F0F731127E02E8C8D8E110CC0F2
:1006E0000FB607FCFACFE889F989808185FFF5CF3D
:1006F000CE010E941C03F1CFEB8DEC0FFD2FF11DFD
:10070000E35AFF4FF0829FB7F8940B8FEA89FB8979
:1007100080818062CFCFCF93DF93EC01888D8823D7
:10072000B9F0AA89BB89E889F9898C9185FD03C054
:10073000808186FD0DC00FB607FCF7CF8C9185FF39
:10074000F2CF808185FFEDCFCE010E941C03E9CF5F
:10075000DF91CF91089520911702260F3327331F81
:1007600021323105ECF42091AE02FC0190E080E0F2
:10077000243069F082E00895A09117022191AC0124
:1007800049505E4FA40FB52FB11D2C9301968617CB
:1007900098F380911702680F6093170280E0089524
:1007A00081E008951092AE0281E08093AD02109234
:1007B000880261E082E10E94DE0061E083E10E9444
:1007C000DE00E9EBF0E080818E7F808380818D7F89
:1007D000808388E48093B80085E48093BC0008950A
:1007E000CF93DF9391E09093F6018823B9F0C09105
:1007F000B800D091BA008091BC008A7B8093BC0085
:1008000060E082E10E94DE0060E083E10E94DE00A1
:100810000E94D203D093BA00C093B800DF91CF9169
:1008200008958F929F92AF92BF92CF92DF92EF92F4
:10083000FF920F931F93CF93DF93D091D702D132C2
:1008400008F0D7C0182FC091D6020E9477026B0122
:100850007C018091AE0281116BC082E08093AE0278
:100860001093AD028FEF8093AC021092AB02D09345
:10087000AA02A6EBB2E0EAE8F2E080E0D81391C069
:100880001092890280918902CC0FC82BC0938902F3
:1008900080918802813009F088C0109288020E94FD
:1008A00077026B017C01809189028093BB0080916B
:1008B000B0029091B102A091B202B091B302892B23
:1008C0008A2B8B2BA1F00E9477020091B00210912D
:1008D000B1022091B2023091B3026C197D098E09E8
:1008E0009F09061717072807390708F442C08091A7
:1008F000BC0083FDD8CF85EC8093BC000E947702BA
:100900006B017C018091AE02823009F450C080916D
:10091000AC028F3F09F46FC08091AC02803209F4C1
:100920006CC08091AC02803309F469C084E026C0B9
:100930008091B0029091B102A091B202B091B30245
:10094000892B8A2B8B2B09F484CF0E94770280900D
:10095000B0029090B102A090B202B090B3026C19B4
:100960007D098E099F0986169706A806B90608F024
:1009700070CF8091AF020E94F00385E01092B50223
:100980001092D7021092B402DF91CF911F910F9174
:10099000FF90EF90DF90CF90BF90AF909F908F909F
:1009A00008959D9191938F5F69CF85EEA5CF80913A
:1009B000B0029091B102A091B202B091B302892B22
:1009C0008A2B8B2B09F49ECF0E9477020091B002F4
:1009D0001091B1022091B2023091B3026C197D09DD
:1009E0008E099F09061717072807390708F08ACFCD
:1009F000C0CF81E0C3CF80E0C1CF82E0BFCF83E032
:100A0000BDCF0F931F93CF93DF93162F072FC7E808
:100A1000D3E0A885B9859A8521E02093B40290930C
:100A2000D6021092B5021092D702ED91FC91119767
:100A30000190F081E02D682FCD0109958885998579
:100A4000DC01ED91FC910190F081E02D602F099582
:100A500088859985DC01ED91FC910190F081E02D74
:100A6000612F099581E0DF91CF911F910F910C9437
:100A700011040895E091670280916602E81730F44E
:100A8000F0E0E859FD4F808190E008958FEF9FEFEF
:100A9000089590916702809166022FEF3FEF9817BB
:100AA00048F4E92FF0E0E859FD4F208130E09F5FE6
:100AB00090936702C9010895809166029091670240
:100AC000891B990B0895CF92DF92EF92FF920F93BB
:100AD0001F93CF93DF937C01CB018A012091B40255
:100AE000222389F0EB016B01C40ED51ECC15DD0568
:100AF00069F06991D701ED91FC910190F081E02DB1
:100B0000C7010995F3CF642F0E94AB03C801DF91A1
:100B1000CF911F910F91FF90EF90DF90CF900895AC
:100B2000CF93DF931F92CDB7DEB769832091B402D4
:100B30002223F9F02091D702203258F021E030E052
:100B4000FC013383228390E080E00F90DF91CF910E
:100B500008958091B502E82FF0E0EA54FD4F9981A5
:100B600090838F5F8093B5028093D70281E090E0FD
:100B7000ECCF61E0CE0101960E94AB03F7CF90E08D
:100B800080E00895FC0101900020E9F73197AF0162
:100B9000481B590BBC0188ED92E00C949E028F9289
:100BA0009F92AF92BF920F931F93CF93DF93CDB7D6
:100BB000DEB7A1970FB6F894DEBF0FBECDBF19A266
:100BC000423008F44AE08E010F5D1F4F842E912CB5
:100BD000B12CA12CA50194010E942C10E62FB90183
:100BE000CA01EA30F4F4E05DD801EE938D01232BC5
:100BF000242B252B79F790E080E0109719F0CD0198
:100C00000E94C205A1960FB6F894DEBF0FBECDBFFD
:100C1000DF91CF911F910F91BF90AF909F908F90D8
:100C20000895E95CE1CF0C94C205CF92DF92EF9278
:100C3000FF920F931F93CF93A0918F03B0919003D6
:100C40009091910321E02093B4029093D6021092E8
:100C5000B5021092D702ED91FC9111970190F081AD
:100C6000E02D682FCD01099580E00E941104C0910C
:100C700091030E9477026B017C018091AE02811189
:100C800065C081E08093AE028093AD029FEF9093A8
:100C9000AC021092AB028093AA02809389028091E9
:100CA0008902CC0FC82BC0938902809188028130C1
:100CB00009F0AAC0109288020E9477026B017C01A1
:100CC000809189028093BB008091B0029091B10223
:100CD000A091B202B091B302892B8A2B8B2BA1F089
:100CE0000E9477020091B0021091B1022091B202ED
:100CF0003091B3026C197D098E099F0906171707F9
:100D00002807390708F443C08091BC0083FDD8CF81
:100D100085EC8093BC000E9477026B017C0180917E
:100D2000AE02813009F472C08091AB02823008F0CB
:100D30008FC08091AB02EAE8F2E0A8E6B2E090E072
:100D4000981751F121912D939F5FFACF8091B002B6
:100D50009091B102A091B202B091B302892B8A2B7B
:100D60008B2B09F48ACF0E9477020091B002109178
:100D7000B1022091B2023091B3026C197D098E0943
:100D80009F09061717072807390708F076CF8091C3
:100D9000AF020E94F00380E0109267028093660227
:100DA00080918F0390919003DC01ED91FC91008480
:100DB000F185E02D0995892B09F44CC080918F03B2
:100DC00090919003DC01ED91FC910284F385E02D7C
:100DD0000995C82F80918F0390919003DC01ED91CC
:100DE000FC910284F385E02D09952C2F30E0322F01
:100DF0002227820F932F911DCF911F910F91FF906A
:100E0000EF90DF90CF90089585EE83CF8091B00270
:100E10009091B102A091B202B091B302892B8A2BBA
:100E20008B2B09F47CCF0E9477020091B0021091C5
:100E3000B1022091B2023091B3026C197D098E0982
:100E40009F09061717072807390708F068CF9FCFB3
:100E500082E071CF80E0C0E0C8CFCF92DF92EF9206
:100E6000FF92CF93DF936C01990FEE08FF08F7FE16
:100E700019C06DE288ED92E00E943E03EC01662706
:100E80007727CB016C197D098E099F094AE00E94E2
:100E9000CF058C0F9D1FDF91CF91FF90EF90DF90DA
:100EA000CF9008954AE0C701B601DF91CF91FF903E
:100EB000EF90DF90CF900C94CF0585ED8093BC0030
:100EC0008091B0029091B102A091B202B091B302B0
:100ED0000796A11DB11D23E0B695A7959795879517
:100EE0002A95D1F72091BC0024FD03C01092AE02D8
:100EF00008954091B0025091B1026091B202709198
:100F0000B302452B462B472B69F30097A105B1058A
:100F100041F025E32A95F1F700000197A109B109F5
:100F2000E1CF8091AF020C94F0031F920F920FB6A5
:100F30000F9211242F933F938F939F93AF93BF935F
:100F400080915E0290915F02A0916002B091610277
:100F500030915D0223E0230F2D3758F50196A11D36
:100F6000B11D20935D0280935E0290935F02A09377
:100F70006002B09361028091620290916302A0913D
:100F80006402B09165020196A11DB11D80936202B9
:100F900090936302A0936402B0936502BF91AF91F6
:100FA0009F918F913F912F910F900FBE0F901F90A7
:100FB000189526E8230F0296A11DB11DD2CF1F92CE
:100FC0000F920FB60F9211242F933F934F935F937D
:100FD0006F937F938F939F93AF93BF93EF93FF9301
:100FE00088ED92E00E941C03FF91EF91BF91AF91B9
:100FF0009F918F917F916F915F914F913F912F9131
:101000000F900FBE0F901F9018951F920F920FB662
:101010000F9211242F938F939F93EF93FF93E0915F
:10102000E802F091E9028081E091EE02F091EF0296
:1010300082FD1BC090818091F1028F5F8F732091A0
:10104000F202821741F0E091F102F0E0E852FD4F28
:10105000958F8093F102FF91EF919F918F912F9146
:101060000F900FBE0F901F9018958081F4CF1F92A4
:101070000F920FB60F9211242F933F934F935F93CC
:101080006F937F938F939F93AF93BF93EF93FF9350
:101090008091B900887F803609F44AC0F0F5883223
:1010A00009F4A7C018F5803109F49BC0B8F488236F
:1010B00009F4F9C0883009F494C0FF91EF91BF9111
:1010C000AF919F918F917F916F915F914F913F91E0
:1010D0002F910F900FBE0F901F901895883109F433
:1010E00088C0803251F78093AC0214C0803409F478
:1010F0009DC040F48033B9F38833F9F68093AC0295
:1011000085ECB0C0803509F485C0883509F496C0F7
:10111000883499F60E945D07D0CF883909F48CC0D5
:1011200038F5883729F050F4883611F0803729F6E1
:1011300083E08093AE021092390257C0883809F4D8
:101140007BC0803919F0803809F0B7CF809139021F
:10115000803208F071C0E091390281E08E0F8093F7
:1011600039028091BB00F0E0E75EFD4F80833DC017
:10117000803B39F0E0F4803A09F479C0883A09F00C
:101180009CCF84E08093AE02109218021092170256
:10119000E0913C02F0913D02099580911702811186
:1011A0000FC081E0809317021092F70109C0803CC4
:1011B00009F4A6CF883C09F4A3CF883B09F07DCF82
:1011C000E091180281E08E0F80931802F0E0E95060
:1011D000FE4F80818093BB0090911802809117028E
:1011E00029C0809189028093BB0085EC8093BC006C
:1011F00064CF9091AB028091AA02981758F5E091C4
:10120000AB0281E08E0F8093AB02F0E0E657FD4F1A
:101210008081E9CFE091AB0281E08E0F8093AB0239
:101220008091BB00F0E0E657FD4F80839091AB02C8
:101230008091AA029817C8F285E8D8CFE091AB0256
:1012400081E08E0F8093AB028091BB00F0E0E65707
:10125000FD4F80838091AD0281115CCF81E080934E
:10126000880284EA8093BC001092AE0226CF85ECFF
:101270008093BC001092AE0280913902803230F42B
:10128000E0913902F0E0E75EFD4F10826091390293
:1012900070E0E0913A02F0913B0289E192E0099519
:1012A000109239020ACF1092AC0234CFCF93DF9361
:1012B000E8EDF2E01382128288EE93E0A0E0B0E065
:1012C00084839583A683B78324E131E0318320832F
:1012D00025EC30E03587248724EC30E037872687FB
:1012E00020EC30E0318B208B21EC30E0338B228BF3
:1012F00022EC30E0358B248B26EC30E0378B268BCC
:10130000118E128E138E148EEBE7F3E0138212828D
:1013100084839583A683B78386E291E0918380835B
:10132000A7E8B3E01996FC93EE93189780E41A9619
:101330008C93C5E7D3E08CE08C838DE08D8361E0F6
:101340008CE00E94380161E08D81DF91CF910C9497
:101350003801CF93DF9300D000D0CDB7DEB77894BB
:1013600084B5826084BD84B5816084BD85B58260AA
:1013700085BD85B5816085BD80916E00816080935B
:101380006E001092810080918100826080938100C4
:1013900080918100816080938100809180008160D4
:1013A000809380008091B10084608093B10080912F
:1013B000B00081608093B00080917A008460809357
:1013C0007A0080917A00826080937A0080917A001E
:1013D000816080937A0080917A00806880937A009F
:1013E0001092C100E091E802F091E90282E080836E
:1013F000E091E402F091E5021082E091E602F091C2
:10140000E70280E180831092F002E091EC02F0911B
:10141000ED0286E08083E091EA02F091EB028081A8
:1014200080618083E091EA02F091EB028081886024
:101430008083E091EA02F091EB02808180688083F2
:10144000E091EA02F091EB0280818F7D808310921F
:101450006702109266021092B5021092D7020E94A3
:10146000D2038CE992E090933D0280933C028DE997
:1014700092E090933B0280933A0260E070E880E053
:101480000E940105882309F4C0C384E391E00E940F
:10149000C2058AE491E00E94C2050E94F50180E441
:1014A0008093750380EC809376038AE880937703BA
:1014B00060E08EE00E94380162E089E00E9438011D
:1014C00060E08FE00E94380162E088E00E9438010D
:1014D00060E080E10E94380162E087E00E9438010C
:1014E00061E082E00E94380161E084E00E943801FE
:1014F00061E08CE00E94380161E08DE00E943801DB
:1015000010925802109257021092560226EF822E25
:1015100099249394A12CB12C2FB7F89480915E025A
:1015200090915F02A0916002B09161022FBF809301
:10153000590290935A02A0935B02B0935C021092FE
:101540005802109257021092560260E086E00E9404
:10155000DE0060E085E00E94DE0060E083E00E9443
:10156000DE0084E00E9415069A8389838091A90396
:1015700070E060E0882331F120E030E048EC52E494
:10158000609198037091990380919A0390919B03C5
:101590000E946B126B017C01609192037091930326
:1015A00090E080E00E94B4119B01AC01C701B6013C
:1015B0000E946B1220E030E040E859E30E946B1279
:1015C0000E947E1189819A81861B970BBC01072E90
:1015D000000C880B990B0E94B6116B017C012091C5
:1015E0009C0330919D0340919E0350919F03609115
:1015F000A0037091A1038091A2039091A3030E9484
:101600006B129B01AC01C701B6010E940C116B016A
:101610007C0120E030E040E05FE30E94071187FD9D
:10162000FBC320E030E040EF51E4C701B6010E9467
:10163000661218160CF4F6C3C0925202D0925302EE
:10164000E0925402F092550220E030E048EC52E47F
:10165000C701B6010E946B120E947E117093510265
:10166000609350029B01770F440B550B22533109B5
:1016700041095109AAEFB0E00E94211026E83BE0A1
:1016800040E050E00E9402102901190130934F02FE
:1016900020934E028EE00E9462027C0190934D02E4
:1016A00080934C028FE00E9462028C0190934B0267
:1016B00080934A0280E10E9462029A838983909318
:1016C00049028093480289E00E94B50088E00E94A8
:1016D000B50087E00E94B5009AE0E91692E0F906AD
:1016E0000CF4A7C397010F2C000C440B550B2A5088
:1016F000324041095109AFEFB0E00E94211025EFBF
:1017000031E040E050E00E94021030934702209305
:10171000460221E0209305011092040157EFE51ADB
:1017200051E0F50A84E1E816F10440F41092050155
:101730001092040110924702109246020A3092E081
:1017400019070CF493C39801012E000C440B550BA0
:101750002A50324041095109AFEFB0E00E942110F8
:1017600025EF31E040E050E00E9402103093450246
:101770002093440221E02093030110920201075FAD
:1017800011400431110540F410920301109202013E
:10179000109245021092440289819A818A3022E097
:1017A00092070CF47FC39C01990F440B550B2A50F0
:1017B000324041095109AFEFB0E00E94211025EFFE
:1017C00031E040E050E00E94021030934302209349
:1017D000420231E0309301011092000129813A81E7
:1017E000275F31402431310540F4109201011092FD
:1017F00000011092430210924202109158021111FE
:1018000008C060E082E00E94DE0060E084E00E94A8
:10181000DE00309157023B83311108C060E082E066
:101820000E94DE0060E084E00E94DE0040915602EB
:101830004983411108C060E082E00E94DE0060E060
:1018400084E00E94DE0080910501882389F0111157
:101850000FC061E082E00E94DE0060E084E00E9450
:10186000DE00609146027091470286E00E94050208
:1018700080910301882391F05B8151110FC061E0D9
:1018800082E00E94DE0060E084E00E94DE00609161
:1018900044027091450285E00E9405028091010199
:1018A000882391F0898181110FC061E082E00E945C
:1018B000DE0060E084E00E94DE00609142027091F0
:1018C000430283E00E94050280910401882389F08D
:1018D00011110FC060E082E00E94DE0061E084E050
:1018E0000E94DE00609146027091470286E00E94ED
:1018F000050280910201882391F09B8191110FC014
:1019000060E082E00E94DE0061E084E00E94DE0090
:10191000609144027091450285E00E940502809129
:101920000001882391F0298121110FC060E082E03D
:101930000E94DE0061E084E00E94DE0060914202CD
:101940007091430283E00E940502C0905902D0903A
:101950005A02E0905B02F0905C0280913E0290910E
:101960003F02A0914002B0914102A7019601281BBD
:10197000390B4A0B5B0BDA01C90184369105A105CD
:10198000B10508F45BC00E94F501C1016AE070E096
:101990000E945D109C838B836B8183E00E94C80151
:1019A0003AE0231631040CF441C0C10164E670E052
:1019B0000E945D104B815C81841B950B6AE070E096
:1019C0000E945D108B0182E00E94C80154E625163A
:1019D000310464F1C10168EE73E00E945D10801B68
:1019E000910B2B813C81821B930B64E670E00E947B
:1019F0005D107A836983698181E00E94C80138EEB5
:101A0000231633E0330694F049815A81441A550A6B
:101A1000401A510AC2012B813C81821B930B68EE54
:101A200073E00E945D1080E00E94C801C0923E02F7
:101A3000D0923F02E0924002F09241028DE491E0A8
:101A40000E94130680914C0290914D020E942D0736
:101A500082E591E00E941306809146029091470230
:101A60000E942D0788E591E00E94130681E090E036
:101A70000E942D078EE591E00E94130680910501DA
:101A800090E00E942D0784E691E00E941306809169
:101A9000040190E00E942D078AE691E00E9413065F
:101AA0008091580290E00E942D0783E791E00E9408
:101AB000130680914A0290914B020E942D0789E7FC
:101AC00091E00E94130680914402909145020E9489
:101AD0002D078FE791E00E94130681E090E00E94BD
:101AE0002D0785E891E00E9413068091030190E0A4
:101AF0000E942D078BE891E00E941306809102015D
:101B000090E00E942D0781E991E00E9413068091E8
:101B1000570290E00E942D078AE991E00E94130687
:101B200080914802909149020E942D078FE991E02F
:101B30000E94130680914202909143020E942D0759
:101B400084EA91E00E94130681E090E00E942D0754
:101B50008BEA91E00E9413068091010190E00E94BF
:101B60002D0782EB91E00E9413068091000190E026
:101B70000E942D0789EB91E00E9413068091560286
:101B800090E00E942D0783EC91E00E941306C09024
:101B90005202D0905302E0905402F0905502A701F7
:101BA0009601C701B6010E94D812882309F498C192
:101BB00081ED91E00E94C2058DED91E00E94130637
:101BC00080915002909151020E942D0788EE91E081
:101BD0000E94130680914E0290914F020E942D07A1
:101BE00083EF91E00E94C2058AE491E00E94C20561
:101BF00040E050E0452B09F48FCC0E940803882375
:101C000009F48ACC0E94000087CC83E090E0909396
:101C100088038093870380E00E9415068770987F71
:101C2000BC016869716080E00E94010587E090E076
:101C300090938A038093890380E00E941506887F31
:101C40006091890370918A03682B792B80E00E9450
:101C5000010580E098E190938C0380938B0380E0F2
:101C60000E941506977E60918B0370918C03682B00
:101C7000792B80E00E94010580918B0390918C0369
:101C8000811528E0920709F485C0B0F5892B09F485
:101C90005CC0609192037091930385E00E940105FE
:101CA00080E090E290938E0380938D0380E00E9409
:101CB00015069F7D60918D0370918E03682B792BA3
:101CC00080E00E94010580E090E0A0E8BFE38093FF
:101CD0009C0390939D03A0939E03B0939F03109247
:101CE000A803109298031092990310929A031092ED
:101CF0009B031092A903D1CB811540E1940709F40D
:101D00006AC08115984129F680E090E19093930391
:101D10008093920380E090E0A0E2B1E48093A0037E
:101D20009093A103A093A203B093A30380E090E05B
:101D3000A0E0B0E48093A4039093A503A093A6032E
:101D4000B093A70380E09DE720C080E090E59093EA
:101D500093038093920380E090E0A8E4B2E4809340
:101D6000A0039093A103A093A203B093A3038DECCF
:101D70009CECACECBEE38093A4039093A503A093EA
:101D8000A603B093A70380EA9FE09093AB038093F0
:101D9000AA037FCF80E098E290939303809392030D
:101DA00080E090E0A8ECB1E48093A0039093A103BD
:101DB000A093A203B093A3038DEC9CECACE4BFE32F
:101DC0008093A4039093A503A093A603B093A703C5
:101DD00080E49FE1DACF80E090E2909393038093D8
:101DE000920380E090E0A0EAB1E48093A003909396
:101DF000A103A093A203B093A30380E090E0A0E826
:101E0000BFE38093A4039093A503A093A603B0938C
:101E1000A70380E89EE3B9CFC12CD12CE12C9FE32E
:101E2000F92E0ACCC12CD12C80EFE82E81E4F82EBB
:101E300003CC37EFE31631E0F3060CF06FCC9701DB
:101E4000A1E0BFEF0E947110A50194010E94021051
:101E500021503F4F4F4F5F4F309347022093460230
:101E60001092050141E04093040158CC073F31E056
:101E700013070CF084CC9801A1E0BFEF0E94711011
:101E8000A50194010E94021021503F4F4F4F5F4F18
:101E900030934502209344021092030141E04093A5
:101EA00002016DCC49815A81473F81E058070CF00F
:101EB00095CC9A01A1E0BFEF0E947110A501940199
:101EC0000E94021021503F4F4F4F5F4F309343020B
:101ED000209342021092010191E0909300017ECC88
:101EE00026013701E89477F82FEF3FEF4FE75FE7E0
:101EF000C301B2010E94D81281110DC02FEF3FEF34
:101F00004FE75FE7C301B2010E94071118161CF4E6
:101F100085ED91E04FCE2FEF3FEF4FE75FE4C70134
:101F2000B6010E94661218161CF489ED91E042CEAB
:101F30002FEF3FEF4FE75FECC701B6010E9407119B
:101F400087FDF3CF20E030E0A901C701B6010E9470
:101F5000071187FF09C06DE288ED92E00E943E0301
:101F6000F7FAF094F7F8F0942AE037ED43EA5BE3F0
:101F7000C701B6010E949B102B013C010E948511F4
:101F80006B017C010E94B4119B01AC01C301B20141
:101F90000E949A102B013C014AE0C701B6010E9441
:101FA000CF056EE288ED92E00E943E0320E030E033
:101FB00040E251E4C301B2010E946B122B013C01CB
:101FC0000E9485116B01F12CE12C4AE0C701B6019A
:101FD0000E94CF05C701B6010E94B4119B01AC015C
:101FE000C301B2010E949A1020E030E040E251E4C7
:101FF0000E946B120E94851190E080E04AE00E94EE
:10200000CF05DACD052E97FB1EF400940E9419101F
:1020100057FD07D00E942C1007FC03D04EF40C94FF
:10202000191050954095309521953F4F4F4F5F4F78
:10203000089590958095709561957F4F8F4F9F4F34
:1020400008950E944E10A59F900DB49F900DA49FDF
:10205000800D911D11240895A1E21A2EAA1BBB1B0D
:10206000FD010DC0AA1FBB1FEE1FFF1FA217B30764
:10207000E407F50720F0A21BB30BE40BF50B661F7A
:10208000771F881F991F1A9469F76095709580953E
:1020900090959B01AC01BD01CF010895A29FB001B5
:1020A000B39FC001A39F700D811D1124911DB29F8C
:1020B000700D811D1124911D089597FB072E16F4B4
:1020C000009407D077FD09D00E94801007FC05D04E
:1020D0003EF4909581959F4F0895709561957F4F3F
:1020E00008950E944E10332312F48A1B9B0B0C940C
:1020F0007B100E944E10B7FF0895821B930B08952A
:10210000AA1BBB1B51E107C0AA1FBB1FA617B7071D
:1021100010F0A61BB70B881F991F5A95A9F7809539
:102120009095BC01CD010895EE0FFF1F0590F4912D
:10213000E02D09945058BB27AA270E94B2100C9496
:102140002C120E941E1238F00E94251220F039F441
:102150009F3F19F426F40C941B120EF4E095E7FB54
:102160000C941512E92F0E943D1258F3BA1762071A
:1021700073078407950720F079F4A6F50C945F1295
:102180000EF4E0950B2EBA2FA02D0B01B901900192
:102190000C01CA01A0011124FF27591B99F0593FD6
:1021A00050F4503E68F11A16F040A22F232F342F1E
:1021B0004427585FF3CF469537952795A795F0406C
:1021C0005395C9F77EF41F16BA0B620B730B840B81
:1021D000BAF09150A1F0FF0FBB1F661F771F881F39
:1021E000C2F70EC0BA0F621F731F841F48F4879591
:1021F00077956795B795F7959E3F08F0B0CF939583
:10220000880F08F09927EE0F9795879508950E94FB
:10221000F11108F481E008950E9420110C942C1211
:102220000E94251258F00E941E1240F029F45F3FD0
:1022300029F00C94151251110C9460120C941B127D
:102240000E943D1268F39923B1F3552391F3951B36
:10225000550BBB27AA2762177307840738F09F5FC7
:102260005F4F220F331F441FAA1FA9F335D00E2E34
:102270003AF0E0E832D091505040E695001CCAF7A1
:102280002BD0FE2F29D0660F771F881FBB1F261764
:1022900037074807AB07B0E809F0BB0B802DBF013B
:1022A000FF2793585F4F3AF09E3F510578F00C940A
:1022B00015120C9460125F3FE4F3983ED4F38695B8
:1022C00077956795B795F7959F5FC9F7880F911D2B
:1022D0009695879597F90895E1E0660F771F881F17
:1022E000BB1F621773078407BA0720F0621B730BCA
:1022F000840BBA0BEE1F88F7E09508950E948511B4
:102300006894B1110C94601208950E94451288F0EF
:102310009F5798F0B92F9927B751B0F0E1F0660FA9
:10232000771F881F991F1AF0BA95C9F714C0B130EA
:1023300091F00E945F12B1E008950C945F12672F34
:10234000782F8827B85F39F0B93FCCF38695779519
:102350006795B395D9F73EF4909580957095619502
:102360007F4F8F4F9F4F0895E89409C097FB3EF42D
:1023700090958095709561957F4F8F4F9F4F9923D2
:10238000A9F0F92F96E9BB279395F6958795779550
:102390006795B795F111F8CFFAF4BB0F11F460FF10
:1023A0001BC06F5F7F4F8F4F9F4F16C0882311F068
:1023B00096E911C0772321F09EE8872F762F05C07C
:1023C000662371F096E8862F70E060E02AF09A9517
:1023D000660F771F881FDAF7880F9695879597F90C
:1023E0000895990F0008550FAA0BE0E8FEEF1616A6
:1023F0001706E807F907C0F012161306E407F507F9
:1024000098F0621B730B840B950B39F40A2661F06C
:10241000232B242B252B21F408950A2609F4A1400F
:10242000A6958FEF811D811D089597F99F6780E81C
:1024300070E060E008959FEF80EC089500240A9416
:102440001616170618060906089500240A9412168F
:102450001306140605060895092E0394000C11F4C2
:10246000882352F0BB0F40F4BF2B11F460FF04C06F
:102470006F5F7F4F8F4F9F4F089557FD9058440FC8
:10248000551F59F05F3F71F04795880F97FB991FD3
:1024900061F09F3F79F08795089512161306140690
:1024A000551FF2CF4695F1DF08C01616170618061D
:1024B000991FF1CF86957105610508940895E894F8
:1024C000BB2766277727CB0197F908950E94F11162
:1024D00008F48FEF08950E947E120C942C120E9433
:1024E0001E1238F00E94251220F0952311F00C9452
:1024F00015120C941B1211240C9460120E943D12B0
:1025000070F3959FC1F3950F50E0551F629FF00146
:10251000729FBB27F00DB11D639FAA27F00DB11D5F
:10252000AA1F649F6627B00DA11D661F829F2227E8
:10253000B00DA11D621F739FB00DA11D621F839F6F
:10254000A00D611D221F749F3327A00D611D231F45
:10255000849F600D211D822F762F6A2F11249F5793
:1025600050409AF0F1F088234AF0EE0FFF1FBB1F96
:10257000661F771F881F91505040A9F79E3F510555
:1025800080F00C9415120C9460125F3FE4F3983EB7
:10259000D4F3869577956795B795F795E7959F5FFF
:1025A000C1F7FE2B880F911D9695879597F9089591
:0E25B0000E94F111880B990B0895F894FFCF4B
:1025BE000101010101013F065B4F666D7D077F6FD3
:1025CE00000000003E039E02CB028B03FC02DA02E7
:1025DE00EE020000000090056305BF0539055C059D
:1025EE0049053A05494E41323139206E6F742063E8
:1025FE006F6E6E656374656421000D0A004131567D
:10260E003A002041314F3A002041314E3A002041EC
:10261E0031553A00204131443A002041314C6F632C
:10262E006B3A00204132563A002041324F3A002098
:10263E0041324E3A00204132553A00204132443A5E
:10264E00002041324C6F636B3A002046563A002010
:10265E00464F3A002041464E3A2000204146553A18
:10266E002000204146443A20002041464C6F636BC7
:10267E003A20002043757272656E745B6D415D3A4F
:10268E00006E616E00696E66006F76660020507295
:10269E0065737356616C3A002050726573734163B3
:0626AE00743A0020200038
:00000001FF
