:100000000C9462000C948A000C948A000C948A0070
:100010000C948A000C948A000C948A000C948A0038
:100020000C948A000C948A000C948A000C948A0028
:100030000C948A000C948A000C948A000C948A0018
:100040000C9495070C948A000C9405080C94DF0717
:100050000C948A000C948A000C948A000C948A00F8
:100060000C9437080C948A0000000000240027003C
:100070002A0000000000250028002B0000000000DE
:1000800023002600290004040404040404040202DA
:100090000202020203030303030301020408102007
:1000A0004080010204081020010204081020000012
:1000B0000008000201000003040700000000000027
:1000C0000000560911241FBECFEFD8E0DEBFCDBF20
:1000D00012E0A0E0B1E0EAEEF4E202C005900D9279
:1000E000A230B107D9F723E0A2E0B2E001C01D922F
:1000F000A03BB207E1F710E0C2E6D0E004C02197D0
:10010000FE010E942A10C136D107C9F70E94A90931
:100110000C9473120C940000833081F028F4813029
:1001200099F08230A9F008958730A9F08830C9F09D
:100130008430B1F4809180008F7D03C08091800075
:100140008F7780938000089584B58F7784BD08955C
:1001500084B58F7DFBCF8091B0008F778093B00006
:1001600008958091B0008F7DF9CFCF93DF93282F32
:1001700030E0F901E255FF4F8491F901E656FF4F57
:10018000D491F901EA57FF4FC491CC23A1F081111A
:100190000E948C00EC2FF0E0EE0FFF1FE458FF4FA1
:1001A000A591B491EC91ED2381E090E009F480E019
:1001B000DF91CF91089580E090E0FACF1F93CF9325
:1001C000DF93282F30E0F901E255FF4F8491F901C8
:1001D000E656FF4FD491F901EA57FF4FC491CC2363
:1001E000A9F0162F81110E948C00EC2FF0E0EE0F89
:1001F000FF1FEE58FF4FA591B4918FB7F894EC9183
:10020000111108C0D095DE23DC938FBFDF91CF9111
:100210001F910895DE2BF8CFCF93DF93C9E7D3E08A
:1002200060E08C810E94DE0060E08D810E94DE0033
:1002300061E08C810E94DE0061E08D81DF91CF91D1
:100240000C94DE00CF93DF93C9E7D3E061E08C81AB
:100250000E94DE0061E08D810E94DE0060E08D8101
:100260000E94DE0060E08C81DF91CF910C94DE0073
:10027000CF93DF9390E0FC01E656FF4F24918A571D
:100280009F4FFC0184918823C9F090E0880F991F4B
:10029000FC01E859FF4FA591B491FC01EE58FF4FC6
:1002A000C591D49161110DC09FB7F8948C912095A0
:1002B00082238C938881282328839FBFDF91CF914D
:1002C0000895623051F49FB7F8943C91822F809545
:1002D00083238C93E8812E2BEFCF8FB7F894EC918A
:1002E0002E2B2C938FBFEACFEF92FF921F93CF93C9
:1002F000DF93182FD8E060E080917D030E94DE003C
:10030000E12E012E000CFF0861E010FF60E08091FB
:100310007E030E94DE00F594E7941E2D61E080913B
:100320007D030E94DE00D15031F760E080917D03B3
:100330000E94DE0061E080917E030E94DE0061E0A9
:1003400080917D030E94DE0060E080917E030E9428
:10035000380180917E030E94B500892B79F0CF5F30
:10036000C83C91F761E080917E030E94380160E013
:1003700080917E030E94DE00C0E0E6CF61E08091C4
:100380007E03DF91CF911F91FF90EF900C94380185
:10039000CF93DF93D82F80917C03811180E8C82F01
:1003A0006F3739F0E62F660FFF0BEA5FFE4FC08113
:1003B000C80F0E94220184E40E9474010E940C0173
:1003C0000E9422018D2F806C0E9474018C2F0E944C
:1003D00074010E940C010E94220180917B030E9403
:1003E0007401DF91CF910C940C016FE780E00E94C3
:1003F000C8016FE781E00E94C8016FE782E00E94B8
:10040000C8016FE783E00C94C8011F93CF93DF937B
:10041000182FEB0161E00E943801209739F460E069
:10042000812FDF91CF911F910C94DE00CF3FD1053A
:1004300011F461E0F5CFE12FF0E0E255FF4FE491D8
:10044000E33031F140F4E130B1F0E230E1F0C038B6
:10045000D1057CF7E4CFE73029F1E83059F1E430F9
:10046000B1F780918000806280938000D0938B00F0
:10047000C0938A0004C084B5806884BDC7BDDF9185
:10048000CF911F91089584B5806284BDC8BDF7CF18
:1004900080918000806880938000D0938900C09311
:1004A0008800EDCF8091B00080688093B000C09349
:1004B000B300E5CF8091B00080628093B000C0931C
:1004C000B400DDCF8E3008F08E508770806480934A
:1004D0007C0080917A00806480937A0080917A0019
:1004E00086FDFCCF809178009091790008953FB708
:1004F000F8948091660290916702A0916802B09191
:10050000690226B5A89B05C02F3F19F00196A11DD1
:10051000B11D3FBFBA2FA92F982F8827BC01CD014D
:10052000620F711D811D911D42E0660F771F881FAC
:10053000991F4A95D1F7089508950895AF92BF92F3
:10054000CF92DF92EF92FF920F931F93CF93DF939F
:100550006C017B018B01040F151FEB015E01AE18CE
:10056000BF08C017D10759F06991D601ED91FC91F0
:100570000190F081E02DC6010995892B79F7C5011D
:10058000DF91CF911F910F91FF90EF90DF90CF906F
:10059000BF90AF900895FC01538D448D252F30E01E
:1005A000842F90E0821B930B541710F0CF96089580
:1005B00001970895FC01918D828D981761F0A28DAD
:1005C000AE0FBF2FB11D5D968C91928D9F5F9F7373
:1005D000928F90E008958FEF9FEF0895FC01918D29
:1005E000828D981731F0828DE80FF11D858D90E096
:1005F00008958FEF9FEF0895FC01918D228D892F33
:1006000090E0805C9F4F821B91098F73992708951A
:100610008CED92E00E94FC0221E0892B09F420E09D
:10062000822F089580E090E0892B29F00E94080332
:1006300081110C9400000895FC01A48DA80FB92F1E
:10064000B11DA35ABF4F2C91848D90E001968F73FA
:100650009927848FA689B7892C93A089B1898C9119
:10066000837080648C93938D848D981306C0028868
:10067000F389E02D80818F7D80830895EF92FF9232
:100680000F931F93CF93DF93EC0181E0888F9B8DB5
:100690008C8D98131AC0E889F989808185FF15C06F
:1006A0009FB7F894EE89FF896083E889F989808192
:1006B0008370806480839FBF81E090E0DF91CF9161
:1006C0001F910F91FF90EF900895F62E0B8D10E083
:1006D0000F5F1F4F0F731127E02E8C8D8E110CC0F2
:1006E0000FB607FCFACFE889F989808185FFF5CF3D
:1006F000CE010E941C03F1CFEB8DEC0FFD2FF11DFD
:10070000E35AFF4FF0829FB7F8940B8FEA89FB8979
:1007100080818062CFCFCF93DF93EC01888D8823D7
:10072000B9F0AA89BB89E889F9898C9185FD03C054
:10073000808186FD0DC00FB607FCF7CF8C9185FF39
:10074000F2CF808185FFEDCFCE010E941C03E9CF5F
:10075000DF91CF91089520912302260F3327331F75
:1007600021323105ECF42091B202FC0190E080E0EE
:10077000243069F082E00895A09123022191AC0118
:100780004D5F5D4FA40FB52FB11D2C9301968617B9
:1007900098F380912302680F6093230280E008950C
:1007A00081E008951092B20281E08093B10210922C
:1007B0008C0261E082E10E94DE0061E083E10E9440
:1007C000DE00E9EBF0E080818E7F808380818D7F89
:1007D000808388E48093B80085E48093BC0008950A
:1007E000CF93DF9391E0909302028823B9F0C091F8
:1007F000B800D091BA008091BC008A7B8093BC0085
:1008000060E082E10E94DE0060E083E10E94DE00A1
:100810000E94D203D093BA00C093B800DF91CF9169
:1008200008958F929F92AF92BF92CF92DF92EF92F4
:10083000FF920F931F93CF93DF93D091DB02D132BE
:1008400008F0D7C0182FC091DA020E9477026B011E
:100850007C018091B20281116BC082E08093B20270
:100860001093B1028FEF8093B0021092AF02D09339
:10087000AE02AAEBB2E0EEE8F2E080E0D81391C05D
:1008800010928D0280918D02CC0FC82BC0938D02E7
:1008900080918C02813009F088C010928C020E94F5
:1008A00077026B017C0180918D028093BB00809167
:1008B000B4029091B502A091B602B091B702892B13
:1008C0008A2B8B2BA1F00E9477020091B402109129
:1008D000B5022091B6023091B7026C197D098E09DC
:1008E0009F09061717072807390708F442C08091A7
:1008F000BC0083FDD8CF85EC8093BC000E947702BA
:100900006B017C018091B202823009F450C0809169
:10091000B0028F3F09F46FC08091B002803209F4B9
:100920006CC08091B002803309F469C084E026C0B5
:100930008091B4029091B502A091B602B091B70235
:10094000892B8A2B8B2B09F484CF0E94770280900D
:10095000B4029090B502A090B602B090B7026C19A4
:100960007D098E099F0986169706A806B90608F024
:1009700070CF8091B3020E94F00385E01092B9021B
:100980001092DB021092B802DF91CF911F910F916C
:10099000FF90EF90DF90CF90BF90AF909F908F909F
:1009A00008959D9191938F5F69CF85EEA5CF80913A
:1009B000B4029091B502A091B602B091B702892B12
:1009C0008A2B8B2B09F49ECF0E9477020091B402F0
:1009D0001091B5022091B6023091B7026C197D09D1
:1009E0008E099F09061717072807390708F08ACFCD
:1009F000C0CF81E0C3CF80E0C1CF82E0BFCF83E032
:100A0000BDCF0F931F93CF93DF93162F072FCBE804
:100A1000D3E0A885B9859A8521E02093B802909308
:100A2000DA021092B9021092DB02ED91FC9111975B
:100A30000190F081E02D682FCD0109958885998579
:100A4000DC01ED91FC910190F081E02D602F099582
:100A500088859985DC01ED91FC910190F081E02D74
:100A6000612F099581E0DF91CF911F910F910C9437
:100A700011040895E0916B0280916A02E81730F446
:100A8000F0E0E459FD4F808190E008958FEF9FEFF3
:100A9000089590916B0280916A022FEF3FEF9817B3
:100AA00048F4E92FF0E0E459FD4F208130E09F5FEA
:100AB00090936B02C901089580916A0290916B0234
:100AC000891B990B0895CF92DF92EF92FF920F93BB
:100AD0001F93CF93DF937C01CB018A012091B80251
:100AE000222389F0EB016B01C40ED51ECC15DD0568
:100AF00069F06991D701ED91FC910190F081E02DB1
:100B0000C7010995F3CF642F0E94AB03C801DF91A1
:100B1000CF911F910F91FF90EF90DF90CF900895AC
:100B2000CF93DF931F92CDB7DEB769832091B802D0
:100B30002223F9F02091DB02203258F021E030E04E
:100B4000FC013383228390E080E00F90DF91CF910E
:100B500008958091B902E82FF0E0E654FD4F9981A5
:100B600090838F5F8093B9028093DB0281E090E0F5
:100B7000ECCF61E0CE0101960E94AB03F7CF90E08D
:100B800080E00895FC0101900020E9F73197AF0162
:100B9000481B590BBC018CED92E00C949E028F9285
:100BA0009F92AF92BF920F931F93CF93DF93CDB7D6
:100BB000DEB7A1970FB6F894DEBF0FBECDBF19A266
:100BC000423008F44AE08E010F5D1F4F842E912CB5
:100BD000B12CA12CA50194010E94C20FE62FB901EE
:100BE000CA01EA30F4F4E05DD801EE938D01232BC5
:100BF000242B252B79F790E080E0109719F0CD0198
:100C00000E94C205A1960FB6F894DEBF0FBECDBFFD
:100C1000DF91CF911F910F91BF90AF909F908F90D8
:100C20000895E95CE1CF0C94C205CF92DF92EF9278
:100C3000FF920F931F93CF93A0919303B0919403CE
:100C40009091950321E02093B8029093DA021092DC
:100C5000B9021092DB02ED91FC9111970190F081A5
:100C6000E02D682FCD01099580E00E941104C0910C
:100C700095030E9477026B017C018091B202811181
:100C800065C081E08093B2028093B1029FEF9093A0
:100C9000B0021092AF028093AE0280938D028091D9
:100CA0008D02CC0FC82BC0938D0280918C028130B5
:100CB00009F0AAC010928C020E9477026B017C019D
:100CC00080918D028093BB008091B4029091B50217
:100CD000A091B602B091B702892B8A2B8B2BA1F081
:100CE0000E9477020091B4021091B5022091B602E1
:100CF0003091B7026C197D098E099F0906171707F5
:100D00002807390708F443C08091BC0083FDD8CF81
:100D100085EC8093BC000E9477026B017C0180917E
:100D2000B202813009F472C08091AF02823008F0C3
:100D30008FC08091AF02EEE8F2E0ACE6B2E090E066
:100D4000981751F121912D939F5FFACF8091B402B2
:100D50009091B502A091B602B091B702892B8A2B6F
:100D60008B2B09F48ACF0E9477020091B402109174
:100D7000B5022091B6023091B7026C197D098E0937
:100D80009F09061717072807390708F076CF8091C3
:100D9000B3020E94F00380E010926B0280936A021B
:100DA0008091930390919403DC01ED91FC91008478
:100DB000F185E02D0995892B09F44CC080919303AE
:100DC00090919403DC01ED91FC910284F385E02D78
:100DD0000995C82F8091930390919403DC01ED91C4
:100DE000FC910284F385E02D09952C2F30E0322F01
:100DF0002227820F932F911DCF911F910F91FF906A
:100E0000EF90DF90CF90089585EE83CF8091B4026C
:100E10009091B502A091B602B091B702892B8A2BAE
:100E20008B2B09F47CCF0E9477020091B4021091C1
:100E3000B5022091B6023091B7026C197D098E0976
:100E40009F09061717072807390708F068CF9FCFB3
:100E500082E071CF80E0C0E0C8CFCF92DF92EF9206
:100E6000FF92CF93DF936C01990FEE08FF08F7FE16
:100E700019C06DE28CED92E00E943E03EC01662702
:100E80007727CB016C197D098E099F094AE00E94E2
:100E9000CF058C0F9D1FDF91CF91FF90EF90DF90DA
:100EA000CF9008954AE0C701B601DF91CF91FF903E
:100EB000EF90DF90CF900C94CF0585ED8093BC0030
:100EC0008091B4029091B502A091B602B091B702A0
:100ED0000796A11DB11D23E0B695A7959795879517
:100EE0002A95D1F72091BC0024FD03C01092B202D4
:100EF00008954091B4025091B5026091B60270918C
:100F0000B702452B462B472B69F30097A105B10586
:100F100041F025E32A95F1F700000197A109B109F5
:100F2000E1CF8091B3020C94F0031F920F920FB6A1
:100F30000F9211242F933F938F939F93AF93BF935F
:100F40008091620290916302A0916402B091650267
:100F50003091610223E0230F2D3758F50196A11D32
:100F6000B11D209361028093620290936302A0936B
:100F70006402B09365028091660290916702A0912D
:100F80006802B09169020196A11DB11D80936602AD
:100F900090936702A0936802B0936902BF91AF91EA
:100FA0009F918F913F912F910F900FBE0F901F90A7
:100FB000189526E8230F0296A11DB11DD2CF1F92CE
:100FC0000F920FB60F9211242F933F934F935F937D
:100FD0006F937F938F939F93AF93BF93EF93FF9301
:100FE0008CED92E00E941C03FF91EF91BF91AF91B5
:100FF0009F918F917F916F915F914F913F912F9131
:101000000F900FBE0F901F9018951F920F920FB662
:101010000F9211242F938F939F93EF93FF93E0915F
:10102000EC02F091ED028081E091F202F091F30286
:1010300082FD1BC090818091F5028F5F8F7320919C
:10104000F602821741F0E091F502F0E0E452FD4F24
:10105000958F8093F502FF91EF919F918F912F9142
:101060000F900FBE0F901F9018958081F4CF1F92A4
:101070000F920FB60F9211242F933F934F935F93CC
:101080006F937F938F939F93AF93BF93EF93FF9350
:101090008091B900887F803609F44AC0F0F5883223
:1010A00009F4A7C018F5803109F49BC0B8F488236F
:1010B00009F4F9C0883009F494C0FF91EF91BF9111
:1010C000AF919F918F917F916F915F914F913F91E0
:1010D0002F910F900FBE0F901F901895883109F433
:1010E00088C0803251F78093B00214C0803409F474
:1010F0009DC040F48033B9F38833F9F68093B00291
:1011000085ECB0C0803509F485C0883509F496C0F7
:10111000883499F60E945D07D0CF883909F48CC0D5
:1011200038F5883729F050F4883611F0803729F6E1
:1011300083E08093B2021092450257C0883809F4C8
:101140007BC0803919F0803809F0B7CF8091450213
:10115000803208F071C0E091450281E08E0F8093EB
:1011600045028091BB00F0E0EB5DFD4F80833DC008
:10117000803B39F0E0F4803A09F479C0883A09F00C
:101180009CCF84E08093B20210922402109223023A
:10119000E0914802F0914902099580912302811162
:1011A0000FC081E0809323021092030209C0803CAB
:1011B00009F4A6CF883C09F4A3CF883B09F07DCF82
:1011C000E091240281E08E0F80932402F0E0ED5F35
:1011D000FD4F80818093BB00909124028091230277
:1011E00029C080918D028093BB0085EC8093BC0068
:1011F00064CF9091AF028091AE02981758F5E091BC
:10120000AF0281E08E0F8093AF02F0E0E257FD4F16
:101210008081E9CFE091AF0281E08E0F8093AF0231
:101220008091BB00F0E0E257FD4F80839091AF02C8
:101230008091AE029817C8F285E8D8CFE091AF024E
:1012400081E08E0F8093AF028091BB00F0E0E25707
:10125000FD4F80838091B10281115CCF81E080934A
:101260008C0284EA8093BC001092B20226CF85ECF7
:101270008093BC001092B20280914502803230F41B
:10128000E0914502F0E0EB5DFD4F10826091450278
:1012900070E0E0914602F091470285E292E0099504
:1012A000109245020ACF1092B00234CFCF93DF9351
:1012B000ECEDF2E01382128288EE93E0A0E0B0E061
:1012C00084839583A683B78324E131E0318320832F
:1012D00025EC30E03587248724EC30E037872687FB
:1012E00020EC30E0318B208B21EC30E0338B228BF3
:1012F00022EC30E0358B248B26EC30E0378B268BCC
:10130000118E128E138E148EEFE7F3E01382128289
:1013100084839583A683B78386E291E0918380835B
:10132000ABE8B3E01996FC93EE93189780E41A9615
:101330008C93C9E7D3E08CE08C838DE08D8361E0F2
:101340008CE00E94380161E08D81DF91CF910C9497
:101350003801789484B5826084BD84B5816084BD91
:1013600085B5826085BD85B5816085BD80916E0043
:10137000816080936E001092810080918100826074
:1013800080938100809181008160809381008091B1
:1013900080008160809380008091B10084608093A0
:1013A000B1008091B00081608093B00080917A009C
:1013B000846080937A0080917A00826080937A00C2
:1013C00080917A00816080937A0080917A008068B1
:1013D00080937A001092C100E091EC02F091ED024E
:1013E00082E08083E091E802F091E9021082E091CE
:1013F000EA02F091EB0280E180831092F402E09126
:10140000F002F091F10286E08083E091EE02F0912B
:10141000EF02808180618083E091EE02F091EF0223
:10142000808188608083E091EE02F091EF028081FC
:1014300080688083E091EE02F091EF0280818F7DE1
:10144000808310926B0210926A021092B90210927D
:10145000DB020E94D2038CE992E0909349028093D0
:1014600048028DE992E0909347028093460260E043
:1014700070E880E00E940105882309F45AC384E3E0
:1014800091E00E94C2058AE491E00E94C2050E9498
:10149000F50180E48093790380EC80937A038AE8F5
:1014A00080937B0360E08EE00E94380162E089E077
:1014B0000E94380160E08FE00E94380162E088E01D
:1014C0000E94380160E080E10E94380162E087E01C
:1014D0000E94380161E082E00E94380161E084E00E
:1014E0000E94380161E08CE00E94380161E08DE0EB
:1014F0000E94380195EF292E33243394412C512C2E
:101500000E94F5011092600210925F0210925E023A
:1015100060E086E00E94DE0060E085E00E94DE0080
:1015200060E083E00E94DE0084E00E941506EC018A
:101530008091AD0370E060E0882331F120E030E07D
:1015400048EC52E460919C0370919D0380919E034E
:1015500090919F030E9401126B017C0160919603A0
:101560007091970390E080E00E944A119B01AC01CA
:10157000C701B6010E94011220E030E040E859E3C3
:101580000E9401120E941411CE01861B970BBC0110
:10159000072E000C880B990B0E944C116B017C01EB
:1015A0002091A0033091A1034091A2035091A30385
:1015B0006091A4037091A5038091A6039091A70365
:1015C0000E9401129B01AC01C701B6010E94A2104A
:1015D0006B017C0120E030E0A9010E949D1087FD95
:1015E000AFC320E030E040EF51E4C701B6010E94F4
:1015F000FC1118160CF4A8C3C0925A02D0925B02D8
:10160000E0925C02F0925D0220E030E048EC52E4AF
:10161000C701B6010E9401120E9414117093590271
:1016200060935802DB012AEF30E00E940F1028EB94
:101630003BE040E050E00E94980F6901390130938F
:101640005702209356028EE00E9462025C01909342
:101650005502809354028FE00E9462028C019093A5
:1016600053028093520280E10E946202EC01909347
:1016700051028093500289E00E94B50088E00E94E8
:10168000B50087E00E94B5009AE0A91692E0B9067D
:101690000CF461C395010B2C000C440B550B2A5024
:1016A000324041095109AFEFB0E00E94B70FA201EB
:1016B00091010E94980F30934F0220934E0221E037
:1016C000209305011092040127EFA21A21E0B20A2B
:1016D00084E1A816B10440F41092050110920401AF
:1016E00010924F0210924E020A3092E019070CF449
:1016F00051C39801012E000C440B550B2A50324067
:1017000041095109AFEFB0E00E94B70FA20191016A
:101710000E94980F30934D0220934C0221E02093B9
:10172000030110920201075F11400431110540F4DA
:10173000109203011092020110924D0210924C027D
:10174000CA3022E0D2070CF443C39E010D2E000CD8
:10175000440B550B2A50324041095109AFEFB0E01C
:101760000E94B70FA20191010E94980F30934B0283
:1017700020934A0281E08093010110920001C75F2B
:10178000D140649740F41092010110920001109230
:101790004B0210924A0210916002111108C060E0E1
:1017A00082E00E94DE0060E084E00E94DE00D091D2
:1017B0005F02D11108C060E082E00E94DE0060E0BC
:1017C00084E00E94DE00C0915E02C11108C060E0AA
:1017D00082E00E94DE0060E084E00E94DE008091F2
:1017E0000501882389F011110FC061E082E00E9499
:1017F000DE0060E084E00E94DE0060914E027091A5
:101800004F0286E00E94050280910301882389F03F
:10181000D1110FC061E082E00E94DE0060E084E050
:101820000E94DE0060914C0270914D0285E00E94A2
:10183000050280910101882389F0C1110FC061E088
:1018400082E00E94DE0060E084E00E94DE006091A1
:101850004A0270914B0283E00E94050280910401CC
:10186000882389F011110FC060E082E00E94DE0041
:1018700061E084E00E94DE0060914E0270914F02B0
:1018800086E00E94050280910201882389F0D1112F
:101890000FC060E082E00E94DE0061E084E00E9410
:1018A000DE0060914C0270914D0285E00E940502BD
:1018B00080910001882389F0C1110FC060E082E0AF
:1018C0000E94DE0061E084E00E94DE0060914A0236
:1018D00070914B0283E00E940502C3016AE070E050
:1018E0000E94F30FEC01682F83E00E94C8018AE098
:1018F00068167104BCF1C30164E670E00E94F30F46
:101900008C1B9D0B6AE070E00E94F30F8B0182E05C
:101910000E94C80194E66916710424F1C30168EEBF
:1019200073E00E94F30F801B910B8C1B9D0B64E6F0
:1019300070E00E94F30F5B0181E00E94C80128EE75
:10194000621623E0720674F0CA18DB08C01AD10AC6
:10195000C6018C1B9D0B68EE73E00E94F30F80E0C4
:101960000E94C8018DE491E00E9413068091540208
:10197000909155020E942D0782E591E00E94130686
:1019800080914E0290914F020E942D0788E591E0D0
:101990000E94130681E090E00E942D078EE591E001
:1019A0000E9413068091050190E00E942D0784E6B5
:1019B00091E00E9413068091040190E00E942D079F
:1019C0008AE691E00E9413068091600290E00E94F6
:1019D0002D0783E791E00E941306809152029091B7
:1019E00053020E942D0789E791E00E94130680911F
:1019F0004C0290914D020E942D078FE791E00E94CA
:101A0000130681E090E00E942D0785E891E00E9496
:101A100013068091030190E00E942D078BE891E06E
:101A20000E9413068091020190E00E942D0781E937
:101A300091E00E94130680915F0290E00E942D07C2
:101A40008AE991E00E941306809150029091510220
:101A50000E942D078FE991E00E94130680914A02AF
:101A600090914B020E942D0784EA91E00E94130698
:101A700081E090E00E942D078BEA91E00E9413061E
:101A80008091010190E00E942D0782EB91E00E947D
:101A900013068091000190E00E942D0789EB91E0F0
:101AA0000E94130680915E0290E00E942D0783EC55
:101AB00091E00E941306C0905A02D0905B02E09021
:101AC0005C02F0905D02A7019601C701B6010E9479
:101AD0006E12882309F49AC181ED91E00E94C2053B
:101AE0008DED91E00E941306809158029091590269
:101AF0000E942D078CEE91E00E9413068091560201
:101B0000909157020E942D078EEF91E00E94C2052E
:101B10008AE491E00E94C20580E090E0892B09F4FC
:101B2000EFCC0E940803882309F4EACC0E9400004D
:101B3000E7CC83E090E090938C0380938B0380E06C
:101B40000E9415068770987FBC016869716080E00B
:101B50000E94010587E090E090938E0380938D03AF
:101B600080E00E941506887F60918D0370918E033E
:101B7000682B792B80E00E94010580E098E190932A
:101B8000900380938F0380E00E941506977E6091FA
:101B90008F0370919003682B792B80E00E940105E0
:101BA00080918F0390919003811528E0920709F4AA
:101BB00085C0B0F5892B09F45CC0609196037091E3
:101BC000970385E00E94010580E090E290939203E4
:101BD0008093910380E00E9415069F7D60919103A0
:101BE00070919203682B792B80E00E94010580E0C0
:101BF00090E0A0E8BFE38093A0039093A103A0939B
:101C0000A203B093A3031092AC0310929C03109212
:101C10009D0310929E0310929F031092AD0337CC48
:101C2000811520E1920709F46AC08115984129F6CF
:101C300080E090E1909397038093960380E090E09A
:101C4000A0E2B1E48093A4039093A503A093A6031C
:101C5000B093A70380E090E0A0E0B0E48093A803F5
:101C60009093A903A093AA03B093AB0380E09DE7F0
:101C700020C080E090E5909397038093960380E0E6
:101C800090E0A8E4B2E48093A4039093A503A0930A
:101C9000A603B093A7038DEC9CECACECBEE3809361
:101CA000A8039093A903A093AA03B093AB0380EA7F
:101CB0009FE09093AF038093AE037FCF80E098E2E4
:101CC000909397038093960380E090E0A8ECB1E4B2
:101CD0008093A4039093A503A093A603B093A703B6
:101CE0008DEC9CECACE4BFE38093A8039093A90334
:101CF000A093AA03B093AB0380E49FE1DACF80E026
:101D000090E2909397038093960380E090E0A0EA9E
:101D1000B1E48093A4039093A503A093A603B0938A
:101D2000A70380E090E0A0E8BFE38093A80390932E
:101D3000A903A093AA03B093AB0380E89EE3B9CFB5
:101D4000C12CD12C760158CCC12CD12C80EFE82E9F
:101D500081E4F82E51CC87EFA81681E0B8060CF08C
:101D6000B3CC9501A1E0BFEF0E94071026EF31E050
:101D700040E050E00E94980F21503F4F4F4F5F4F7F
:101D800030934F0220934E021092050191E0909300
:101D900004019ACC073F81E018070CF0C4CC9801ED
:101DA000A1E0BFEF0E94071026EF31E040E050E0D5
:101DB0000E94980F21503F4F4F4F5F4F30934D027D
:101DC00020934C021092030191E090930201ABCC5E
:101DD000C73F91E0D9070CF0D2CC9E01A1E0BFEF44
:101DE0000E94071026EF31E040E050E00E94980F7B
:101DF00021503F4F4F4F5F4F30934B0220934A0289
:101E00001092010121E020930001B9CC4601570155
:101E1000E894B7F82FEF3FEF4FE75FE7C501B40154
:101E20000E946E1281110DC02FEF3FEF4FE75FE769
:101E3000C501B4010E949D1018161CF485ED91E0B7
:101E40004DCE2FEF3FEF4FE75FE4C701B6010E9491
:101E5000FC1118161CF489ED91E040CE2FEF3FEFF6
:101E60004FE75FECC701B6010E949D1087FDF3CFDD
:101E700020E030E0A901C701B6010E949D1087FF54
:101E800009C06DE28CED92E00E943E03F7FAF094F7
:101E9000F7F8F0942AE037ED43EA5BE3C701B601B7
:101EA0000E9431104B015C010E941B116B017C01EF
:101EB0000E944A119B01AC01C501B4010E9430107F
:101EC0004B015C014AE0C701B6010E94CF056EE2FA
:101ED0008CED92E00E943E0320E030E040E251E4CD
:101EE000C501B4010E9401124B015C010E941B114B
:101EF0006B01F12CE12C4AE0C701B6010E94CF052D
:101F0000C701B6010E944A119B01AC01C501B40191
:101F10000E94301020E030E040E251E40E940112C3
:101F20000E941B1190E080E04AE00E94CF05D8CDCE
:101F3000052E97FB1EF400940E94AF0F57FD07D0AB
:101F40000E94C20F07FC03D04EF40C94AF0F5095C3
:101F50004095309521953F4F4F4F5F4F0895909595
:101F60008095709561957F4F8F4F9F4F08950E9488
:101F7000E40FA59F900DB49F900DA49F800D911D1F
:101F800011240895A1E21A2EAA1BBB1BFD010DC04E
:101F9000AA1FBB1FEE1FFF1FA217B307E407F50719
:101FA00020F0A21BB30BE40BF50B661F771F881FF5
:101FB000991F1A9469F760957095809590959B018B
:101FC000AC01BD01CF010895A29FB001B39FC00134
:101FD000A39F700D811D1124911DB29F700D811D55
:101FE0001124911D089597FB072E16F4009407D035
:101FF00077FD09D00E94161007FC05D03EF490959D
:1020000081959F4F0895709561957F4F08950E9427
:10201000E40F332312F48A1B9B0B0C9411100E94C3
:10202000E40FB7FF0895821B930B0895AA1BBB1BF7
:1020300051E107C0AA1FBB1FA617B70710F0A61BC8
:10204000B70B881F991F5A95A9F780959095BC01E9
:10205000CD010895EE0FFF1F0590F491E02D099436
:102060005058BB27AA270E9448100C94C2110E9406
:10207000B41138F00E94BB1120F039F49F3F19F4DD
:1020800026F40C94B1110EF4E095E7FB0C94AB111F
:10209000E92F0E94D31158F3BA1762077307840718
:1020A000950720F079F4A6F50C94F5110EF4E0955F
:1020B0000B2EBA2FA02D0B01B90190010C01CA0102
:1020C000A0011124FF27591B99F0593F50F4503EAD
:1020D00068F11A16F040A22F232F342F4427585F9F
:1020E000F3CF469537952795A795F0405395C9F7B7
:1020F0007EF41F16BA0B620B730B840BBAF091506F
:10210000A1F0FF0FBB1F661F771F881FC2F70EC00D
:10211000BA0F621F731F841F48F4879577956795E0
:10212000B795F7959E3F08F0B0CF9395880F08F0CC
:102130009927EE0F9795879508950E94871108F4C7
:1021400081E008950E94B6100C94C2110E94BB1148
:1021500058F00E94B41140F029F45F3F29F00C942C
:10216000AB1151110C94F6110C94B1110E94D311C2
:1021700068F39923B1F3552391F3951B550BBB27B6
:10218000AA2762177307840738F09F5F5F4F220FFB
:10219000331F441FAA1FA9F335D00E2E3AF0E0E8F2
:1021A00032D091505040E695001CCAF72BD0FE2F3C
:1021B00029D0660F771F881FBB1F261737074807D0
:1021C000AB07B0E809F0BB0B802DBF01FF27935888
:1021D0005F4F3AF09E3F510578F00C94AB110C9490
:1021E000F6115F3FE4F3983ED4F3869577956795B3
:1021F000B795F7959F5FC9F7880F911D96958795BD
:1022000097F90895E1E0660F771F881FBB1F6217DB
:1022100073078407BA0720F0621B730B840BBA0B99
:10222000EE1F88F7E09508950E941B116894B11184
:102230000C94F61108950E94DB1188F09F5798F0D6
:10224000B92F9927B751B0F0E1F0660F771F881FBB
:10225000991F1AF0BA95C9F714C0B13091F00E94D5
:10226000F511B1E008950C94F511672F782F8827A8
:10227000B85F39F0B93FCCF3869577956795B395FC
:10228000D9F73EF490958095709561957F4F8F4F6B
:102290009F4F0895E89409C097FB3EF49095809570
:1022A000709561957F4F8F4F9F4F9923A9F0F92F1C
:1022B00096E9BB279395F695879577956795B7959A
:1022C000F111F8CFFAF4BB0F11F460FF1BC06F5F80
:1022D0007F4F8F4F9F4F16C0882311F096E911C092
:1022E000772321F09EE8872F762F05C0662371F0B3
:1022F00096E8862F70E060E02AF09A95660F771FC7
:10230000881FDAF7880F9695879597F90895990FA2
:102310000008550FAA0BE0E8FEEF16161706E807AF
:10232000F907C0F012161306E407F50798F0621BD0
:10233000730B840B950B39F40A2661F0232B242BA5
:10234000252B21F408950A2609F4A140A6958FEFC4
:10235000811D811D089597F99F6780E870E060E016
:1023600008959FEF80EC089500240A94161617062E
:1023700018060906089500240A9412161306140676
:1023800005060895092E0394000C11F4882352F0D9
:10239000BB0F40F4BF2B11F460FF04C06F5F7F4F91
:1023A0008F4F9F4F089557FD9058440F551F59F078
:1023B0005F3F71F04795880F97FB991F61F09F3F32
:1023C00079F087950895121613061406551FF2CF5B
:1023D0004695F1DF08C0161617061806991FF1CFAB
:1023E00086957105610508940895E894BB276627D2
:1023F0007727CB0197F908950E94871108F48FEF92
:1024000008950E9414120C94C2110E94B41138F065
:102410000E94BB1120F0952311F00C94AB110C9489
:10242000B11111240C94F6110E94D31170F3959FF1
:10243000C1F3950F50E0551F629FF001729FBB27BB
:10244000F00DB11D639FAA27F00DB11DAA1F649F57
:102450006627B00DA11D661F829F2227B00DA11D0A
:10246000621F739FB00DA11D621F839FA00D611D90
:10247000221F749F3327A00D611D231F849F600DB1
:10248000211D822F762F6A2F11249F5750409AF0DA
:10249000F1F088234AF0EE0FFF1FBB1F661F771F66
:1024A000881F91505040A9F79E3F510580F00C9431
:1024B000AB110C94F6115F3FE4F3983ED4F386958C
:1024C00077956795B795F795E7959F5FC1F7FE2BD1
:1024D000880F911D9695879597F908950E94871109
:0A24E000880B990B0895F894FFCFC4
:1024EA000101010101013F065B4F666D7D077F6FA8
:1024FA00000000003E039E02CB028B03FC02DA02BC
:10250A00EE020000000090056305BF0539055C0571
:10251A0049053A05494E41323139206E6F742063BC
:10252A006F6E6E656374656421000D0A0041315651
:10253A003A002041314F3A002041314E3A002041C1
:10254A0031553A00204131443A002041314C6F6301
:10255A006B3A00204132563A002041324F3A00206D
:10256A0041324E3A00204132553A00204132443A33
:10257A00002041324C6F636B3A002046563A0020E5
:10258A00464F3A002041464E3A2000204146553AED
:10259A002000204146443A20002041464C6F636B9C
:1025AA003A20002043757272656E745B6D415D3A24
:1025BA00006E616E00696E66006F7666002050726A
:1025CA006573737572652076616C3A002050726586
:1025DA0073737572652061637475616C3A002020AB
:0225EA000000EF
:00000001FF
