:100000000C9462000C948A000C948A000C948A0070
:100010000C948A000C948A000C948A000C948A0038
:100020000C948A000C948A000C948A000C948A0028
:100030000C948A000C948A000C948A000C948A0018
:100040000C9495070C948A000C9405080C94DF0717
:100050000C948A000C948A000C948A000C948A00F8
:100060000C9437080C948A0000000000240027003C
:100070002A0000000000250028002B0000000000DE
:1000800023002600290004040404040404040202DA
:100090000202020203030303030301020408102007
:1000A0004080010204081020010204081020000012
:1000B0000008000201000003040700000000000027
:1000C0000000560911241FBECFEFD8E0DEBFCDBF20
:1000D00011E0A0E0B1E0E8EDF5E202C005900D927C
:1000E000AA3FB107D9F723E0AAEFB1E001C01D9202
:1000F000A43BB207E1F710E0C2E6D0E004C02197CC
:10010000FE010E94A110C136D107C9F70E94A909BA
:100110000C94EA120C940000833081F028F48130B2
:1001200099F08230A9F008958730A9F08830C9F09D
:100130008430B1F4809180008F7D03C08091800075
:100140008F7780938000089584B58F7784BD08955C
:1001500084B58F7DFBCF8091B0008F778093B00006
:1001600008958091B0008F7DF9CFCF93DF93282F32
:1001700030E0F901E255FF4F8491F901E656FF4F57
:10018000D491F901EA57FF4FC491CC23A1F081111A
:100190000E948C00EC2FF0E0EE0FFF1FE458FF4FA1
:1001A000A591B491EC91ED2381E090E009F480E019
:1001B000DF91CF91089580E090E0FACF1F93CF9325
:1001C000DF93282F30E0F901E255FF4F8491F901C8
:1001D000E656FF4FD491F901EA57FF4FC491CC2363
:1001E000A9F0162F81110E948C00EC2FF0E0EE0F89
:1001F000FF1FEE58FF4FA591B4918FB7F894EC9183
:10020000111108C0D095DE23DC938FBFDF91CF9111
:100210001F910895DE2BF8CFCF93DF93CDE7D3E086
:1002200060E08C810E94DE0060E08D810E94DE0033
:1002300061E08C810E94DE0061E08D81DF91CF91D1
:100240000C94DE00CF93DF93CDE7D3E061E08C81A7
:100250000E94DE0061E08D810E94DE0060E08D8101
:100260000E94DE0060E08C81DF91CF910C94DE0073
:10027000CF93DF9390E0FC01E656FF4F24918A571D
:100280009F4FFC0184918823C9F090E0880F991F4B
:10029000FC01E859FF4FA591B491FC01EE58FF4FC6
:1002A000C591D49161110DC09FB7F8948C912095A0
:1002B00082238C938881282328839FBFDF91CF914D
:1002C0000895623051F49FB7F8943C91822F809545
:1002D00083238C93E8812E2BEFCF8FB7F894EC918A
:1002E0002E2B2C938FBFEACFEF92FF921F93CF93C9
:1002F000DF93182FD8E060E0809181030E94DE0038
:10030000E12E012E000CFF0861E010FF60E08091FB
:1003100082030E94DE00F594E7941E2D61E0809137
:1003200081030E94DE00D15031F760E080918103AB
:100330000E94DE0061E0809182030E94DE0061E0A5
:10034000809181030E94DE0060E0809182030E9420
:100350003801809182030E94B500892B79F0CF5F2C
:10036000C83C91F761E0809182030E94380160E00F
:10037000809182030E94DE00C0E0E6CF61E08091C0
:100380008203DF91CF911F91FF90EF900C94380181
:10039000CF93DF93D82F80918003811180E8C82FFD
:1003A0006F3739F0E62F660FFF0BE75FFE4FC08116
:1003B000C80F0E94220184E40E9474010E940C0173
:1003C0000E9422018D2F806C0E9474018C2F0E944C
:1003D00074010E940C010E94220180917F030E94FF
:1003E0007401DF91CF910C940C016FE780E00E94C3
:1003F000C8016FE781E00E94C8016FE782E00E94B8
:10040000C8016FE783E00C94C8011F93CF93DF937B
:10041000182FEB0161E00E943801209739F460E069
:10042000812FDF91CF911F910C94DE00CF3FD1053A
:1004300011F461E0F5CFE12FF0E0E255FF4FE491D8
:10044000E33031F140F4E130B1F0E230E1F0C038B6
:10045000D1057CF7E4CFE73029F1E83059F1E430F9
:10046000B1F780918000806280938000D0938B00F0
:10047000C0938A0004C084B5806884BDC7BDDF9185
:10048000CF911F91089584B5806284BDC8BDF7CF18
:1004900080918000806880938000D0938900C09311
:1004A0008800EDCF8091B00080688093B000C09349
:1004B000B300E5CF8091B00080628093B000C0931C
:1004C000B400DDCF8E3008F08E508770806480934A
:1004D0007C0080917A00806480937A0080917A0019
:1004E00086FDFCCF809178009091790008953FB708
:1004F000F89480916A0290916B02A0916C02B09185
:100500006D0226B5A89B05C02F3F19F00196A11DCD
:10051000B11D3FBFBA2FA92F982F8827BC01CD014D
:10052000620F711D811D911D42E0660F771F881FAC
:10053000991F4A95D1F7089508950895AF92BF92F3
:10054000CF92DF92EF92FF920F931F93CF93DF939F
:100550006C017B018B01040F151FEB015E01AE18CE
:10056000BF08C017D10759F06991D601ED91FC91F0
:100570000190F081E02DC6010995892B79F7C5011D
:10058000DF91CF911F910F91FF90EF90DF90CF906F
:10059000BF90AF900895FC01538D448D252F30E01E
:1005A000842F90E0821B930B541710F0CF96089580
:1005B00001970895FC01918D828D981761F0A28DAD
:1005C000AE0FBF2FB11D5D968C91928D9F5F9F7373
:1005D000928F90E008958FEF9FEF0895FC01918D29
:1005E000828D981731F0828DE80FF11D858D90E096
:1005F00008958FEF9FEF0895FC01918D228D892F33
:1006000090E0805C9F4F821B91098F73992708951A
:1006100080EE92E00E94FC0221E0892B09F420E0A8
:10062000822F089580E090E0892B29F00E94080332
:1006300081110C9400000895FC01A48DA80FB92F1E
:10064000B11DA35ABF4F2C91848D90E001968F73FA
:100650009927848FA689B7892C93A089B1898C9119
:10066000837080648C93938D848D981306C0028868
:10067000F389E02D80818F7D80830895EF92FF9232
:100680000F931F93CF93DF93EC0181E0888F9B8DB5
:100690008C8D98131AC0E889F989808185FF15C06F
:1006A0009FB7F894EE89FF896083E889F989808192
:1006B0008370806480839FBF81E090E0DF91CF9161
:1006C0001F910F91FF90EF900895F62E0B8D10E083
:1006D0000F5F1F4F0F731127E02E8C8D8E110CC0F2
:1006E0000FB607FCFACFE889F989808185FFF5CF3D
:1006F000CE010E941C03F1CFEB8DEC0FFD2FF11DFD
:10070000E35AFF4FF0829FB7F8940B8FEA89FB8979
:1007100080818062CFCFCF93DF93EC01888D8823D7
:10072000B9F0AA89BB89E889F9898C9185FD03C054
:10073000808186FD0DC00FB607FCF7CF8C9185FF39
:10074000F2CF808185FFEDCFCE010E941C03E9CF5F
:10075000DF91CF91089520911B02260F3327331F7D
:1007600021323105ECF42091B602FC0190E080E0EA
:10077000243069F082E00895A0911B022191AC0120
:1007800045505E4FA40FB52FB11D2C9301968617CF
:1007900098F380911B02680F60931B0280E008951C
:1007A00081E008951092B60281E08093B502109224
:1007B000900261E082E10E94DE0061E083E10E943C
:1007C000DE00E9EBF0E080818E7F808380818D7F89
:1007D000808388E48093B80085E48093BC0008950A
:1007E000CF93DF9391E09093FA018823B9F0C09101
:1007F000B800D091BA008091BC008A7B8093BC0085
:1008000060E082E10E94DE0060E083E10E94DE00A1
:100810000E94D203D093BA00C093B800DF91CF9169
:1008200008958F929F92AF92BF92CF92DF92EF92F4
:10083000FF920F931F93CF93DF93D091DF02D132BA
:1008400008F0D7C0182FC091DE020E9477026B011A
:100850007C018091B60281116BC082E08093B60268
:100860001093B5028FEF8093B4021092B302D0932D
:10087000B202AEEBB2E0E2E9F2E080E0D81391C060
:100880001092910280919102CC0FC82BC0939102DB
:1008900080919002813009F088C0109290020E94ED
:1008A00077026B017C01809191028093BB00809163
:1008B000B8029091B902A091BA02B091BB02892B03
:1008C0008A2B8B2BA1F00E9477020091B802109125
:1008D000B9022091BA023091BB026C197D098E09D0
:1008E0009F09061717072807390708F442C08091A7
:1008F000BC0083FDD8CF85EC8093BC000E947702BA
:100900006B017C018091B602823009F450C0809165
:10091000B4028F3F09F46FC08091B402803209F4B1
:100920006CC08091B402803309F469C084E026C0B1
:100930008091B8029091B902A091BA02B091BB0225
:10094000892B8A2B8B2B09F484CF0E94770280900D
:10095000B8029090B902A090BA02B090BB026C1994
:100960007D098E099F0986169706A806B90608F024
:1009700070CF8091B7020E94F00385E01092BD0213
:100980001092DF021092BC02DF91CF911F910F9164
:10099000FF90EF90DF90CF90BF90AF909F908F909F
:1009A00008959D9191938F5F69CF85EEA5CF80913A
:1009B000B8029091B902A091BA02B091BB02892B02
:1009C0008A2B8B2B09F49ECF0E9477020091B802EC
:1009D0001091B9022091BA023091BB026C197D09C5
:1009E0008E099F09061717072807390708F08ACFCD
:1009F000C0CF81E0C3CF80E0C1CF82E0BFCF83E032
:100A0000BDCF0F931F93CF93DF93162F072FCFE800
:100A1000D3E0A885B9859A8521E02093BC02909304
:100A2000DE021092BD021092DF02ED91FC9111974F
:100A30000190F081E02D682FCD0109958885998579
:100A4000DC01ED91FC910190F081E02D602F099582
:100A500088859985DC01ED91FC910190F081E02D74
:100A6000612F099581E0DF91CF911F910F910C9437
:100A700011040895E0916F0280916E02E81730F43E
:100A8000F0E0E059FD4F808190E008958FEF9FEFF7
:100A9000089590916F0280916E022FEF3FEF9817AB
:100AA00048F4E92FF0E0E059FD4F208130E09F5FEE
:100AB00090936F02C901089580916E0290916F0228
:100AC000891B990B0895CF92DF92EF92FF920F93BB
:100AD0001F93CF93DF937C01CB018A012091BC024D
:100AE000222389F0EB016B01C40ED51ECC15DD0568
:100AF00069F06991D701ED91FC910190F081E02DB1
:100B0000C7010995F3CF642F0E94AB03C801DF91A1
:100B1000CF911F910F91FF90EF90DF90CF900895AC
:100B2000CF93DF931F92CDB7DEB769832091BC02CC
:100B30002223F9F02091DF02203258F021E030E04A
:100B4000FC013383228390E080E00F90DF91CF910E
:100B500008958091BD02E82FF0E0E254FD4F9981A5
:100B600090838F5F8093BD028093DF0281E090E0ED
:100B7000ECCF61E0CE0101960E94AB03F7CF90E08D
:100B800080E00895FC0101900020E9F73197AF0162
:100B9000481B590BBC0180EE92E00C949E028F9290
:100BA0009F92AF92BF920F931F93CF93DF93CDB7D6
:100BB000DEB7A1970FB6F894DEBF0FBECDBF19A266
:100BC000423008F44AE08E010F5D1F4F842E912CB5
:100BD000B12CA12CA50194010E943910E62FB90176
:100BE000CA01EA30F4F4E05DD801EE938D01232BC5
:100BF000242B252B79F790E080E0109719F0CD0198
:100C00000E94C205A1960FB6F894DEBF0FBECDBFFD
:100C1000DF91CF911F910F91BF90AF909F908F90D8
:100C20000895E95CE1CF0C94C205CF92DF92EF9278
:100C3000FF920F931F93CF93A0919703B0919803C6
:100C40009091990321E02093BC029093DE021092D0
:100C5000BD021092DF02ED91FC9111970190F0819D
:100C6000E02D682FCD01099580E00E941104C0910C
:100C700099030E9477026B017C018091B602811179
:100C800065C081E08093B6028093B5029FEF909398
:100C9000B4021092B3028093B202809391028091C9
:100CA0009102CC0FC82BC0939102809190028130A9
:100CB00009F0AAC0109290020E9477026B017C0199
:100CC000809191028093BB008091B8029091B9020B
:100CD000A091BA02B091BB02892B8A2B8B2BA1F079
:100CE0000E9477020091B8021091B9022091BA02D5
:100CF0003091BB026C197D098E099F0906171707F1
:100D00002807390708F443C08091BC0083FDD8CF81
:100D100085EC8093BC000E9477026B017C0180917E
:100D2000B602813009F472C08091B302823008F0BB
:100D30008FC08091B302E2E9F2E0A0E7B2E090E078
:100D4000981751F121912D939F5FFACF8091B802AE
:100D50009091B902A091BA02B091BB02892B8A2B63
:100D60008B2B09F48ACF0E9477020091B802109170
:100D7000B9022091BA023091BB026C197D098E092B
:100D80009F09061717072807390708F076CF8091C3
:100D9000B7020E94F00380E010926F0280936E020F
:100DA0008091970390919803DC01ED91FC91008470
:100DB000F185E02D0995892B09F44CC080919703AA
:100DC00090919803DC01ED91FC910284F385E02D74
:100DD0000995C82F8091970390919803DC01ED91BC
:100DE000FC910284F385E02D09952C2F30E0322F01
:100DF0002227820F932F911DCF911F910F91FF906A
:100E0000EF90DF90CF90089585EE83CF8091B80268
:100E10009091B902A091BA02B091BB02892B8A2BA2
:100E20008B2B09F47CCF0E9477020091B8021091BD
:100E3000B9022091BA023091BB026C197D098E096A
:100E40009F09061717072807390708F068CF9FCFB3
:100E500082E071CF80E0C0E0C8CFCF92DF92EF9206
:100E6000FF92CF93DF936C01990FEE08FF08F7FE16
:100E700019C06DE280EE92E00E943E03EC0166270D
:100E80007727CB016C197D098E099F094AE00E94E2
:100E9000CF058C0F9D1FDF91CF91FF90EF90DF90DA
:100EA000CF9008954AE0C701B601DF91CF91FF903E
:100EB000EF90DF90CF900C94CF0585ED8093BC0030
:100EC0008091B8029091B902A091BA02B091BB0290
:100ED0000796A11DB11D23E0B695A7959795879517
:100EE0002A95D1F72091BC0024FD03C01092B602D0
:100EF00008954091B8025091B9026091BA02709180
:100F0000BB02452B462B472B69F30097A105B10582
:100F100041F025E32A95F1F700000197A109B109F5
:100F2000E1CF8091B7020C94F0031F920F920FB69D
:100F30000F9211242F933F938F939F93AF93BF935F
:100F40008091660290916702A0916802B091690257
:100F50003091650223E0230F2D3758F50196A11D2E
:100F6000B11D209365028093660290936702A0935F
:100F70006802B093690280916A0290916B02A0911D
:100F80006C02B0916D020196A11DB11D80936A02A1
:100F900090936B02A0936C02B0936D02BF91AF91DE
:100FA0009F918F913F912F910F900FBE0F901F90A7
:100FB000189526E8230F0296A11DB11DD2CF1F92CE
:100FC0000F920FB60F9211242F933F934F935F937D
:100FD0006F937F938F939F93AF93BF93EF93FF9301
:100FE00080EE92E00E941C03FF91EF91BF91AF91C0
:100FF0009F918F917F916F915F914F913F912F9131
:101000000F900FBE0F901F9018951F920F920FB662
:101010000F9211242F938F939F93EF93FF93E0915F
:10102000F002F091F1028081E091F602F091F70276
:1010300082FD1BC090818091F9028F5F8F73209198
:10104000FA02821741F0E091F902F0E0E052FD4F20
:10105000958F8093F902FF91EF919F918F912F913E
:101060000F900FBE0F901F9018958081F4CF1F92A4
:101070000F920FB60F9211242F933F934F935F93CC
:101080006F937F938F939F93AF93BF93EF93FF9350
:101090008091B900887F803609F44AC0F0F5883223
:1010A00009F4A7C018F5803109F49BC0B8F488236F
:1010B00009F4F9C0883009F494C0FF91EF91BF9111
:1010C000AF919F918F917F916F915F914F913F91E0
:1010D0002F910F900FBE0F901F901895883109F433
:1010E00088C0803251F78093B40214C0803409F470
:1010F0009DC040F48033B9F38833F9F68093B4028D
:1011000085ECB0C0803509F485C0883509F496C0F7
:10111000883499F60E945D07D0CF883909F48CC0D5
:1011200038F5883729F050F4883611F0803729F6E1
:1011300083E08093B60210923D0257C0883809F4CC
:101140007BC0803919F0803809F0B7CF80913D021B
:10115000803208F071C0E0913D0281E08E0F8093F3
:101160003D028091BB00F0E0E35EFD4F80833DC017
:10117000803B39F0E0F4803A09F479C0883A09F00C
:101180009CCF84E08093B60210921C0210921B0246
:10119000E0914002F0914102099580911B0281117A
:1011A0000FC081E080931B021092FB0109C0803CBC
:1011B00009F4A6CF883C09F4A3CF883B09F07DCF82
:1011C000E0911C0281E08E0F80931C02F0E0E5505C
:1011D000FE4F80818093BB0090911C0280911B0286
:1011E00029C0809191028093BB0085EC8093BC0064
:1011F00064CF9091B3028091B202981758F5E091B4
:10120000B30281E08E0F8093B302F0E0EE56FD4F03
:101210008081E9CFE091B30281E08E0F8093B30229
:101220008091BB00F0E0EE56FD4F80839091B302B9
:101230008091B2029817C8F285E8D8CFE091B30246
:1012400081E08E0F8093B3028091BB00F0E0EE56F8
:10125000FD4F80838091B50281115CCF81E0809346
:10126000900284EA8093BC001092B60226CF85ECEF
:101270008093BC001092B60280913D02803230F41F
:10128000E0913D02F0E0E35EFD4F108260913D028F
:1012900070E0E0913E02F0913F028DE192E009950D
:1012A00010923D020ACF1092B40234CFCF93DF9355
:1012B000E0EEF2E01382128288EE93E0A0E0B0E06C
:1012C00084839583A683B78327E131E0318320832C
:1012D00025EC30E03587248724EC30E037872687FB
:1012E00020EC30E0318B208B21EC30E0338B228BF3
:1012F00022EC30E0358B248B26EC30E0378B268BCC
:10130000118E128E138E148EE3E8F3E01382128294
:1013100084839583A683B78389E291E09183808358
:10132000AFE8B3E01996FC93EE93189780E41A9611
:101330008C93CDE7D3E08CE08C838DE08D8361E0EE
:101340008CE00E94380161E08D81DF91CF910C9497
:101350003801789484B5826084BD84B5816084BD91
:1013600085B5826085BD85B5816085BD80916E0043
:10137000816080936E001092810080918100826074
:1013800080938100809181008160809381008091B1
:1013900080008160809380008091B10084608093A0
:1013A000B1008091B00081608093B00080917A009C
:1013B000846080937A0080917A00826080937A00C2
:1013C00080917A00816080937A0080917A008068B1
:1013D00080937A001092C100E091F002F091F10246
:1013E00082E08083E091EC02F091ED021082E091C6
:1013F000EE02F091EF0280E180831092F802E0911A
:10140000F402F091F50286E08083E091F202F0911F
:10141000F302808180618083E091F202F091F30217
:10142000808188608083E091F202F091F3028081F4
:1014300080688083E091F202F091F30280818F7DD9
:10144000808310926F0210926E021092BD02109271
:10145000DF020E94D2038CE992E0909341028093D4
:1014600040028DE992E090933F0280933E0260E05B
:1014700070E880E00E940105882309F4C8C387E36F
:1014800091E00E94C2058DE491E00E94C2050E9495
:10149000F50180E480937D0380EC80937E038AE8ED
:1014A00080937F0360E08EE00E94380162E089E073
:1014B0000E94380160E08FE00E94380162E088E01D
:1014C0000E94380160E080E10E94380162E087E01C
:1014D0000E94380161E082E00E94380161E084E00E
:1014E0000E94380161E08CE00E94380161E08DE0EB
:1014F0000E94380110924802109247021092460250
:10150000C1E02FB7F8948091660290916702A09194
:101510006802B09169022FBF8093610290936202CA
:10152000A0936302B093640284E00E9415068C01CC
:101530008091B10370E060E0882331F120E030E079
:1015400048EC52E46091A0037091A1038091A20342
:101550009091A3030E9478126B017C0160919A0321
:1015600070919B0390E080E00E94C1119B01AC014F
:10157000C701B6010E94781220E030E040E859E34C
:101580000E9478120E948B11C801861B970BBC0128
:10159000072E000C880B990B0E94C3116B017C0174
:1015A0002091A4033091A5034091A6035091A70375
:1015B0006091A8037091A9038091AA039091AB0355
:1015C0000E9478129B01AC01C701B6010E9419115B
:1015D0006B017C0120E030E040E05FE30E941411E9
:1015E00087FD1CC420E030E040EF51E4C701B601A4
:1015F0000E94731218160CF417C4C0925D02D092A8
:101600005E02E0925F02F092600220E030E048EC7F
:1016100052E4C701B6010E9478120E948B117093A8
:101620005C0260935B029B01770F440B550B2253C6
:10163000310941095109AAEFB0E00E942E1026E8B5
:101640003BE040E050E00E940F1029011901309367
:101650005A02209359028EE00E9462028C019093FC
:101660005802809357028FE00E9462025C019093BF
:1016700056028093550280E10E9462024C019093D1
:1016800054028093530289E00E94B5006C0190934C
:1016900052028093510288E00E94B5007C01909331
:1016A000500280934F0287E00E94B500CA94CD2873
:1016B00009F0C1C3C0930801EA94EF2809F0BEC342
:1016C000C0930701019709F0BCC3C09306010A301B
:1016D00042E014070CF4B8C39801012E000C440B2F
:1016E000550B2A50324041095109AFEFB0E00E943A
:1016F0002E1025EF31E040E050E00E940F103093B3
:101700004E0220934D02C093050110920401075F21
:1017100011400431110540F41092050110920401AA
:1017200010924E0210924D028AE0A81682E0B8068E
:101730000CF4A7C395010B2C000C440B550B2A503D
:10174000324041095109AFEFB0E00E942E1025EF61
:1017500031E040E050E00E940F1030934C022093A3
:101760004B02C09303011092020127EFA21A21E05D
:10177000B20A34E1A316B10440F4109203011092AE
:10178000020110924C0210924B024AE0841642E091
:1017900094060CF494C39401092C000C440B550BD3
:1017A0002A50324041095109AFEFB0E00E942E109B
:1017B00025EF31E040E050E00E940F1030934A02E4
:1017C00020934902C09301011092000187EF881A0B
:1017D00081E0980A94E18916910440F41092010185
:1017E0001092000110924A02109249028091080161
:1017F000882361F080914802811108C060E082E096
:101800000E94DE0060E084E00E94DE00809107011B
:10181000882361F080914702811108C060E082E076
:101820000E94DE0060E084E00E94DE0080910601FC
:10183000882361F080914602811108C060E082E057
:101840000E94DE0060E084E00E94DE0080910501DD
:10185000882399F08091480281110FC061E082E0F5
:101860000E94DE0060E084E00E94DE0060914D0294
:1018700070914E0286E00E94050280910301882348
:1018800099F08091470281110FC061E082E00E94CF
:10189000DE0060E084E00E94DE0060914B02709107
:1018A0004C0285E00E94050280910101882399F095
:1018B0008091460281110FC061E082E00E94DE004B
:1018C00060E084E00E94DE006091490270914A026B
:1018D00083E00E94050280910401882399F08091A1
:1018E000480281110FC060E082E00E94DE0061E0EA
:1018F00084E00E94DE0060914D0270914E0286E00D
:101900000E94050280910201882399F0809147028C
:1019100081110FC060E082E00E94DE0061E084E09F
:101920000E94DE0060914B0270914C0285E00E94A3
:10193000050280910001882399F08091460281116F
:101940000FC060E082E00E94DE0061E084E00E945F
:10195000DE006091490270914A0283E00E94050214
:101960008090610290906202A0906302B090640245
:101970008091420290914302A0914402B0914502AD
:10198000A5019401281B390B4A0B5B0BDA01C90135
:1019900084369105A105B10508F44FC00E94F501F8
:1019A000C1016AE070E00E946A108C01682F83E038
:1019B0000E94C8013AE023163104BCF1C10164E67B
:1019C00070E00E946A10801B910B6AE070E00E9438
:1019D0006A107B0182E00E94C80144E624163104AB
:1019E00024F1C10168EE73E00E946A108E199F090C
:1019F000801B910B64E670E00E946A106B0181E02D
:101A00000E94C80158EE251653E0350674F04C18B4
:101A10005D084E185F08C201801B910B68EE73E0F1
:101A20000E946A1080E00E94C80180924202909257
:101A30004302A0924402B092450280E591E00E94E8
:101A4000130680915702909158020E942D0785E558
:101A500091E00E94130680914D0290914E020E94E7
:101A60002D078BE591E00E9413068091080190E01C
:101A70000E942D0781E691E00E94130680910501E6
:101A800090E00E942D0787E691E00E941306809166
:101A9000040190E00E942D078DE691E00E9413065C
:101AA0008091480290E00E942D0786E791E00E9415
:101AB000130680915502909156020E942D078CE7E3
:101AC00091E00E94130680914B0290914C020E947B
:101AD0002D0782E891E00E9413068091070190E0B3
:101AE0000E942D0788E891E00E941306809103016F
:101AF00090E00E942D078EE891E00E9413068091ED
:101B0000020190E00E942D0784E991E00E941306F3
:101B10008091470290E00E942D078DE991E00E949C
:101B2000130680915302909154020E942D0782EA7D
:101B300091E00E9413068091490290914A020E940E
:101B40002D0787EA91E00E9413068091060190E03C
:101B50000E942D078EEA91E00E94130680910101F8
:101B600090E00E942D0785EB91E00E941306809182
:101B7000000190E00E942D078CEB91E00E9413067B
:101B80008091460290E00E942D0786EC91E00E9431
:101B90001306C0905D02D0905E02E0905F02F0906C
:101BA0006002A7019601C701B6010E94E5128823D1
:101BB00009F4A3C184ED91E00E94C20580EE91E09A
:101BC0000E94130680915B0290915C020E942D0797
:101BD0008BEE91E00E9413068091590290915A0277
:101BE0000E942D0786EF91E00E94C2058DE491E0EE
:101BF0000E94C20580E090E0892B09F482CC0E940B
:101C00000803882309F47CCC0E94000079CC83E08F
:101C100090E09093900380938F0380E00E941506DC
:101C20008770987FBC016869716080E00E9401053F
:101C300087E090E0909392038093910380E00E946C
:101C40001506887F6091910370919203682B792B20
:101C500080E00E94010580E098E1909394038093D6
:101C6000930380E00E941506977E60919303709124
:101C70009403682B792B80E00E94010580919303E7
:101C800090919403811528E0920709F485C0B0F57E
:101C9000892B09F45CC060919A0370919B0385E0E5
:101CA0000E94010580E090E2909396038093950353
:101CB00080E00E9415069F7D6091950370919603C8
:101CC000682B792B80E00E94010580E090E0A0E87D
:101CD000BFE38093A4039093A503A093A603B093BE
:101CE000A7031092B0031092A0031092A1031092C8
:101CF000A2031092A3031092B103C9CB811540E156
:101D0000940709F46AC08115984129F680E090E1B2
:101D100090939B0380939A0380E090E0A0E2B1E46B
:101D20008093A8039093A903A093AA03B093AB0355
:101D300080E090E0A0E0B0E48093AC039093AD032A
:101D4000A093AE03B093AF0380E09DE720C080E096
:101D500090E590939B0380939A0380E090E0A8E441
:101D6000B2E48093A8039093A903A093AA03B0932D
:101D7000AB038DEC9CECACECBEE38093AC03909396
:101D8000AD03A093AE03B093AF0380EA9FE09093BE
:101D9000B3038093B2037FCF80E098E290939B03DC
:101DA00080939A0380E090E0A8ECB1E48093A803CC
:101DB0009093A903A093AA03B093AB038DEC9CEC82
:101DC000ACE4BFE38093AC039093AD03A093AE0368
:101DD000B093AF0380E49FE1DACF80E090E290938C
:101DE0009B0380939A0380E090E0A0EAB1E48093A3
:101DF000A8039093A903A093AA03B093AB0380E038
:101E000090E0A0E8BFE38093AC039093AD03A09370
:101E1000AE03B093AF0380E89EE3B9CFC12CD12CC1
:101E2000E12C9FE3F92EE9CBC12CD12C80EFE82ED9
:101E300081E4F82EE2CB109208013ECC109207010B
:101E400041CC1092060143CC073F51E015070CF03E
:101E50005ECC9801A1E0BFEF0E947E1026EF31E03A
:101E600040E050E00E940F1021503F4F4F4F5F4F16
:101E700030934E0220934D0210920501C09304014D
:101E800046CC97EFA91691E0B9060CF06ECC9501FF
:101E9000A1E0BFEF0E947E1026EF31E040E050E06D
:101EA0000E940F1021503F4F4F4F5F4F30934C0215
:101EB00020934B0210920301C093020156CC57EFBE
:101EC000851651E095060CF081CC9401A1E0BFEF9E
:101ED0000E947E1026EF31E040E050E00E940F109B
:101EE00021503F4F4F4F5F4F30934A02209349029A
:101EF00010920101C093000169CC46015701E8949A
:101F0000B7F82FEF3FEF4FE75FE7C501B4010E943D
:101F1000E51281110DC02FEF3FEF4FE75FE7C501DD
:101F2000B4010E94141118161CF488ED91E044CEFF
:101F30002FEF3FEF4FE75FE4C701B6010E94731236
:101F400018161CF48CED91E037CE2FEF3FEF4FE7E2
:101F50005FECC701B6010E94141187FDF3CF20E0AA
:101F600030E0A901C701B6010E94141187FF09C022
:101F70006DE280EE92E00E943E03F7FAF094F7F8EB
:101F8000F0942AE037ED43EA5BE3C701B6010E9413
:101F9000A8104B015C010E9492116B017C010E9410
:101FA000C1119B01AC01C501B4010E94A7104B01F6
:101FB0005C014AE0C701B6010E94CF056EE280EEE7
:101FC00092E00E943E0320E030E040E251E4C5018F
:101FD000B4010E9478124B015C010E9492116B01C6
:101FE000F12CE12C4AE0C701B6010E94CF05C701E0
:101FF000B6010E94C1119B01AC01C501B4010E9450
:10200000A71020E030E040E251E40E9478120E94E4
:10201000921190E080E04AE00E94CF05CFCD052EDE
:1020200097FB1EF400940E94261057FD07D00E94D3
:10203000391007FC03D04EF40C94261050954095AF
:10204000309521953F4F4F4F5F4F08959095809564
:10205000709561957F4F8F4F9F4F08950E945B1041
:10206000A59F900DB49F900DA49F800D911D1124EC
:102070000895A1E21A2EAA1BBB1BFD010DC0AA1FC9
:10208000BB1FEE1FFF1FA217B307E407F50720F0E1
:10209000A21BB30BE40BF50B661F771F881F991F5C
:1020A0001A9469F760957095809590959B01AC01A5
:1020B000BD01CF010895A29FB001B39FC001A39FAE
:1020C000700D811D1124911DB29F700D811D112471
:1020D000911D089597FB072E16F4009407D077FD05
:1020E00009D00E948D1007FC05D03EF49095819593
:1020F0009F4F0895709561957F4F08950E945B10E2
:10210000332312F48A1B9B0B0C9488100E945B10E3
:10211000B7FF0895821B930B0895AA1BBB1B51E1C7
:1021200007C0AA1FBB1FA617B70710F0A61BB70B47
:10213000881F991F5A95A9F780959095BC01CD01EC
:102140000895EE0FFF1F0590F491E02D099450586B
:10215000BB27AA270E94BF100C9439120E942B1291
:1021600038F00E94321220F039F49F3F19F426F41F
:102170000C9428120EF4E095E7FB0C942212E92F40
:102180000E944A1258F3BA1762077307840795072B
:1021900020F079F4A6F50C946C120EF4E0950B2E59
:1021A000BA2FA02D0B01B90190010C01CA01A001A9
:1021B0001124FF27591B99F0593F50F4503E68F104
:1021C0001A16F040A22F232F342F4427585FF3CF45
:1021D000469537952795A795F0405395C9F77EF416
:1021E0001F16BA0B620B730B840BBAF09150A1F05F
:1021F000FF0FBB1F661F771F881FC2F70EC0BA0FE5
:10220000621F731F841F48F4879577956795B7956C
:10221000F7959E3F08F0B0CF9395880F08F0992767
:10222000EE0F9795879508950E94FE1108F481E0BE
:1022300008950E942D110C9439120E94321258F008
:102240000E942B1240F029F45F3F29F00C942212D7
:1022500051110C946D120C9428120E944A1268F3CA
:102260009923B1F3552391F3951B550BBB27AA274F
:1022700062177307840738F09F5F5F4F220F331F89
:10228000441FAA1FA9F335D00E2E3AF0E0E832D051
:1022900091505040E695001CCAF72BD0FE2F29D054
:1022A000660F771F881FBB1F261737074807AB0726
:1022B000B0E809F0BB0B802DBF01FF2793585F4F9B
:1022C0003AF09E3F510578F00C9422120C946D1256
:1022D0005F3FE4F3983ED4F3869577956795B7957D
:1022E000F7959F5FC9F7880F911D9695879597F988
:1022F0000895E1E0660F771F881FBB1F6217730701
:102300008407BA0720F0621B730B840BBA0BEE1F15
:1023100088F7E09508950E9492116894B1110C9489
:102320006D1208950E94521288F09F5798F0B92FAD
:102330009927B751B0F0E1F0660F771F881F991FFA
:102340001AF0BA95C9F714C0B13091F00E946C121E
:10235000B1E008950C946C12672F782F8827B85F2E
:1023600039F0B93FCCF3869577956795B395D9F752
:102370003EF490958095709561957F4F8F4F9F4F5C
:102380000895E89409C097FB3EF490958095709568
:1023900061957F4F8F4F9F4F9923A9F0F92F96E9B1
:1023A000BB279395F695879577956795B795F11126
:1023B000F8CFFAF4BB0F11F460FF1BC06F5F7F4FC3
:1023C0008F4F9F4F16C0882311F096E911C07723D5
:1023D00021F09EE8872F762F05C0662371F096E8DE
:1023E000862F70E060E02AF09A95660F771F881FAD
:1023F000DAF7880F9695879597F90895990F000851
:10240000550FAA0BE0E8FEEF16161706E807F907C6
:10241000C0F012161306E407F50798F0621B730B61
:10242000840B950B39F40A2661F0232B242B252BE2
:1024300021F408950A2609F4A140A6958FEF811D85
:10244000811D089597F99F6780E870E060E0089526
:102450009FEF80EC089500240A94161617061806BC
:102460000906089500240A94121613061406050698
:102470000895092E0394000C11F4882352F0BB0F29
:1024800040F4BF2B11F460FF04C06F5F7F4F8F4F8C
:102490009F4F089557FD9058440F551F59F05F3FC7
:1024A00071F04795880F97FB991F61F09F3F79F076
:1024B00087950895121613061406551FF2CF4695F8
:1024C000F1DF08C0161617061806991FF1CF86957A
:1024D0007105610508940895E894BB27662777275E
:1024E000CB0197F908950E94FE1108F48FEF08952B
:1024F0000E948B120C9439120E942B1238F00E9409
:10250000321220F0952311F00C9422120C94281210
:1025100011240C946D120E944A1270F3959FC1F31E
:10252000950F50E0551F629FF001729FBB27F00D81
:10253000B11D639FAA27F00DB11DAA1F649F6627D6
:10254000B00DA11D661F829F2227B00DA11D621F25
:10255000739FB00DA11D621F839FA00D611D221FDF
:10256000749F3327A00D611D231F849F600D211DC3
:10257000822F762F6A2F11249F5750409AF0F1F046
:1025800088234AF0EE0FFF1FBB1F661F771F881FAF
:1025900091505040A9F79E3F510580F00C942212B3
:1025A0000C946D125F3FE4F3983ED4F386957795D3
:1025B0006795B795F795E7959F5FC1F7FE2B880F55
:1025C000911D9695879597F908950E94FE11880BA5
:0825D000990B0895F894FFCF68
:1025D8000101010101010101013F065B4F666D7DAB
:1025E800077F6F000000003E039E02CB028B03FCB6
:1025F80002DA02EE020000000090056305BF05390B
:10260800055C0549053A05494E41323139206E6F5E
:102618007420636F6E6E656374656421000D0A0033
:102628004131563A002041314F3A002041314E3A6B
:1026380000204131553A00204131443A00204131CF
:102648004C6F636B3A00204132563A002041324FBA
:102658003A002041324E3A00204132553A0020419A
:1026680032443A002041324C6F636B3A00204656A0
:102678003A0020464F3A002041464E3A2000204179
:1026880046553A2000204146443A20002041464C15
:102698006F636B3A20002043757272656E745B6DD0
:1026A800415D3A006E616E00696E66006F76660085
:1026B80020507265737356616C3A002050726573CE
:0A26C800734163743A002020000003
:00000001FF
