:100000000C9462000C948A000C948A000C948A0070
:100010000C948A000C948A000C948A000C948A0038
:100020000C948A000C948A000C948A000C948A0028
:100030000C948A000C948A000C948A000C948A0018
:100040000C9453030C948A000C94C3030C949D03EA
:100050000C948A000C948A000C948A000C948A00F8
:100060000C948A000C948A000000000024002700F1
:100070002A0000000000250028002B0000000000DE
:1000800023002600290004040404040404040202DA
:100090000202020203030303030301020408102007
:1000A0004080010204081020010204081020000012
:1000B0000008000201000003040700000000000027
:1000C0000000F30611241FBECFEFD8E0DEBFCDBF86
:1000D00011E0A0E0B1E0E4E2FFE002C005900D9283
:1000E000A439B107D9F722E0A4E9B1E001C01D921B
:1000F000A934B207E1F710E0C2E6D0E004C02197CE
:10010000FE010E948A07C136D107C9F70E94F50394
:100110000C9490070C940000833081F028F4813017
:1001200099F08230A9F008958730A9F08830C9F09D
:100130008430B1F4809180008F7D03C08091800075
:100140008F7780938000089584B58F7784BD08955C
:1001500084B58F7DFBCF8091B0008F778093B00006
:1001600008958091B0008F7DF9CFCF93DF93282F32
:1001700030E0F901E255FF4F8491F901E656FF4F57
:10018000D491F901EA57FF4FC491CC23A1F081111A
:100190000E948C00EC2FF0E0EE0FFF1FE458FF4FA1
:1001A000A591B491EC91ED2381E090E009F480E019
:1001B000DF91CF91089580E090E0FACF1F93CF9325
:1001C000DF93282F30E0F901E255FF4F8491F901C8
:1001D000E656FF4FD491F901EA57FF4FC491CC2363
:1001E000A9F0162F81110E948C00EC2FF0E0EE0F89
:1001F000FF1FEE58FF4FA591B4918FB7F894EC9183
:10020000111108C0D095DE23DC938FBFDF91CF9111
:100210001F910895DE2BF8CFCF93DF9390E0FC0180
:10022000E656FF4F24918A579F4FFC018491882303
:10023000C9F090E0880F991FFC01E859FF4FA59184
:10024000B491FC01EE58FF4FC591D49161110DC0DE
:100250009FB7F8948C91209582238C9388812823D2
:1002600028839FBFDF91CF910895623051F49FB7EB
:10027000F8943C91822F809583238C93E8812E2BD8
:10028000EFCF8FB7F894EC912E2B2C938FBFEACF42
:100290001F93CF93DF93182FEB0161E00E940C01B5
:1002A000209739F460E0812FDF91CF911F910C945A
:1002B000DE00CF3FD10511F461E0F5CFE12FF0E092
:1002C000E255FF4FE491E33031F140F4E130B1F019
:1002D000E230E1F0C038D1057CF7E4CFE73029F116
:1002E000E83059F1E430B1F780918000806280936A
:1002F0008000D0938B00C0938A0004C084B58068CE
:1003000084BDC7BDDF91CF911F91089584B58062F0
:1003100084BDC8BDF7CF8091800080688093800045
:10032000D0938900C0938800EDCF8091B0008068A1
:100330008093B000C093B300E5CF8091B00080629D
:100340008093B000C093B400DDCF8E3008F08E50A3
:100350008770806480937C0080917A0080648093B1
:100360007A0080917A0086FDFCCF80917800909190
:1003700079000895AF92BF92CF92DF92EF92FF92F1
:100380000F931F93CF93DF936C017B018B01040FBD
:10039000151FEB015E01AE18BF08C017D10759F059
:1003A0006991D601ED91FC910190F081E02DC6019B
:1003B0000995892B79F7C501DF91CF911F910F9195
:1003C000FF90EF90DF90CF90BF90AF900895FC0129
:1003D000538D448D252F30E0842F90E0821B930BAA
:1003E000541710F0CF96089501970895FC01918D50
:1003F000828D981761F0A28DAE0FBF2FB11D5D9653
:100400008C91928D9F5F9F73928F90E008958FEFF4
:100410009FEF0895FC01918D828D981731F0828DA8
:10042000E80FF11D858D90E008958FEF9FEF0895FF
:10043000FC01918D228D892F90E0805C9F4F821B63
:1004400091098F73992708958CEA91E00E94180210
:1004500021E0892B09F420E0822F089580E090E0CC
:10046000892B29F00E94240281110C940000089528
:10047000FC01A48DA80FB92FB11DA35ABF4F2C9119
:10048000848D90E001968F739927848FA689B78910
:100490002C93A089B1898C91837080648C93938D07
:1004A000848D981306C00288F389E02D80818F7DAA
:1004B00080830895EF92FF920F931F93CF93DF9362
:1004C000EC0181E0888F9B8D8C8D98131AC0E88990
:1004D000F989808185FF15C09FB7F894EE89FF895F
:1004E0006083E889F98980818370806480839FBFFD
:1004F00081E090E0DF91CF911F910F91FF90EF90FD
:100500000895F62E0B8D10E00F5F1F4F0F7311270C
:10051000E02E8C8D8E110CC00FB607FCFACFE88947
:10052000F989808185FFF5CFCE010E943802F1CF95
:10053000EB8DEC0FFD2FF11DE35AFF4FF0829FB7BB
:10054000F8940B8FEA89FB8980818062CFCFCF93AB
:10055000DF93EC01888D8823B9F0AA89BB89E889EB
:10056000F9898C9185FD03C0808186FD0DC00FB691
:1005700007FCF7CF8C9185FFF2CF808185FFEDCF0F
:10058000CE010E943802E9CFDF91CF910895FC019E
:1005900001900020E9F73197AF01481B590BBC01CE
:1005A0008CEA91E00C94BA010C94C7028F929F924E
:1005B000AF92BF92CF92DF92EF92FF920F931F9371
:1005C000CF93DF93CDB7DEB7A1970FB6F894DEBF18
:1005D0000FBECDBF6C01990FEE08FF08F7FE41C0BA
:1005E0006DE28CEA91E00E945A028C0122273327A7
:1005F000A9012C193D094E095F0919A2CE01819666
:100600007C019AE0892E912CA12CB12CCA01B90150
:10061000A50194010E944A07605DF70162937F0182
:10062000211531054105510589F790E080E03097AB
:1006300019F0CF010E94C702800F911FA1960FB63B
:10064000F894DEBF0FBECDBFDF91CF911F910F9108
:10065000FF90EF90DF90CF90BF90AF909F908F90E2
:100660000895A701960119A28E010F5D1F4F8AE020
:10067000C82ED12CE12CF12CCA01B901A701960199
:100680000E944A07605DF80162938F0121153105D0
:100690004105510589F790E080E0309779F2CF016C
:1006A0000E94C702CBCF1F920F920FB60F92112458
:1006B0002F933F938F939F93AF93BF938091A80104
:1006C0009091A901A091AA01B091AB013091A7012D
:1006D00023E0230F2D3758F50196A11DB11D20935E
:1006E000A7018093A8019093A901A093AA01B093B8
:1006F000AB018091A3019091A401A091A501B091BB
:10070000A6010196A11DB11D8093A3019093A401A0
:10071000A093A501B093A601BF91AF919F918F9136
:100720003F912F910F900FBE0F901F90189526E8C4
:10073000230F0296A11DB11DD2CF1F920F920FB6AB
:100740000F9211242F933F934F935F936F937F9357
:100750008F939F93AF93BF93EF93FF938CEA91E0B6
:100760000E943802FF91EF91BF91AF919F918F91BD
:100770007F916F915F914F913F912F910F900FBE9D
:100780000F901F9018951F920F920FB60F92112481
:100790002F938F939F93EF93FF93E091BC01F09180
:1007A000BD018081E091C201F091C30182FD1BC0B7
:1007B00090818091C5018F5F8F732091C601821750
:1007C00041F0E091C501F0E0E455FE4F958F809334
:1007D000C501FF91EF919F918F912F910F900FBEC7
:1007E0000F901F9018958081F4CF789484B5826023
:1007F00084BD84B5816084BD85B5826085BD85B5C5
:10080000816085BD80916E00816080936E00109242
:1008100081008091810082608093810080918100BD
:10082000816080938100809180008160809380004E
:100830008091B10084608093B1008091B0008160AC
:100840008093B00080917A00846080937A008091D8
:100850007A00826080937A0080917A008160809330
:100860007A0080917A00806880937A001092C100AB
:10087000E091BC01F091BD0182E08083E091B8017C
:10088000F091B9011082E091BA01F091BB0180E1D1
:1008900080831092C401E091C001F091C10186E013
:1008A0008083E091BE01F091BF01808180618083EF
:1008B000E091BE01F091BF01808188608083E0916A
:1008C000BE01F091BF01808180688083E091BE010C
:1008D000F091BF0180818F7D808360E08EE00E9477
:1008E0000C0162E089E00E940C0160E08FE00E9450
:1008F0000C0162E088E00E940C0160E080E10E944F
:100900000C0162E087E00E940C0161E082E00E943D
:100910000C0161E084E00E940C0161E08CE00E9427
:100920000C0161E08DE00E940C0186EF882E992475
:100930009394A12CB12C95EF492E55245394612CFE
:10094000712C20E0C22E20E0D22E3324339410925A
:10095000A2011092A1011092A00160E086E00E9425
:10096000DE0060E085E00E94DE0060E083E00E943F
:10097000DE008EE00E94A5017C0190939F01809390
:100980009E018FE00E94A5018C0190939D018093B0
:100990009C0180E10E94A501EC0190939B01809352
:1009A0009A0189E00E94B50088E00E94B50087E0C6
:1009B0000E94B5008AE0E81682E0F8060CF4C1C196
:1009C00097010F2C000C440B550B2A503240410963
:1009D0005109AFEFB0E00E943F07A30192010E94CE
:1009E00020073093990120939801309205011092CD
:1009F000040187EFE81A81E0F80A84E1E816F104BF
:100A000040F4109205011092040110929901109285
:100A100098010A3082E018070CF4AFC19801012E4A
:100A2000000C440B550B2A50324041095109AFEFDD
:100A3000B0E00E943F07A30192010E94200730937B
:100A40009701209396013092030110920201075FF3
:100A500011400431110540F410920301109202017B
:100A60001092970110929601CA3082E0D8070CF4D8
:100A70009FC19E010D2E000C440B550B2A50324095
:100A800041095109AFEFB0E00E943F07A301920175
:100A90000E94200730939501209394013092010128
:100AA00010920001C75FD140649740F41092010199
:100AB00010920001109295011092940160E082E082
:100AC0000E94DE0060E084E00E94DE0060E082E0E0
:100AD0000E94DE0060E084E00E94DE0060E082E0D0
:100AE0000E94DE0060E084E00E94DE00809105014B
:100AF000882379F061E082E00E94DE0060E084E01B
:100B00000E94DE00609198017091990186E00E9438
:100B1000480180910301882379F061E082E00E941E
:100B2000DE0060E084E00E94DE006091960170913A
:100B3000970185E00E94480180910101882379F0A6
:100B400061E082E00E94DE0060E084E00E94DE005E
:100B5000609194017091950183E00E944801809119
:100B60000401882379F060E082E00E94DE0061E009
:100B700084E00E94DE00609198017091990186E006
:100B80000E94480180910201882379F060E082E0B0
:100B90000E94DE0061E084E00E94DE006091960128
:100BA0007091970185E00E9448018091000188239F
:100BB00079F060E082E00E94DE0061E084E00E9463
:100BC000DE00609194017091950183E00E944801DC
:100BD00088E191E00E94D40280919E0190919F0152
:100BE0000E94D6028DE191E00E94D402809198018A
:100BF000909199010E94D60283E291E00E94D40272
:100C000081E090E00E94D60289E291E00E94D40245
:100C10008091050190E00E94D6028FE291E00E944F
:100C2000D4028091040190E00E94D60285E391E015
:100C30000E94D4028091A20190E00E94D6028EE32D
:100C400091E00E94D40280919C0190919D010E94AC
:100C5000D60284E491E00E94D402809196019091A2
:100C600097010E94D6028AE491E00E94D40281E0BA
:100C700090E00E94D60280E591E00E94D40280912B
:100C8000030190E00E94D60286E591E00E94D40222
:100C90008091020190E00E94D6028CE591E00E94D2
:100CA000D4028091A10190E00E94D60285E691E0F5
:100CB0000E94D40280919A0190919B010E94D602D9
:100CC0008AE691E00E94D40280919401909195016E
:100CD0000E94D6028FE691E00E94D40281E090E06B
:100CE0000E94D60286E791E00E94D4028091010121
:100CF00090E00E94D6028DE791E00E94D40280919C
:100D0000000190E00E94D60284E891E00E94D402A3
:100D10008091A00190E00E94D6028EE891E00E94AE
:100D2000C70281E991E00E94C702C114D10409F40D
:100D30000ECE0E942402882309F409CE0E940000EE
:100D400006CE87EFE81681E0F8060CF052CE970148
:100D5000A1E0BFEF0E947B07A50194010E9420073C
:100D600021503F4F4F4F5F4F30939901209398018F
:100D700010920501309204013CCE073F81E0180734
:100D80000CF065CE9801A1E0BFEF0E947B07A501A2
:100D900094010E94200721503F4F4F4F5F4F3093E7
:100DA00097012093960110920301309202014FCED9
:100DB000C73F81E0D8070CF075CE9E01A1E0BFEFE0
:100DC0000E947B07A50194010E94200721503F4FFC
:100DD0004F4F5F4F30939501209394011092010182
:100DE000309200015FCEECEAF1E01382128288EECD
:100DF00093E0A0E0B0E084839583A683B7838AE084
:100E000091E09183808385EC90E09587848784ECE2
:100E100090E09787868780EC90E0918B808B81ECC7
:100E200090E0938B828B82EC90E0958B848B86ECA8
:100E300090E0978B868B118E128E138E148E0895F0
:100E4000052E97FB1EF400940E94370757FD07D02C
:100E50000E944A0707FC03D04EF40C9437075095C4
:100E60004095309521953F4F4F4F5F4F0895909596
:100E70008095709561957F4F8F4F9F4F08950E9489
:100E80006C07A59F900DB49F900DA49F800D911DA0
:100E900011240895A1E21A2EAA1BBB1BFD010DC04F
:100EA000AA1FBB1FEE1FFF1FA217B307E407F5071A
:100EB00020F0A21BB30BE40BF50B661F771F881FF6
:100EC000991F1A9469F760957095809590959B018C
:100ED000AC01BD01CF010895A29FB001B39FC00135
:100EE000A39F700D811D1124911DB29F700D811D56
:100EF0001124911D08950E946C07332312F48A1B5C
:100F00009B0B0C9485070E946C07B7FF0895821B0A
:100F1000930B0895EE0FFF1F0590F491E02D0994B7
:040F2000F894FFCF73
:100F2400010101010101000000005A02BA01E701B8
:100F3400A7021802F6010A024131563A0020413153
:100F44004F3A002041314E3A00204131553A0020B9
:100F54004131443A002041314C6F636B3A002041E7
:100F640032563A002041324F3A002041324E3A0084
:100F7400204132553A00204132443A002041324C5B
:100F84006F636B3A002046563A0020464F3A0020E1
:100F940041464E3A2000204146553A200020414621
:100FA400443A20002041464C6F636B3A20002020D5
:040FB400000D0A0022
:00000001FF
