:100000000C9462000C948A000C948A000C948A0070
:100010000C948A000C948A000C948A000C948A0038
:100020000C948A000C948A000C948A000C948A0028
:100030000C948A000C948A000C948A000C948A0018
:100040000C9417080C948A000C9487080C9461088F
:100050000C948A000C948A000C948A000C948A00F8
:100060000C94B9080C948A000000000024002700BA
:100070002A0000000000250028002B0000000000DE
:1000800023002600290004040404040404040202DA
:100090000202020203030303030301020408102007
:1000A0004080010204081020010204081020000012
:1000B0000008000201000003040700000000000027
:1000C0000000D80911241FBECFEFD8E0DEBFCDBF9E
:1000D00011E0A0E0B1E0EAE6F8E202C005900D927E
:1000E000AC3EB107D9F723E0ACEEB1E001C01D9200
:1000F000A83AB207E1F710E0C2E6D0E004C02197C9
:10010000FE010E94EA11C136D107C9F70E942B0AED
:100110000C9433140C940000833081F028F4813067
:1001200099F08230A9F008958730A9F08830C9F09D
:100130008430B1F4809180008F7D03C08091800075
:100140008F7780938000089584B58F7784BD08955C
:1001500084B58F7DFBCF8091B0008F778093B00006
:1001600008958091B0008F7DF9CFCF93DF93282F32
:1001700030E0F901E255FF4F8491F901E656FF4F57
:10018000D491F901EA57FF4FC491CC23A1F081111A
:100190000E948C00EC2FF0E0EE0FFF1FE458FF4FA1
:1001A000A591B491EC91ED2381E090E009F480E019
:1001B000DF91CF91089580E090E0FACF1F93CF9325
:1001C000DF93282F30E0F901E255FF4F8491F901C8
:1001D000E656FF4FD491F901EA57FF4FC491CC2363
:1001E000A9F0162F81110E948C00EC2FF0E0EE0F89
:1001F000FF1FEE58FF4FA591B4918FB7F894EC9183
:10020000111108C0D095DE23DC938FBFDF91CF9111
:100210001F910895DE2BF8CFCF93DF93C1E7D3E092
:1002200060E08C810E94DE0060E08D810E94DE0033
:1002300061E08C810E94DE0061E08D81DF91CF91D1
:100240000C94DE00CF93DF93C1E7D3E061E08C81B3
:100250000E94DE0061E08D810E94DE0060E08D8101
:100260000E94DE0060E08C81DF91CF910C94DE0073
:10027000CF93DF9390E0FC01E656FF4F24918A571D
:100280009F4FFC0184918823C9F090E0880F991F4B
:10029000FC01E859FF4FA591B491FC01EE58FF4FC6
:1002A000C591D49161110DC09FB7F8948C912095A0
:1002B00082238C938881282328839FBFDF91CF914D
:1002C0000895623051F49FB7F8943C91822F809545
:1002D00083238C93E8812E2BEFCF8FB7F894EC918A
:1002E0002E2B2C938FBFEACFEF92FF921F93CF93C9
:1002F000DF93182FD8E060E0809175030E94DE0044
:10030000E12E012E000CFF0861E010FF60E08091FB
:1003100076030E94DE00F594E7941E2D61E0809143
:1003200075030E94DE00D15031F760E080917503C3
:100330000E94DE0061E0809176030E94DE0061E0B1
:10034000809175030E94DE0060E0809176030E9438
:100350003801809176030E94B500892B79F0CF5F38
:10036000C83C91F761E0809176030E94380160E01B
:10037000809176030E94DE00C0E0E6CF61E08091CC
:100380007603DF91CF911F91FF90EF900C9438018D
:10039000EF92FF920F931F93CF93DF9300D000D083
:1003A000CDB7DEB789836A834B832C838091740336
:1003B00090E0811190E89E012F5F3F4F79012C5F03
:1003C0003F4F8701F80180818F3779F510820F5FE9
:1003D0001F4F02171307B1F70E94220180E40E9409
:1003E00074010E940C010E942201809172030E94FC
:1003F0007401F70181917F010E947401E016F106FA
:10040000C1F70E940C010E942201809173030E9497
:1004100074010F900F900F900F90DF91CF911F916B
:100420000F91FF90EF900C940C01890F8083CFCF38
:10043000CF93DF93D82F80917403811180E8C82F68
:100440006F3739F0E62F660FFF0BE75FFE4FC08175
:10045000C80F0E94220184E40E9474010E940C01D2
:100460000E9422018D2F806C0E9474018C2F0E94AB
:1004700074010E940C010E942201809173030E946A
:100480007401DF91CF910C940C016FE780E00E9422
:1004900018026FE781E00E9418026FE782E00E9475
:1004A00018026FE783E00C9418021F93CF93DF9339
:1004B000182FEB0161E00E943801209739F460E0C9
:1004C000812FDF91CF911F910C94DE00CF3FD1059A
:1004D00011F461E0F5CFE12FF0E0E255FF4FE49138
:1004E000E33031F140F4E130B1F0E230E1F0C03816
:1004F000D1057CF7E4CFE73029F1E83059F1E43059
:10050000B1F780918000806280938000D0938B004F
:10051000C0938A0004C084B5806884BDC7BDDF91E4
:10052000CF911F91089584B5806284BDC8BDF7CF77
:1005300080918000806880938000D0938900C09370
:100540008800EDCF8091B00080688093B000C093A8
:10055000B300E5CF8091B00080628093B000C0937B
:10056000B400DDCF8E3008F08E50877080648093A9
:100570007C0080917A00806480937A0080917A0078
:1005800086FDFCCF809178009091790008953FB767
:10059000F89480915E0290915F02A0916002B09108
:1005A000610226B5A89B05C02F3F19F00196A11D39
:1005B000B11D3FBFBA2FA92F982F8827BC01CD01AD
:1005C000620F711D811D911D42E0660F771F881F0C
:1005D000991F4A95D1F708958F929F92AF92BF923B
:1005E000CF92DF92EF92FF924B015C010E94C70213
:1005F0006B017C010E94C7026C197D098E099F095D
:10060000683E734081059105A8F321E0821A9108A4
:10061000A108B10888EEC80E83E0D81EE11CF11CC9
:1006200081149104A104B10429F7FF90EF90DF90A9
:10063000CF90BF90AF909F908F90089508950895A8
:10064000AF92BF92CF92DF92EF92FF920F931F93E0
:10065000CF93DF936C017B018B01040F151FEB011E
:100660005E01AE18BF08C017D10759F06991D601D5
:10067000ED91FC910190F081E02DC6010995892B47
:1006800079F7C501DF91CF911F910F91FF90EF9006
:10069000DF90CF90BF90AF900895FC01538D448DB3
:1006A000252F30E0842F90E0821B930B541710F01D
:1006B000CF96089501970895FC01918D828D98172A
:1006C00061F0A28DAE0FBF2FB11D5D968C91928D02
:1006D0009F5F9F73928F90E008958FEF9FEF089533
:1006E000FC01918D828D981731F0828DE80FF11DFC
:1006F000858D90E008958FEF9FEF0895FC01918D17
:10070000228D892F90E0805C9F4F821B91098F730F
:100710009927089584ED92E00E947E0321E0892BC1
:1007200009F420E0822F089580E090E0892B29F0E1
:100730000E948A0381110C9400000895FC01A48D8D
:10074000A80FB92FB11DA35ABF4F2C91848D90E0F3
:1007500001968F739927848FA689B7892C93A089D6
:10076000B1898C91837080648C93938D848D981360
:1007700006C00288F389E02D80818F7D80830895F3
:10078000EF92FF920F931F93CF93DF93EC0181E0E1
:10079000888F9B8D8C8D98131AC0E889F989808188
:1007A00085FF15C09FB7F894EE89FF896083E889BB
:1007B000F98980818370806480839FBF81E090E0AD
:1007C000DF91CF911F910F91FF90EF900895F62E3A
:1007D0000B8D10E00F5F1F4F0F731127E02E8C8DD4
:1007E0008E110CC00FB607FCFACFE889F989808119
:1007F00085FFF5CFCE010E949E03F1CFEB8DEC0F6C
:10080000FD2FF11DE35AFF4FF0829FB7F8940B8F35
:10081000EA89FB8980818062CFCFCF93DF93EC019F
:10082000888D8823B9F0AA89BB89E889F9898C91D8
:1008300085FD03C0808186FD0DC00FB607FCF7CF94
:100840008C9185FFF2CF808185FFEDCFCE010E9494
:100850009E03E9CFDF91CF91089520910D02260FDD
:100860003327331F21323105ECF42091AA02FC0119
:1008700090E080E0243069F082E00895A0910D02BC
:100880002191AC0143515E4FA40FB52FB11D2C93A4
:100890000196861798F380910D02680F60930D0200
:1008A00080E0089581E008951092AA0281E080938B
:1008B000A9021092840261E082E10E94DE0061E000
:1008C00083E10E94DE00E9EBF0E080818E7F80838F
:1008D00080818D7F808388E48093B80085E4809355
:1008E000BC000895CF93DF9391E09093EC018823AF
:1008F000B9F0C091B800D091BA008091BC008A7B59
:100900008093BC0060E082E10E94DE0060E083E151
:100910000E94DE000E945404D093BA00C093B80035
:10092000DF91CF9108958F929F92AF92BF92CF9215
:10093000DF92EF92FF920F931F93CF93DF93D091AB
:10094000D302D13208F0D7C0182FC091D2020E9432
:10095000C7026B017C018091AA0281116BC082E009
:100960008093AA021093A9028FEF8093A80210929D
:10097000A702D093A602A2EBB2E0E6E8F2E080E0A4
:10098000D81391C01092850280918502CC0FC82B9C
:10099000C093850280918402813009F088C0109252
:1009A00084020E94C7026B017C01809185028093C2
:1009B000BB008091AC029091AD02A091AE02B091CB
:1009C000AF02892B8A2B8B2BA1F00E94C7020091CA
:1009D000AC021091AD022091AE023091AF026C19C1
:1009E0007D098E099F09061717072807390708F49C
:1009F00042C08091BC0083FDD8CF85EC8093BC00C1
:100A00000E94C7026B017C018091AA02823009F426
:100A100050C08091A8028F3F09F46FC08091A80256
:100A2000803209F46CC08091A802803309F469C057
:100A300084E026C08091AC029091AD02A091AE02FC
:100A4000B091AF02892B8A2B8B2B09F484CF0E94A3
:100A5000C7028090AC029090AD02A090AE02B09020
:100A6000AF026C197D098E099F0986169706A806A4
:100A7000B90608F070CF8091AB020E94720485E045
:100A80001092B1021092D3021092B002DF91CF9176
:100A90001F910F91FF90EF90DF90CF90BF90AF909C
:100AA0009F908F9008959D9191938F5F69CF85EE70
:100AB000A5CF8091AC029091AD02A091AE02B09111
:100AC000AF02892B8A2B8B2B09F49ECF0E94C70281
:100AD0000091AC021091AD022091AE023091AF02B4
:100AE0006C197D098E099F09061717072807390712
:100AF00008F08ACFC0CF81E0C3CF80E0C1CF82E0D1
:100B0000BFCF83E0BDCF0F931F93CF93DF93162FFB
:100B1000072FC3E8D3E0A885B9859A8521E0209303
:100B2000B0029093D2021092B1021092D302ED91D2
:100B3000FC9111970190F081E02D682FCD0109956E
:100B400088859985DC01ED91FC910190F081E02D83
:100B5000602F099588859985DC01ED91FC910190C4
:100B6000F081E02D612F099581E0DF91CF911F91F8
:100B70000F910C9493040895E091630280916202B6
:100B8000E81730F4F0E0EC59FD4F808190E00895D3
:100B90008FEF9FEF089590916302809162022FEF93
:100BA0003FEF981748F4E92FF0E0EC59FD4F208112
:100BB00030E09F5F90936302C901089580916202C3
:100BC00090916302891B990B0895CF92DF92EF9267
:100BD000FF920F931F93CF93DF937C01CB018A0188
:100BE0002091B002222389F0EB016B01C40ED51EC7
:100BF000CC15DD0569F06991D701ED91FC9101906B
:100C0000F081E02DC7010995F3CF642F0E942D04D8
:100C1000C801DF91CF911F910F91FF90EF90DF906E
:100C2000CF900895CF93DF931F92CDB7DEB769833E
:100C30002091B0022223F9F02091D302203258F003
:100C400021E030E0FC013383228390E080E00F90CC
:100C5000DF91CF9108958091B102E82FF0E0EE543A
:100C6000FD4F998190838F5F8093B1028093D3026F
:100C700081E090E0ECCF61E0CE0101960E942D046E
:100C8000F7CF90E080E00895FC0101900020E9F7A3
:100C90003197AF01481B590BBC0184ED92E00C94D5
:100CA00020038F929F92AF92BF920F931F93CF9387
:100CB000DF93CDB7DEB7A1970FB6F894DEBF0FBEB6
:100CC000CDBF19A2423008F44AE08E010F5D1F4FDC
:100CD000842E912CB12CA12CA50194010E9491117C
:100CE000E62FB901CA01EA30F4F4E05DD801EE93D1
:100CF0008D01232B242B252B79F790E080E0109792
:100D000019F0CD010E944406A1960FB6F894DEBFFB
:100D10000FBECDBFDF91CF911F910F91BF90AF90CC
:100D20009F908F900895E95CE1CF0C944406CF9298
:100D3000DF92EF92FF920F931F93CF93A0918B03BB
:100D4000B0918C0390918D0321E02093B002909399
:100D5000D2021092B1021092D302ED91FC91119740
:100D60000190F081E02D682FCD01099580E00E946F
:100D70009304C0918D030E94C7026B017C01809196
:100D8000AA02811165C081E08093AA028093A90222
:100D90009FEF9093A8021092A7028093A6028093DF
:100DA000850280918502CC0FC82BC093850280916B
:100DB0008402813009F0AAC0109284020E94C70206
:100DC0006B017C01809185028093BB008091AC0215
:100DD0009091AD02A091AE02B091AF02892B8A2B07
:100DE0008B2BA1F00E94C7020091AC021091AD02C2
:100DF0002091AE023091AF026C197D098E099F09D6
:100E0000061717072807390708F443C08091BC006C
:100E100083FDD8CF85EC8093BC000E94C7026B0194
:100E20007C018091AA02813009F472C08091A702EE
:100E3000823008F08FC08091A702E6E8F2E0A4E6D5
:100E4000B2E090E0981751F121912D939F5FFACF76
:100E50008091AC029091AD02A091AE02B091AF0230
:100E6000892B8A2B8B2B09F48ACF0E94C702009111
:100E7000AC021091AD022091AE023091AF026C191C
:100E80007D098E099F09061717072807390708F0FB
:100E900076CF8091AB020E94720480E010926302D0
:100EA0008093620280918B0390918C03DC01ED9121
:100EB000FC910084F185E02D0995892B09F44CC043
:100EC00080918B0390918C03DC01ED91FC91028465
:100ED000F385E02D0995C82F80918B0390918C03A9
:100EE000DC01ED91FC910284F385E02D09952C2F16
:100EF00030E0322F2227820F932F911DCF911F9127
:100F00000F91FF90EF90DF90CF90089585EE83CF03
:100F10008091AC029091AD02A091AE02B091AF026F
:100F2000892B8A2B8B2B09F47CCF0E94C70200915E
:100F3000AC021091AD022091AE023091AF026C195B
:100F40007D098E099F09061717072807390708F03A
:100F500068CF9FCF82E071CF80E0C0E0C8CFCF9252
:100F6000DF92EF92FF92CF93DF936C01990FEE081F
:100F7000FF08F7FE19C06DE284ED92E00E94C00305
:100F8000EC0166277727CB016C197D098E099F0933
:100F90004AE00E9451068C0F9D1FDF91CF91FF9078
:100FA000EF90DF90CF9008954AE0C701B601DF913E
:100FB000CF91FF90EF90DF90CF900C94510685ED8C
:100FC0008093BC008091AC029091AD02A091AE02E2
:100FD000B091AF020796A11DB11D23E0B695A7956C
:100FE000979587952A95D1F72091BC0024FD03C0E1
:100FF0001092AA0208954091AC025091AD02609106
:10100000AE027091AF02452B462B472B69F3009738
:10101000A105B10541F025E32A95F1F700000197FC
:10102000A109B109E1CF8091AB020C9472041F9227
:101030000F920FB60F9211242F933F938F939F938C
:10104000AF93BF9380915A0290915B02A0915C0292
:10105000B0915D023091590223E0230F2D3758F5EE
:101060000196A11DB11D2093590280935A029093BD
:101070005B02A0935C02B0935D0280915E0290914E
:101080005F02A0916002B09161020196A11DB11DA5
:1010900080935E0290935F02A0936002B09361021E
:1010A000BF91AF919F918F913F912F910F900FBE64
:1010B0000F901F90189526E8230F0296A11DB11DD1
:1010C000D2CF1F920F920FB60F9211242F933F93FE
:1010D0004F935F936F937F938F939F93AF93BF9340
:1010E000EF93FF9384ED92E00E949E03FF91EF91B6
:1010F000BF91AF919F918F917F916F915F914F9130
:101100003F912F910F900FBE0F901F9018951F9237
:101110000F920FB60F9211242F938F939F93EF93FB
:10112000FF93E091E402F091E5028081E091EA0210
:10113000F091EB0282FD1BC090818091ED028F5FE8
:101140008F732091EE02821741F0E091ED02F0E002
:10115000EC52FD4F958F8093ED02FF91EF919F919F
:101160008F912F910F900FBE0F901F901895808137
:10117000F4CF1F920F920FB60F9211242F933F932B
:101180004F935F936F937F938F939F93AF93BF938F
:10119000EF93FF938091B900887F803609F44AC0AD
:1011A000F0F5883209F4A7C018F5803109F49BC026
:1011B000B8F4882309F4F9C0883009F494C0FF9189
:1011C000EF91BF91AF919F918F917F916F915F91BF
:1011D0004F913F912F910F900FBE0F901F90189538
:1011E000883109F488C0803251F78093A80214C076
:1011F000803409F49DC040F48033B9F38833F9F6A4
:101200008093A80285ECB0C0803509F485C088358C
:1012100009F496C0883499F60E94DF07D0CF883948
:1012200009F48CC038F5883729F050F4883611F06D
:10123000803729F683E08093AA0210922F0257C0CC
:10124000883809F47BC0803919F0803809F0B7CFAD
:1012500080912F02803208F071C0E0912F0281E06E
:101260008E0F80932F028091BB00F0E0E15FFD4F75
:1012700080833DC0803B39F0E0F4803A09F479C0C6
:10128000883A09F09CCF84E08093AA0210920E0263
:1012900010920D02E0913202F09133020995809193
:1012A0000D0281110FC081E080930D021092ED01BB
:1012B00009C0803C09F4A6CF883C09F4A3CF883B41
:1012C00009F07DCFE0910E0281E08E0F80930E0237
:1012D000F0E0E351FE4F80818093BB0090910E02BD
:1012E00080910D0229C0809185028093BB0085EC1E
:1012F0008093BC0064CF9091A7028091A6029817BA
:1013000058F5E091A70281E08E0F8093A702F0E0EC
:10131000EA57FD4F8081E9CFE091A70281E08E0F6F
:101320008093A7028091BB00F0E0EA57FD4F8083D5
:101330009091A7028091A6029817C8F285E8D8CFAD
:10134000E091A70281E08E0F8093A7028091BB00FD
:10135000F0E0EA57FD4F80838091A90281115CCFB4
:1013600081E08093840284EA8093BC001092AA02F8
:1013700026CF85EC8093BC001092AA0280912F02A8
:10138000803230F4E0912F02F0E0E15FFD4F1082F7
:1013900060912F0270E0E0913002F09131028FE015
:1013A00092E0099510922F020ACF1092A80234CF32
:1013B000CF93DF93E4EDF2E01382128288EE93E0A4
:1013C000A0E0B0E084839583A683B78327E131E072
:1013D0003183208325EC30E03587248724EC30E00E
:1013E0003787268720EC30E0318B208B21EC30E0F2
:1013F000338B228B22EC30E0358B248B26EC30E0D3
:10140000378B268B118E128E138E148EE7E7F3E046
:101410001382128284839583A683B78389E291E045
:1014200091838083A3E8B3E01996FC93EE93189719
:1014300080E41A968C93C1E7D3E08CE08C838DE036
:101440008D8361E08CE00E94380161E08D81DF9145
:10145000CF910C943801789484B5826084BD84B5B2
:10146000816084BD85B5826085BD85B5816085BD9F
:1014700080916E00816080936E0010928100809157
:1014800081008260809381008091810081608093DF
:101490008100809180008160809380008091B10004
:1014A00084608093B1008091B00081608093B0002F
:1014B00080917A00846080937A0080917A008260C3
:1014C00080937A0080917A00816080937A00809185
:1014D0007A00806880937A001092C100E091E40263
:1014E000F091E50282E08083E091E002F091E10278
:1014F0001082E091E202F091E3028FEC808310927F
:10150000EC02E091E802F091E90286E08083E0914C
:10151000E602F091E702808180618083E091E6023B
:10152000F091E702808188608083E091E602F0918B
:10153000E702808180688083E091E602F091E70213
:1015400080818F7D808310926302109262021092DC
:10155000B1021092D3020E9454048EE193E0909362
:101560003302809332028FE193E0909331028093B3
:10157000300260E070E880E00E948305882309F46F
:10158000A6C187E391E00E9444068DE491E00E94A9
:1015900044060E94450280E48093710380EC8093AE
:1015A00072038AE88093730360E08EE00E94380142
:1015B00062E089E00E94380160E08FE00E9438011B
:1015C00062E088E00E94380160E080E10E9438011A
:1015D00062E087E00E94380161E082E00E94380109
:1015E00061E084E00E94380161E08CE00E943801F3
:1015F00061E08DE00E9438011092400210923F029B
:1016000010923E0220E449E36FE380E40E94C801A7
:1016100064EF71E080E090E00E94EC0220E449E396
:101620006DE680E40E94C80164EF71E080E090E024
:101630000E94EC0229E747E36FE38FE30E94C801B1
:1016400060ED77E080E090E00E94EC0225EF422E12
:10165000512C612C712C3324339480910801882300
:1016600021F060E086E00E94DE008091070188237F
:1016700021F060E085E00E94DE0080910601882371
:1016800021F060E083E00E94DE002FB7F8948091A3
:101690005A0290915B02A0915C02B0915D022FBF53
:1016A0008093550290935602A0935702B09358022C
:1016B00084E00E949706EC018091A50370E060E051
:1016C000882331F120E030E048EC52E4609194034B
:1016D0007091950380919603909197030E94C11396
:1016E0006B017C0160918E0370918F0390E080E02C
:1016F0000E940A139B01AC01C701B6010E94C113ED
:1017000020E030E040E859E30E94C1130E94D41267
:10171000CE01861B970BBC01072E000C880B990B82
:101720000E940C136B017C01209198033091990366
:1017300040919A0350919B0360919C0370919D038B
:1017400080919E0390919F030E94C1139B01AC0165
:10175000C701B6010E9462126B017C0120E030E0FB
:1017600040E05FE30E945D1287FDB8C120E030E0F9
:1017700040EF51E4C701B6010E94BC1318160CF4E7
:10178000B3C1C0925102D0925202E0925302F09241
:10179000540220E030E040EA50E4C701B6010E9464
:1017A0005D12181614F03092500220E030E048EC40
:1017B00051E4C701B6010E94BC1387FF30924F026B
:1017C00020E030E048EC52E4C701B6010E94C113AA
:1017D0000E94D41270934E0260934D029B01770FCA
:1017E000440B550B2253310941095109AAEFB0E0CE
:1017F0000E947E1126E83BE040E050E00E945F112D
:1018000030934C0220934B0280910801811173C1E7
:101810008EE00E94B20290934A0280934902809126
:10182000070181116FC18FE00E94B20290934802BC
:10183000809347028091060181116BC180E10E9473
:10184000B202909346028093450289E00E94B5005F
:101850008C01909344028093430288E00E94B5007B
:10186000EC01909342028093410287E00E94B50010
:101870000130110509F050C130920801219709F09B
:101880004EC130920701019709F04CC13092060118
:1018900010910701112309F448C1809106018823A2
:1018A00009F443C180910601811145C100910801ED
:1018B000002309F443C180910601882309F43EC145
:1018C0008091060181110DC3111141C13BC183E01B
:1018D00090E0909384038093830380E00E949706B6
:1018E0008770987FBC016869716080E00E94830501
:1018F00087E090E0909386038093850380E00E94C8
:101900009706887F6091850370918603682B792BF9
:1019100080E00E94830580E098E1909388038093A3
:10192000870380E00E949706977E609187037091FD
:101930008803682B792B80E00E94830580918703C0
:1019400090918803811528E0920709F485C0B0F5CD
:10195000892B09F45CC060918E0370918F0385E040
:101960000E94830580E090E290938A03809389032C
:1019700080E00E9497069F7D6091890370918A03A1
:10198000682B792B80E00E94830580E090E0A0E83E
:10199000BFE38093980390939903A0939A03B09325
:1019A0009B031092A403109294031092950310923B
:1019B0009603109297031092A503EBCD811540E199
:1019C000940709F46AC08115984129F680E090E1F6
:1019D00090938F0380938E0380E090E0A0E2B1E4C7
:1019E00080939C0390939D03A0939E03B0939F03C9
:1019F00080E090E0A0E0B0E48093A0039093A10386
:101A0000A093A203B093A30380E09DE720C080E0F1
:101A100090E590938F0380938E0380E090E0A8E49C
:101A2000B2E480939C0390939D03A0939E03B09394
:101A30009F038DEC9CECACECBEE38093A0039093F1
:101A4000A103A093A203B093A30380EA9FE0909325
:101A5000A7038093A6037FCF80E098E290938F0343
:101A600080938E0380E090E0A8ECB1E480939C0327
:101A700090939D03A0939E03B0939F038DEC9CECE9
:101A8000ACE4BFE38093A0039093A103A093A203CF
:101A9000B093A30380E49FE1DACF80E090E29093DB
:101AA0008F0380938E0380E090E0A0EAB1E48093FE
:101AB0009C0390939D03A0939E03B0939F0380E0AB
:101AC00090E0A0E8BFE38093A0039093A103A093CC
:101AD000A203B093A30380E89EE3B9CFC12CD12C1D
:101AE000E12C9FE3F92E4DCEC12CD12C80EFE82EB6
:101AF00081E4F82E46CE24EF31E030934A02209361
:101B000049028DCE44EF51E050934A02409349027E
:101B100091CE84EF91E095CE10920801AFCE109255
:101B20000701B1CE10920601B3CE309240021123CC
:101B300009F4BCCEB7CE10924002B8CE30923F022C
:101B40000111BECE30923E02002339F011111092E5
:101B50003E0260E086E00E94DE00112321F060E09A
:101B600085E00E94DE00F0900601FF2021F060E099
:101B700083E00E94DE00C0914902D0914A02C53044
:101B800092E0D9070CF4B0C19E010D2E000C440B5D
:101B9000550B2550324041095109AFEFB0E00E948A
:101BA0007E112CED30E040E050E00E945F11309358
:101BB0003D0220933C023092050110920401CD5D5C
:101BC000D140A99740F4109205011092040110929F
:101BD0003D0210923C02C0914702D0914802C830A9
:101BE00032E0D3070CF4A4C19E010D2E000C440B6F
:101BF000550B2850324041095109AFEFB0E00E9427
:101C00007E11A30192010E945F1130933B02209349
:101C10003A023092030110920201C15ED140A897AE
:101C200040F4109203011092020110923B021092B4
:101C30003A02C0914502D0914602C83052E0D50721
:101C40000CF49AC19E010D2E000C440B550B28502C
:101C5000324041095109AFEFB0E00E947E11A3016B
:101C600092010E945F113093390220933802309222
:101C7000010110920001C15ED140A89740F410927A
:101C800001011092000110923902109238020023D3
:101C900061F080914002811108C060E082E00E9402
:101CA000DE0060E084E00E94DE00112361F080919C
:101CB0003F02811108C060E082E00E94DE0060E027
:101CC00084E00E94DE00FF2061F080913E028111DD
:101CD00008C060E082E00E94DE0060E084E00E94D4
:101CE000DE0080910501882399F0809140028111E6
:101CF0000FC061E082E00E94DE0060E084E00E94AC
:101D0000DE0060913C0270913D0286E00E94550227
:101D100080910301882399F080913F0281110FC0C7
:101D200061E082E00E94DE0060E084E00E94DE006C
:101D300060913A0270913B0285E00E9455028091C9
:101D40000101882399F080913E0281110FC061E06A
:101D500082E00E94DE0060E084E00E94DE0060918C
:101D600038027091390283E00E945502809104018B
:101D7000882399F08091400281110FC060E082E0D9
:101D80000E94DE0061E084E00E94DE0060913C027F
:101D900070913D0286E00E945502809102018823E5
:101DA00099F080913F0281110FC060E082E00E94B3
:101DB000DE0061E084E00E94DE0060913A027091F2
:101DC0003B0285E00E94550280910001882399F032
:101DD00080913E0281110FC060E082E00E94DE002F
:101DE00061E084E00E94DE00609138027091390267
:101DF00083E00E9455028090550290905602A09078
:101E00005702B09058028091340290913502A0910F
:101E10003602B0913702A5019401281B390B4A0BF9
:101E20005B0BDA01C90184369105A105B10508F4FF
:101E3000D7C0809150028111C3C080914F0281119F
:101E4000A6C10E944502C0914B02D0914C02CE0126
:101E50006AE070E00E94C2118C01682F83E00E944A
:101E60001802CA30D1050CF4B3C0CE0164E670E0AC
:101E70000E94C211801B910B6AE070E00E94C211A7
:101E80007B0182E00E941802C436D1050CF4A0C088
:101E9000CE0168EE73E00E94C2118E199F09801B6B
:101EA000910B64E670E00E94C2116B0181E00E9418
:101EB0001802C83E33E0D3070CF48AC0CE0160E1BB
:101EC00077E20E94C2118C199D098E199F09801B0F
:101ED000910B68EE73E00E94C21180E00E9418022C
:101EE00077C010923F02F0CCCD3D21E0D2070CF03C
:101EF00066CE9E010D2E000C440B550B315041094E
:101F00005109A1E0BFEF0E948C112CED30E040E0C0
:101F100050E00E945F1121503F4F4F4F5F4F309371
:101F20003D0220933C02109205013092040147CEFD
:101F3000C13E41E0D4070CF070CE9E010D2E000C86
:101F4000440B550B315041095109A1E0BFEF0E94EC
:101F50008C1120EE30E040E050E00E945F112150F3
:101F60003F4F4F4F5F4F30933B0220933A02109206
:101F700003013092020151CEC13E81E0D8070CF03E
:101F80007ACE9E010D2E000C440B550B31504109A9
:101F90005109A1E0BFEF0E948C1120EE30E040E03B
:101FA00050E00E945F1121503F4F4F4F5F4F3093E1
:101FB00039022093380210920101309200015BCE69
:101FC0000E94450220E449E36FE380E40E94C801D7
:101FD0008092340290923502A0923602B09237027B
:101FE00080E591E00E9495068091490290914A0215
:101FF0000E94AF0785E591E00E94950680913C0222
:1020000090913D020E94AF078BE591E00E949506FA
:102010008091050190E00E94AF0781E691E00E9467
:1020200095068091040190E00E94AF0787E691E059
:102030000E9495068091400290E00E94AF0780E7E1
:1020400091E00E94950680914702909148020E947B
:10205000AF0786E791E00E94950680913A02909141
:102060003B020E94AF078CE791E00E9495068091A9
:10207000070190E00E94AF0782E891E00E94950678
:102080008091030190E00E94AF0788E891E00E94F0
:1020900095068091020190E00E94AF078EE891E0E2
:1020A0000E94950680913F0290E00E94AF0787E969
:1020B00091E00E94950680914502909146020E940F
:1020C000AF078CE991E00E949506809138029091CB
:1020D00039020E94AF0781EA91E00E949506809143
:1020E000010190E00E94AF0788EA91E00E94950606
:1020F0008091000190E00E94AF078FEA91E00E947A
:10210000950680913E0290E00E94AF0789EB91E036
:102110000E949506C0905102D0905202E090530266
:10212000F0905402A7019601C701B6010E942E1437
:10213000882399F187EC91E00E94440683ED91E0B9
:102140000E94950680914D0290914E020E94AF0729
:102150008EED91E00E94950680914B0290914C0289
:102160000E94AF0789EE91E00E9444068DE491E061
:102170000E94440640E050E0452B09F46ECA0E94DC
:102180008A03882309F467CA0E94000064CA0E9477
:10219000450220E449E36DE618CF46015701E89473
:1021A000B7F82FEF3FEF4FE75FE7C501B4010E949B
:1021B0002E1481110DC02FEF3FEF4FE75FE7C501F0
:1021C000B4010E945D1218161CF48BEC91E0B4CFA0
:1021D0002FEF3FEF4FE75FE4C701B6010E94BC134A
:1021E00018161CF48FEC91E0A7CF2FEF3FEF4FE7CD
:1021F0005FECC701B6010E945D1287FDF3CF20E0BE
:1022000030E0A901C701B6010E945D1287FF09C035
:102210006DE284ED92E00E94C003F7FAF094F7F8C3
:10222000F0942AE037ED43EA5BE3C701B6010E9470
:10223000F1114B015C010E94DB126B017C010E94D9
:102240000A139B01AC01C501B4010E94F0114B01BE
:102250005C014AE0C701B6010E9451066EE284EDBE
:1022600092E00E94C00320E030E040E251E4C5016A
:10227000B4010E94C1134B015C010E94DB126B018F
:10228000F12CE12C4AE0C701B6010E945106C701BA
:10229000B6010E940A139B01AC01C501B4010E9462
:1022A000F01120E030E040E251E40E94C1130E94AE
:1022B000DB1290E080E04AE00E9451063FCF052EFD
:1022C00097FB1EF400940E94761157FD07D00E94E0
:1022D000911107FC03D04EF40C9476115095409563
:1022E000309521953F4F4F4F5F4F089590958095C2
:1022F000709561957F4F8F4F9F4F08950E94B31146
:10230000A59F900DB49F900DA49F800D911D112449
:102310000895B7FF0C947E110E947E11821B930BCF
:102320000895A1E21A2EAA1BBB1BFD010DC0AA1F16
:10233000BB1FEE1FFF1FA217B307E407F50720F02E
:10234000A21BB30BE40BF50B661F771F881F991FA9
:102350001A9469F760957095809590959B01AC01F2
:10236000BD01CF010895A29FB001B39FC001A39FFB
:10237000700D811D1124911DB29F700D811D1124BE
:10238000911D089597FB072E16F4009407D077FD52
:1023900009D00E94D61107FC05D03EF49095819596
:1023A0009F4F0895709561957F4F0895AA1BBB1BA1
:1023B00051E107C0AA1FBB1FA617B70710F0A61B45
:1023C000B70B881F991F5A95A9F780959095BC0166
:1023D000CD010895EE0FFF1F0590F491E02D0994B3
:1023E0005058BB27AA270E9408120C9482130E94FF
:1023F000741338F00E947B1320F039F49F3F19F4D6
:1024000026F40C9471130EF4E095E7FB0C946B1317
:10241000E92F0E94931358F3BA17620773078407D2
:10242000950720F079F4A6F50C94B5130EF4E09519
:102430000B2EBA2FA02D0B01B90190010C01CA017E
:10244000A0011124FF27591B99F0593F50F4503E29
:1024500068F11A16F040A22F232F342F4427585F1B
:10246000F3CF469537952795A795F0405395C9F733
:102470007EF41F16BA0B620B730B840BBAF09150EB
:10248000A1F0FF0FBB1F661F771F881FC2F70EC08A
:10249000BA0F621F731F841F48F48795779567955D
:1024A000B795F7959E3F08F0B0CF9395880F08F049
:1024B0009927EE0F9795879508950E94471308F482
:1024C00081E008950E9476120C9482130E947B137F
:1024D00058F00E94741340F029F45F3F29F00C94E7
:1024E0006B1351110C94B6130C9471130E94931337
:1024F00068F39923B1F3552391F3951B550BBB2733
:10250000AA2762177307840738F09F5F5F4F220F77
:10251000331F441FAA1FA9F335D00E2E3AF0E0E86E
:1025200032D091505040E695001CCAF72BD0FE2FB8
:1025300029D0660F771F881FBB1F2617370748074C
:10254000AB07B0E809F0BB0B802DBF01FF27935804
:102550005F4F3AF09E3F510578F00C946B130C944A
:10256000B6135F3FE4F3983ED4F38695779567956D
:10257000B795F7959F5FC9F7880F911D9695879539
:1025800097F90895E1E0660F771F881FBB1F621758
:1025900073078407BA0720F0621B730B840BBA0B16
:1025A000EE1F88F7E09508950E94DB126894B11140
:1025B0000C94B61308950E949B1388F09F5798F0CF
:1025C000B92F9927B751B0F0E1F0660F771F881F38
:1025D000991F1AF0BA95C9F714C0B13091F00E9452
:1025E000B513B1E008950C94B513672F782F8827A1
:1025F000B85F39F0B93FCCF3869577956795B39579
:10260000D9F73EF490958095709561957F4F8F4FE7
:102610009F4F0895E89409C097FB3EF490958095EC
:10262000709561957F4F8F4F9F4F9923A9F0F92F98
:1026300096E9BB279395F695879577956795B79516
:10264000F111F8CFFAF4BB0F11F460FF1BC06F5FFC
:102650007F4F8F4F9F4F16C0882311F096E911C00E
:10266000772321F09EE8872F762F05C0662371F02F
:1026700096E8862F70E060E02AF09A95660F771F43
:10268000881FDAF7880F9695879597F90895990F1F
:102690000008550FAA0BE0E8FEEF16161706E8072C
:1026A000F907C0F012161306E407F50798F0621B4D
:1026B000730B840B950B39F40A2661F0232B242B22
:1026C000252B21F408950A2609F4A140A6958FEF41
:1026D000811D811D089597F99F6780E870E060E093
:1026E00008959FEF80EC089500240A9416161706AB
:1026F00018060906089500240A94121613061406F3
:1027000005060895092E0394000C11F4882352F055
:10271000BB0F40F4BF2B11F460FF04C06F5F7F4F0D
:102720008F4F9F4F089557FD9058440F551F59F0F4
:102730005F3F71F04795880F97FB991F61F09F3FAE
:1027400079F087950895121613061406551FF2CFD7
:102750004695F1DF08C0161617061806991FF1CF27
:1027600086957105610508940895E894BB2766274E
:102770007727CB0197F908950E94471308F48FEF4C
:1027800008950E94D4130C9482130E94741338F09D
:102790000E947B1320F0952311F00C946B130C9482
:1027A000711311240C94B6130E94931370F3959F28
:1027B000C1F3950F50E0551F629FF001729FBB2738
:1027C000F00DB11D639FAA27F00DB11DAA1F649FD4
:1027D0006627B00DA11D661F829F2227B00DA11D87
:1027E000621F739FB00DA11D621F839FA00D611D0D
:1027F000221F749F3327A00D611D231F849F600D2E
:10280000211D822F762F6A2F11249F5750409AF056
:10281000F1F088234AF0EE0FFF1FBB1F661F771FE2
:10282000881F91505040A9F79E3F510580F00C94AD
:102830006B130C94B6135F3FE4F3983ED4F3869584
:1028400077956795B795F795E7959F5FC1F7FE2B4D
:10285000880F911D9695879597F908950E944713C3
:0A286000880B990B0895F894FFCF40
:10286A000101010101010101013F065B4F666D7D16
:10287A00077F6F00000000C00320034D030D047E94
:10288A00035C037003000000001206E5054106BB65
:10289A0005DE05CB05BC05494E41323139206E6F44
:1028AA007420636F6E6E656374656421000D0A009F
:1028BA004131563A002041314F3A00204131553AD0
:1028CA0000204131443A002041314C6F636B3A0099
:1028DA00204132563A002041324F3A002041324ECE
:1028EA003A00204132553A00204132443A00204110
:1028FA00324C6F636B3A002046563A0020464F3AF4
:10290A0000204146553A2000204146443A20002002
:10291A0041464C6F636B3A20002043757272656EB4
:10292A00745B6D415D3A006E616E00696E66006FA0
:10293A0076660020507265737356616C3A002050B7
:0C294A00726573734163743A0020200032
:00000001FF
