:100000000C9462000C948A000C948A000C948A0070
:100010000C948A000C948A000C948A000C948A0038
:100020000C948A000C948A000C948A000C948A0028
:100030000C948A000C948A000C948A000C948A0018
:100040000C9495070C948A000C9405080C94DF0717
:100050000C948A000C948A000C948A000C948A00F8
:100060000C9437080C948A0000000000240027003C
:100070002A0000000000250028002B0000000000DE
:1000800023002600290004040404040404040202DA
:100090000202020203030303030301020408102007
:1000A0004080010204081020010204081020000012
:1000B0000008000201000003040700000000000027
:1000C0000000560911241FBECFEFD8E0DEBFCDBF20
:1000D00012E0A0E0B1E0E4ECF5E202C005900D9280
:1000E000A430B107D9F723E0A4E0B2E001C01D922B
:1000F000A23BB207E1F710E0C2E6D0E004C02197CE
:10010000FE010E949710C136D107C9F70E94A909C4
:100110000C94E0120C940000833081F028F48130BC
:1001200099F08230A9F008958730A9F08830C9F09D
:100130008430B1F4809180008F7D03C08091800075
:100140008F7780938000089584B58F7784BD08955C
:1001500084B58F7DFBCF8091B0008F778093B00006
:1001600008958091B0008F7DF9CFCF93DF93282F32
:1001700030E0F901E255FF4F8491F901E656FF4F57
:10018000D491F901EA57FF4FC491CC23A1F081111A
:100190000E948C00EC2FF0E0EE0FFF1FE458FF4FA1
:1001A000A591B491EC91ED2381E090E009F480E019
:1001B000DF91CF91089580E090E0FACF1F93CF9325
:1001C000DF93282F30E0F901E255FF4F8491F901C8
:1001D000E656FF4FD491F901EA57FF4FC491CC2363
:1001E000A9F0162F81110E948C00EC2FF0E0EE0F89
:1001F000FF1FEE58FF4FA591B4918FB7F894EC9183
:10020000111108C0D095DE23DC938FBFDF91CF9111
:100210001F910895DE2BF8CFCF93DF93CBE7D3E088
:1002200060E08C810E94DE0060E08D810E94DE0033
:1002300061E08C810E94DE0061E08D81DF91CF91D1
:100240000C94DE00CF93DF93CBE7D3E061E08C81A9
:100250000E94DE0061E08D810E94DE0060E08D8101
:100260000E94DE0060E08C81DF91CF910C94DE0073
:10027000CF93DF9390E0FC01E656FF4F24918A571D
:100280009F4FFC0184918823C9F090E0880F991F4B
:10029000FC01E859FF4FA591B491FC01EE58FF4FC6
:1002A000C591D49161110DC09FB7F8948C912095A0
:1002B00082238C938881282328839FBFDF91CF914D
:1002C0000895623051F49FB7F8943C91822F809545
:1002D00083238C93E8812E2BEFCF8FB7F894EC918A
:1002E0002E2B2C938FBFEACFEF92FF921F93CF93C9
:1002F000DF93182FD8E060E080917F030E94DE003A
:10030000E12E012E000CFF0861E010FF60E08091FB
:1003100080030E94DE00F594E7941E2D61E0809139
:100320007F030E94DE00D15031F760E080917F03AF
:100330000E94DE0061E0809180030E94DE0061E0A7
:1003400080917F030E94DE0060E0809180030E9424
:100350003801809180030E94B500892B79F0CF5F2E
:10036000C83C91F761E0809180030E94380160E011
:10037000809180030E94DE00C0E0E6CF61E08091C2
:100380008003DF91CF911F91FF90EF900C94380183
:10039000CF93DF93D82F80917E03811180E8C82FFF
:1003A0006F3739F0E62F660FFF0BE75FFE4FC08116
:1003B000C80F0E94220184E40E9474010E940C0173
:1003C0000E9422018D2F806C0E9474018C2F0E944C
:1003D00074010E940C010E94220180917D030E9401
:1003E0007401DF91CF910C940C016FE780E00E94C3
:1003F000C8016FE781E00E94C8016FE782E00E94B8
:10040000C8016FE783E00C94C8011F93CF93DF937B
:10041000182FEB0161E00E943801209739F460E069
:10042000812FDF91CF911F910C94DE00CF3FD1053A
:1004300011F461E0F5CFE12FF0E0E255FF4FE491D8
:10044000E33031F140F4E130B1F0E230E1F0C038B6
:10045000D1057CF7E4CFE73029F1E83059F1E430F9
:10046000B1F780918000806280938000D0938B00F0
:10047000C0938A0004C084B5806884BDC7BDDF9185
:10048000CF911F91089584B5806284BDC8BDF7CF18
:1004900080918000806880938000D0938900C09311
:1004A0008800EDCF8091B00080688093B000C09349
:1004B000B300E5CF8091B00080628093B000C0931C
:1004C000B400DDCF8E3008F08E508770806480934A
:1004D0007C0080917A00806480937A0080917A0019
:1004E00086FDFCCF809178009091790008953FB708
:1004F000F8948091680290916902A0916A02B0918B
:100500006B0226B5A89B05C02F3F19F00196A11DCF
:10051000B11D3FBFBA2FA92F982F8827BC01CD014D
:10052000620F711D811D911D42E0660F771F881FAC
:10053000991F4A95D1F7089508950895AF92BF92F3
:10054000CF92DF92EF92FF920F931F93CF93DF939F
:100550006C017B018B01040F151FEB015E01AE18CE
:10056000BF08C017D10759F06991D601ED91FC91F0
:100570000190F081E02DC6010995892B79F7C5011D
:10058000DF91CF911F910F91FF90EF90DF90CF906F
:10059000BF90AF900895FC01538D448D252F30E01E
:1005A000842F90E0821B930B541710F0CF96089580
:1005B00001970895FC01918D828D981761F0A28DAD
:1005C000AE0FBF2FB11D5D968C91928D9F5F9F7373
:1005D000928F90E008958FEF9FEF0895FC01918D29
:1005E000828D981731F0828DE80FF11D858D90E096
:1005F00008958FEF9FEF0895FC01918D228D892F33
:1006000090E0805C9F4F821B91098F73992708951A
:100610008EED92E00E94FC0221E0892B09F420E09B
:10062000822F089580E090E0892B29F00E94080332
:1006300081110C9400000895FC01A48DA80FB92F1E
:10064000B11DA35ABF4F2C91848D90E001968F73FA
:100650009927848FA689B7892C93A089B1898C9119
:10066000837080648C93938D848D981306C0028868
:10067000F389E02D80818F7D80830895EF92FF9232
:100680000F931F93CF93DF93EC0181E0888F9B8DB5
:100690008C8D98131AC0E889F989808185FF15C06F
:1006A0009FB7F894EE89FF896083E889F989808192
:1006B0008370806480839FBF81E090E0DF91CF9161
:1006C0001F910F91FF90EF900895F62E0B8D10E083
:1006D0000F5F1F4F0F731127E02E8C8D8E110CC0F2
:1006E0000FB607FCFACFE889F989808185FFF5CF3D
:1006F000CE010E941C03F1CFEB8DEC0FFD2FF11DFD
:10070000E35AFF4FF0829FB7F8940B8FEA89FB8979
:1007100080818062CFCFCF93DF93EC01888D8823D7
:10072000B9F0AA89BB89E889F9898C9185FD03C054
:10073000808186FD0DC00FB607FCF7CF8C9185FF39
:10074000F2CF808185FFEDCFCE010E941C03E9CF5F
:10075000DF91CF91089520912502260F3327331F73
:1007600021323105ECF42091B402FC0190E080E0EC
:10077000243069F082E00895A09125022191AC0116
:100780004B5F5D4FA40FB52FB11D2C9301968617BB
:1007900098F380912502680F6093250280E0089508
:1007A00081E008951092B40281E08093B302109228
:1007B0008E0261E082E10E94DE0061E083E10E943E
:1007C000DE00E9EBF0E080818E7F808380818D7F89
:1007D000808388E48093B80085E48093BC0008950A
:1007E000CF93DF9391E0909304028823B9F0C091F6
:1007F000B800D091BA008091BC008A7B8093BC0085
:1008000060E082E10E94DE0060E083E10E94DE00A1
:100810000E94D203D093BA00C093B800DF91CF9169
:1008200008958F929F92AF92BF92CF92DF92EF92F4
:10083000FF920F931F93CF93DF93D091DD02D132BC
:1008400008F0D7C0182FC091DC020E9477026B011C
:100850007C018091B40281116BC082E08093B4026C
:100860001093B3028FEF8093B2021092B102D09333
:10087000B002ACEBB2E0E0E9F2E080E0D81391C066
:1008800010928F0280918F02CC0FC82BC0938F02E1
:1008900080918E02813009F088C010928E020E94F1
:1008A00077026B017C0180918F028093BB00809165
:1008B000B6029091B702A091B802B091B902892B0B
:1008C0008A2B8B2BA1F00E9477020091B602109127
:1008D000B7022091B8023091B9026C197D098E09D6
:1008E0009F09061717072807390708F442C08091A7
:1008F000BC0083FDD8CF85EC8093BC000E947702BA
:100900006B017C018091B402823009F450C0809167
:10091000B2028F3F09F46FC08091B202803209F4B5
:100920006CC08091B202803309F469C084E026C0B3
:100930008091B6029091B702A091B802B091B9022D
:10094000892B8A2B8B2B09F484CF0E94770280900D
:10095000B6029090B702A090B802B090B9026C199C
:100960007D098E099F0986169706A806B90608F024
:1009700070CF8091B5020E94F00385E01092BB0217
:100980001092DD021092BA02DF91CF911F910F9168
:10099000FF90EF90DF90CF90BF90AF909F908F909F
:1009A00008959D9191938F5F69CF85EEA5CF80913A
:1009B000B6029091B702A091B802B091B902892B0A
:1009C0008A2B8B2B09F49ECF0E9477020091B602EE
:1009D0001091B7022091B8023091B9026C197D09CB
:1009E0008E099F09061717072807390708F08ACFCD
:1009F000C0CF81E0C3CF80E0C1CF82E0BFCF83E032
:100A0000BDCF0F931F93CF93DF93162F072FCDE802
:100A1000D3E0A885B9859A8521E02093BA02909306
:100A2000DC021092BB021092DD02ED91FC91119755
:100A30000190F081E02D682FCD0109958885998579
:100A4000DC01ED91FC910190F081E02D602F099582
:100A500088859985DC01ED91FC910190F081E02D74
:100A6000612F099581E0DF91CF911F910F910C9437
:100A700011040895E0916D0280916C02E81730F442
:100A8000F0E0E259FD4F808190E008958FEF9FEFF5
:100A9000089590916D0280916C022FEF3FEF9817AF
:100AA00048F4E92FF0E0E259FD4F208130E09F5FEC
:100AB00090936D02C901089580916C0290916D022E
:100AC000891B990B0895CF92DF92EF92FF920F93BB
:100AD0001F93CF93DF937C01CB018A012091BA024F
:100AE000222389F0EB016B01C40ED51ECC15DD0568
:100AF00069F06991D701ED91FC910190F081E02DB1
:100B0000C7010995F3CF642F0E94AB03C801DF91A1
:100B1000CF911F910F91FF90EF90DF90CF900895AC
:100B2000CF93DF931F92CDB7DEB769832091BA02CE
:100B30002223F9F02091DD02203258F021E030E04C
:100B4000FC013383228390E080E00F90DF91CF910E
:100B500008958091BB02E82FF0E0E454FD4F9981A5
:100B600090838F5F8093BB028093DD0281E090E0F1
:100B7000ECCF61E0CE0101960E94AB03F7CF90E08D
:100B800080E00895FC0101900020E9F73197AF0162
:100B9000481B590BBC018EED92E00C949E028F9283
:100BA0009F92AF92BF920F931F93CF93DF93CDB7D6
:100BB000DEB7A1970FB6F894DEBF0FBECDBF19A266
:100BC000423008F44AE08E010F5D1F4F842E912CB5
:100BD000B12CA12CA50194010E942F10E62FB90180
:100BE000CA01EA30F4F4E05DD801EE938D01232BC5
:100BF000242B252B79F790E080E0109719F0CD0198
:100C00000E94C205A1960FB6F894DEBF0FBECDBFFD
:100C1000DF91CF911F910F91BF90AF909F908F90D8
:100C20000895E95CE1CF0C94C205CF92DF92EF9278
:100C3000FF920F931F93CF93A0919503B0919603CA
:100C40009091970321E02093BA029093DC021092D6
:100C5000BB021092DD02ED91FC9111970190F081A1
:100C6000E02D682FCD01099580E00E941104C0910C
:100C700097030E9477026B017C018091B40281117D
:100C800065C081E08093B4028093B3029FEF90939C
:100C9000B2021092B1028093B00280938F028091D1
:100CA0008F02CC0FC82BC0938F0280918E028130AF
:100CB00009F0AAC010928E020E9477026B017C019B
:100CC00080918F028093BB008091B6029091B70211
:100CD000A091B802B091B902892B8A2B8B2BA1F07D
:100CE0000E9477020091B6021091B7022091B802DB
:100CF0003091B9026C197D098E099F0906171707F3
:100D00002807390708F443C08091BC0083FDD8CF81
:100D100085EC8093BC000E9477026B017C0180917E
:100D2000B402813009F472C08091B102823008F0BF
:100D30008FC08091B102E0E9F2E0AEE6B2E090E06F
:100D4000981751F121912D939F5FFACF8091B602B0
:100D50009091B702A091B802B091B902892B8A2B69
:100D60008B2B09F48ACF0E9477020091B602109172
:100D7000B7022091B8023091B9026C197D098E0931
:100D80009F09061717072807390708F076CF8091C3
:100D9000B5020E94F00380E010926D0280936C0215
:100DA0008091950390919603DC01ED91FC91008474
:100DB000F185E02D0995892B09F44CC080919503AC
:100DC00090919603DC01ED91FC910284F385E02D76
:100DD0000995C82F8091950390919603DC01ED91C0
:100DE000FC910284F385E02D09952C2F30E0322F01
:100DF0002227820F932F911DCF911F910F91FF906A
:100E0000EF90DF90CF90089585EE83CF8091B6026A
:100E10009091B702A091B802B091B902892B8A2BA8
:100E20008B2B09F47CCF0E9477020091B6021091BF
:100E3000B7022091B8023091B9026C197D098E0970
:100E40009F09061717072807390708F068CF9FCFB3
:100E500082E071CF80E0C0E0C8CFCF92DF92EF9206
:100E6000FF92CF93DF936C01990FEE08FF08F7FE16
:100E700019C06DE28EED92E00E943E03EC01662700
:100E80007727CB016C197D098E099F094AE00E94E2
:100E9000CF058C0F9D1FDF91CF91FF90EF90DF90DA
:100EA000CF9008954AE0C701B601DF91CF91FF903E
:100EB000EF90DF90CF900C94CF0585ED8093BC0030
:100EC0008091B6029091B702A091B802B091B90298
:100ED0000796A11DB11D23E0B695A7959795879517
:100EE0002A95D1F72091BC0024FD03C01092B402D2
:100EF00008954091B6025091B7026091B802709186
:100F0000B902452B462B472B69F30097A105B10584
:100F100041F025E32A95F1F700000197A109B109F5
:100F2000E1CF8091B5020C94F0031F920F920FB69F
:100F30000F9211242F933F938F939F93AF93BF935F
:100F40008091640290916502A0916602B09167025F
:100F50003091630223E0230F2D3758F50196A11D30
:100F6000B11D209363028093640290936502A09365
:100F70006602B09367028091680290916902A09125
:100F80006A02B0916B020196A11DB11D80936802A7
:100F900090936902A0936A02B0936B02BF91AF91E4
:100FA0009F918F913F912F910F900FBE0F901F90A7
:100FB000189526E8230F0296A11DB11DD2CF1F92CE
:100FC0000F920FB60F9211242F933F934F935F937D
:100FD0006F937F938F939F93AF93BF93EF93FF9301
:100FE0008EED92E00E941C03FF91EF91BF91AF91B3
:100FF0009F918F917F916F915F914F913F912F9131
:101000000F900FBE0F901F9018951F920F920FB662
:101010000F9211242F938F939F93EF93FF93E0915F
:10102000EE02F091EF028081E091F402F091F5027E
:1010300082FD1BC090818091F7028F5F8F7320919A
:10104000F802821741F0E091F702F0E0E252FD4F22
:10105000958F8093F702FF91EF919F918F912F9140
:101060000F900FBE0F901F9018958081F4CF1F92A4
:101070000F920FB60F9211242F933F934F935F93CC
:101080006F937F938F939F93AF93BF93EF93FF9350
:101090008091B900887F803609F44AC0F0F5883223
:1010A00009F4A7C018F5803109F49BC0B8F488236F
:1010B00009F4F9C0883009F494C0FF91EF91BF9111
:1010C000AF919F918F917F916F915F914F913F91E0
:1010D0002F910F900FBE0F901F901895883109F433
:1010E00088C0803251F78093B20214C0803409F472
:1010F0009DC040F48033B9F38833F9F68093B2028F
:1011000085ECB0C0803509F485C0883509F496C0F7
:10111000883499F60E945D07D0CF883909F48CC0D5
:1011200038F5883729F050F4883611F0803729F6E1
:1011300083E08093B4021092470257C0883809F4C4
:101140007BC0803919F0803809F0B7CF8091470211
:10115000803208F071C0E091470281E08E0F8093E9
:1011600047028091BB00F0E0E95DFD4F80833DC008
:10117000803B39F0E0F4803A09F479C0883A09F00C
:101180009CCF84E08093B402109226021092250234
:10119000E0914A02F0914B0209958091250281115C
:1011A0000FC081E0809325021092050209C0803CA7
:1011B00009F4A6CF883C09F4A3CF883B09F07DCF82
:1011C000E091260281E08E0F80932602F0E0EB5F33
:1011D000FD4F80818093BB00909126028091250273
:1011E00029C080918F028093BB0085EC8093BC0066
:1011F00064CF9091B1028091B002981758F5E091B8
:10120000B10281E08E0F8093B102F0E0E057FD4F14
:101210008081E9CFE091B10281E08E0F8093B1022D
:101220008091BB00F0E0E057FD4F80839091B102C8
:101230008091B0029817C8F285E8D8CFE091B1024A
:1012400081E08E0F8093B1028091BB00F0E0E05707
:10125000FD4F80838091B30281115CCF81E0809348
:101260008E0284EA8093BC001092B40226CF85ECF3
:101270008093BC001092B40280914702803230F417
:10128000E0914702F0E0E95DFD4F10826091470276
:1012900070E0E0914802F091490287E292E00995FE
:1012A000109247020ACF1092B20234CFCF93DF934D
:1012B000EEEDF2E01382128288EE93E0A0E0B0E05F
:1012C00084839583A683B78327E131E0318320832C
:1012D00025EC30E03587248724EC30E037872687FB
:1012E00020EC30E0318B208B21EC30E0338B228BF3
:1012F00022EC30E0358B248B26EC30E0378B268BCC
:10130000118E128E138E148EE1E8F3E01382128296
:1013100084839583A683B78389E291E09183808358
:10132000ADE8B3E01996FC93EE93189780E41A9613
:101330008C93CBE7D3E08CE08C838DE08D8361E0F0
:101340008CE00E94380161E08D81DF91CF910C9497
:101350003801789484B5826084BD84B5816084BD91
:1013600085B5826085BD85B5816085BD80916E0043
:10137000816080936E001092810080918100826074
:1013800080938100809181008160809381008091B1
:1013900080008160809380008091B10084608093A0
:1013A000B1008091B00081608093B00080917A009C
:1013B000846080937A0080917A00826080937A00C2
:1013C00080917A00816080937A0080917A008068B1
:1013D00080937A001092C100E091EE02F091EF024A
:1013E00082E08083E091EA02F091EB021082E091CA
:1013F000EC02F091ED0280E180831092F602E09120
:10140000F202F091F30286E08083E091F002F09125
:10141000F102808180618083E091F002F091F1021D
:10142000808188608083E091F002F091F1028081F8
:1014300080688083E091F002F091F10280818F7DDD
:10144000808310926D0210926C021092BB02109277
:10145000DD020E94D2038CE992E090934B028093CC
:101460004A028DE992E0909349028093480260E03D
:1014700070E880E00E940105882309F469C087E3D1
:1014800091E00E94C2058DE491E00E94C2050E9495
:10149000F50180E480937B0380EC80937C038AE8F1
:1014A00080937D0360E08EE00E94380162E089E075
:1014B0000E94380160E08FE00E94380162E088E01D
:1014C0000E94380160E080E10E94380162E087E01C
:1014D0000E94380161E082E00E94380161E084E00E
:1014E0000E94380161E08CE00E94380161E08DE0EB
:1014F0000E94380110926202109261029DEC492E06
:1015000055245394612C712C28EE222E23E0322E88
:10151000C1E010910801112309F421C18091070154
:10152000882309F41CC18091070181111EC180919B
:101530000601882309F41CC190910701992309F43D
:1015400017C190910701911161C411111AC114C101
:1015500083E090E090938E0380938D0380E00E945F
:1015600015068770987FBC016869716080E00E94F1
:10157000010587E090E09093900380938F0380E0D3
:101580000E941506887F60918F0370919003682BED
:10159000792B80E00E94010580E098E1909392030E
:1015A0008093910380E00E941506977E60919103DD
:1015B00070919203682B792B80E00E940105809145
:1015C000910390919203811528E0920709F485C058
:1015D000B0F5892B09F45CC0609198037091990370
:1015E00085E00E94010580E090E29093940380934F
:1015F000930380E00E9415069F7D60919303709194
:101600009403682B792B80E00E94010580E090E034
:10161000A0E8BFE38093A2039093A303A093A40345
:10162000B093A5031092AE0310929E0310929F03F5
:101630001092A0031092A1031092AF0328CF81153E
:1016400020E1920709F46AC08115984129F680E0EB
:1016500090E1909399038093980380E090E0A0E25A
:10166000B1E48093A6039093A703A093A803B0933B
:10167000A90380E090E0A0E0B0E48093AA039093F7
:10168000AB03A093AC03B093AD0380E09DE720C013
:1016900080E090E5909399038093980380E090E038
:1016A000A8E4B2E48093A6039093A703A093A803B1
:1016B000B093A9038DEC9CECACECBEE38093AA0341
:1016C0009093AB03A093AC03B093AD0380EA9FE08B
:1016D0009093B1038093B0037FCF80E098E2909322
:1016E00099038093980380E090E0A8ECB1E48093A4
:1016F000A6039093A703A093A803B093A9038DEC2E
:101700009CECACE4BFE38093AA039093AB03A0935B
:10171000AC03B093AD0380E49FE1DACF80E090E2C8
:10172000909399038093980380E090E0A0EAB1E45D
:101730008093A6039093A703A093A803B093A90353
:1017400080E090E0A0E8BFE38093AA039093AB030E
:10175000A093AC03B093AD0380E89EE3B9CFC093F0
:101760006202112309F4E3CEDECE10926202DFCED4
:10177000C09361028111E5CEC0936002882339F0E5
:1017800011111092600260E086E00E94DE001123D9
:1017900021F060E085E00E94DE008091070188234F
:1017A00021F060E083E00E94DE0084E00E941506E4
:1017B0008C018091AF0370E060E0882331F120E07C
:1017C00030E048EC52E460919E0370919F03809159
:1017D000A0039091A1030E946E126B017C016091A5
:1017E00098037091990390E080E00E94B7119B01EB
:1017F000AC01C701B6010E946E1220E030E040E863
:1018000059E30E946E120E948111C801861B970B3A
:10181000BC01072E000C880B990B0E94B9116B01BB
:101820007C012091A2033091A3034091A403509125
:10183000A5036091A6037091A7038091A8039091DE
:10184000A9030E946E129B01AC01C701B6010E9460
:101850000F116B017C0120E030E0A9010E940A1108
:1018600087FDD7C220E030E040EF51E4C701B60168
:101870000E94691218160CF4D0C2C0925C02D09279
:101880005D02E0925E02F0925F0220E030E040E212
:1018900051E4C701B6010E946E120E94811170933B
:1018A0005B0260935A02DB012AEF30E00E947C1059
:1018B0002CE231E040E050E00E94051059013093E5
:1018C0005902209358028EE00E9462026C019093AC
:1018D0005702809356028FE00E9462027C0190932F
:1018E00055028093540280E10E9462028C01909321
:1018F00053028093520289E00E94B50088E00E9462
:10190000B50087E00E94B50092E3C91692E0D906BF
:101910000CF48AC296010D2C000C440B550B22537B
:10192000324041095109AFEFB0E00E942410A301F9
:1019300092010E94051030935102209350021092A0
:101940000601C0930501109204018FECC81A81E0D2
:10195000D80A94E6C916D10450F4C0930601109237
:10196000050110920401109251021092500222E3DC
:10197000E21622E0F2060CF477C297010F2C000C5D
:10198000440B550B2253324041095109AFEFB0E0EF
:101990000E942410A30192010E94051030934F026F
:1019A00020934E0210920801C0930301109202018D
:1019B0009FECE91A91E0F90A24E6E216F10450F4EA
:1019C000C0930801109203011092020110924F027D
:1019D00010924E02023382E018070CF465C298019F
:1019E000012E000C440B550B225332404109510982
:1019F000AFEFB0E00E942410A30192010E940510F5
:101A000030934D0220934C0210920701C0930101C4
:101A1000109200010F5C11400436110550F4C09380
:101A20000701109201011092000110924D021092D4
:101A30004C0280910601882361F08091620281113D
:101A400008C060E082E00E94DE0060E084E00E9466
:101A5000DE0080910801882361F08091610281118C
:101A600008C060E082E00E94DE0060E084E00E9446
:101A7000DE0080910701882361F08091600281116E
:101A800008C060E082E00E94DE0060E084E00E9426
:101A9000DE0080910501882399F080916202811116
:101AA0000FC061E082E00E94DE0060E084E00E94FE
:101AB000DE00609150027091510286E00E940502A2
:101AC00080910301882399F08091610281110FC0F8
:101AD00061E082E00E94DE0060E084E00E94DE00BF
:101AE00060914E0270914F0285E00E940502809144
:101AF0000101882399F08091600281110FC061E09B
:101B000082E00E94DE0060E084E00E94DE006091DE
:101B10004C0270914D0283E00E9405028091040105
:101B2000882399F08091620281110FC060E082E009
:101B30000E94DE0061E084E00E94DE0060915002BD
:101B40007091510286E00E94050280910201882373
:101B500099F08091610281110FC060E082E00E94E3
:101B6000DE0061E084E00E94DE0060914E02709130
:101B70004F0285E00E94050280910001882399F0C0
:101B80008091600281110FC060E082E00E94DE005F
:101B900061E084E00E94DE0060914C0270914D0291
:101BA00083E00E940502C5016AE070E00E946010B7
:101BB0008C01682F83E00E94C8012AE0A216B104BC
:101BC000CCF1C50164E670E00E946010801B910BAF
:101BD0006AE070E00E9460107B0182E00E94C80110
:101BE00084E6A816B10434F1C501B1010E94601069
:101BF0008E199F09801B910B64E670E00E946010B3
:101C00006B0181E00E94C80198EEA91693E0B90625
:101C10008CF0C50160E177E20E9460108C199D098B
:101C20008E199F09801B910BB1010E94601080E00A
:101C30000E94C8010E94F50180E591E00E94130610
:101C400080915602909157020E942D0785E591E000
:101C50000E94130680915002909151020E942D071C
:101C60008BE591E00E9413068091060190E00E94AE
:101C70002D0781E691E00E9413068091050190E016
:101C80000E942D0787E691E00E94130680910401CF
:101C900090E00E942D078DE691E00E94130680914E
:101CA000620290E00E942D0786E791E00E941306F1
:101CB00080915402909155020E942D078CE791E08B
:101CC0000E94130680914E0290914F020E942D07B0
:101CD00082E891E00E9413068091080190E00E9442
:101CE0002D0788E891E00E9413068091030190E09F
:101CF0000E942D078EE891E00E9413068091020158
:101D000090E00E942D0784E991E00E9413068091E3
:101D1000610290E00E942D078DE991E00E94130678
:101D200080915202909153020E942D0782EA91E025
:101D30000E94130680914C0290914D020E942D0743
:101D400087EA91E00E9413068091070190E00E94CB
:101D50002D078EEA91E00E9413068091010190E028
:101D60000E942D0785EB91E00E94130680910001EF
:101D700090E00E942D078CEB91E00E941306809169
:101D8000600290E00E942D0786EC91E00E9413060D
:101D9000C0905C02D0905D02E0905E02F0905F0225
:101DA000A7019601C701B6010E94DB12882309F43E
:101DB0009AC084ED91E00E94C20580EE91E00E94FD
:101DC000130680915A0290915B020E942D078FEEBC
:101DD00091E00E94130680915802909159020E944E
:101DE0002D0781E092E00E94C2058DE491E00E94FF
:101DF000C20580E090E0892B09F48BCB0E94080398
:101E0000882309F485CB0E94000082CB10926102E6
:101E10009CCBC12CD12C760130CDC12CD12C80EFA4
:101E2000E82E81E4F82E29CD2FECC21621E0D2064F
:101E30000CF08BCD9601A1E0BFEF0E9474102EEC48
:101E400031E040E050E00E94051021503F4F4F4FDD
:101E50005F4F30935102209350021092060110926E
:101E60000501C093040171CD8FECE81681E0F806FE
:101E70000CF09ECD9701A1E0BFEF0E9474102EECF4
:101E800031E040E050E00E94051021503F4F4F4F9D
:101E90005F4F30934F0220934E0210920801109230
:101EA0000301C093020184CD0F3C91E019070CF0AF
:101EB000B1CD9801A1E0BFEF0E9474102EEC31E08B
:101EC00040E050E00E94051021503F4F4F4F5F4FC0
:101ED00030934D0220934C021092070110920101A1
:101EE000C093000197CD46015701E894B7F82FEF52
:101EF0003FEF4FE75FE7C501B4010E94DB1281119C
:101F00000DC02FEF3FEF4FE75FE7C501B4010E941F
:101F10000A1118161CF488ED91E04DCF2FEF3FEF1A
:101F20004FE75FE4C701B6010E94691218161CF45E
:101F30008CED91E040CF2FEF3FEF4FE75FECC70113
:101F4000B6010E940A1187FDF3CF20E030E0A9011D
:101F5000C701B6010E940A1187FF09C06DE28EED2C
:101F600092E00E943E03F7FAF094F7F8F0942AE02A
:101F700037ED43EA5BE3C701B6010E949E104B01B7
:101F80005C010E9488116B017C010E94B7119B01CA
:101F9000AC01C501B4010E949D104B015C014AE0F7
:101FA000C701B6010E94CF056EE28EED92E00E945D
:101FB0003E0320E030E040E251E4C501B4010E945C
:101FC0006E124B015C010E9488116B01F12CE12C17
:101FD0004AE0C701B6010E94CF05C701B6010E94C1
:101FE000B7119B01AC01C501B4010E949D1020E016
:101FF00030E040E251E40E946E120E94881190E0AD
:1020000080E04AE00E94CF05D8CE052E97FB1EF453
:1020100000940E941C1057FD07D00E942F1007FC4F
:1020200003D04EF40C941C1050954095309521959A
:102030003F4F4F4F5F4F08959095809570956195F4
:102040007F4F8F4F9F4F08950E945110A59F900D75
:10205000B49F900DA49F800D911D11240895A1E2BD
:102060001A2EAA1BBB1BFD010DC0AA1FBB1FEE1F12
:10207000FF1FA217B307E407F50720F0A21BB30B5D
:10208000E40BF50B661F771F881F991F1A9469F7D9
:1020900060957095809590959B01AC01BD01CF0135
:1020A0000895A29FB001B39FC001A39F700D811D31
:1020B0001124911DB29F700D811D1124911D089551
:1020C00097FB072E16F4009407D077FD09D00E94E5
:1020D000831007FC05D03EF4909581959F4F08959D
:1020E000709561957F4F08950E945110332312F42B
:1020F0008A1B9B0B0C947E100E945110B7FF089511
:10210000821B930B0895AA1BBB1B51E107C0AA1F9A
:10211000BB1FA617B70710F0A61BB70B881F991F88
:102120005A95A9F780959095BC01CD010895EE0FC1
:10213000FF1F0590F491E02D09945058BB27AA2762
:102140000E94B5100C942F120E94211238F00E94A8
:10215000281220F039F49F3F19F426F40C941E1233
:102160000EF4E095E7FB0C941812E92F0E94401240
:1021700058F3BA17620773078407950720F079F4BC
:10218000A6F50C9462120EF4E0950B2EBA2FA02D3A
:102190000B01B90190010C01CA01A0011124FF2714
:1021A000591B99F0593F50F4503E68F11A16F0400F
:1021B000A22F232F342F4427585FF3CF469537950E
:1021C0002795A795F0405395C9F77EF41F16BA0BD3
:1021D000620B730B840BBAF09150A1F0FF0FBB1F81
:1021E000661F771F881FC2F70EC0BA0F621F731FCA
:1021F000841F48F4879577956795B795F7959E3F27
:1022000008F0B0CF9395880F08F09927EE0F9795B7
:10221000879508950E94F41108F481E008950E94C2
:1022200023110C942F120E94281258F00E942112A0
:1022300040F029F45F3F29F00C94181251110C94CE
:1022400063120C941E120E94401268F39923B1F39A
:10225000552391F3951B550BBB27AA2762177307CC
:10226000840738F09F5F5F4F220F331F441FAA1F60
:10227000A9F335D00E2E3AF0E0E832D0915050401C
:10228000E695001CCAF72BD0FE2F29D0660F771FCA
:10229000881FBB1F261737074807AB07B0E809F0B0
:1022A000BB0B802DBF01FF2793585F4F3AF09E3F35
:1022B000510578F00C9418120C9463125F3FE4F30C
:1022C000983ED4F3869577956795B795F7959F5F78
:1022D000C9F7880F911D9695879597F90895E1E0C4
:1022E000660F771F881FBB1F621773078407BA0723
:1022F00020F0621B730B840BBA0BEE1F88F7E0957E
:1023000008950E9488116894B1110C946312089585
:102310000E94481288F09F5798F0B92F9927B7511B
:10232000B0F0E1F0660F771F881F991F1AF0BA9579
:10233000C9F714C0B13091F00E946212B1E0089563
:102340000C946212672F782F8827B85F39F0B93F55
:10235000CCF3869577956795B395D9F73EF490952C
:102360008095709561957F4F8F4F9F4F0895E894AA
:1023700009C097FB3EF490958095709561957F4FCD
:102380008F4F9F4F9923A9F0F92F96E9BB2793957B
:10239000F695879577956795B795F111F8CFFAF48B
:1023A000BB0F11F460FF1BC06F5F7F4F8F4F9F4FBC
:1023B00016C0882311F096E911C0772321F09EE81A
:1023C000872F762F05C0662371F096E8862F70E080
:1023D00060E02AF09A95660F771F881FDAF7880F5A
:1023E0009695879597F90895990F0008550FAA0BB0
:1023F000E0E8FEEF16161706E807F907C0F0121618
:102400001306E407F50798F0621B730B840B950B1A
:1024100039F40A2661F0232B242B252B21F408956F
:102420000A2609F4A140A6958FEF811D811D08950C
:1024300097F99F6780E870E060E008959FEF80EC77
:10244000089500240A94161617061806090608951A
:1024500000240A9412161306140605060895092E80
:102460000394000C11F4882352F0BB0F40F4BF2BEF
:1024700011F460FF04C06F5F7F4F8F4F9F4F08952F
:1024800057FD9058440F551F59F05F3F71F0479525
:10249000880F97FB991F61F09F3F79F0879508950A
:1024A000121613061406551FF2CF4695F1DF08C029
:1024B000161617061806991FF1CF86957105610546
:1024C00008940895E894BB2766277727CB0197F9EE
:1024D00008950E94F41108F48FEF08950E9481126C
:1024E0000C942F120E94211238F00E94281220F022
:1024F000952311F00C9418120C941E1211240C94B4
:1025000063120E94401270F3959FC1F3950F50E043
:10251000551F629FF001729FBB27F00DB11D639F95
:10252000AA27F00DB11DAA1F649F6627B00DA11D3B
:10253000661F829F2227B00DA11D621F739FB00DE1
:10254000A11D621F839FA00D611D221F749F332751
:10255000A00D611D231F849F600D211D822F762FEA
:102560006A2F11249F5750409AF0F1F088234AF0C7
:10257000EE0FFF1FBB1F661F771F881F9150504033
:10258000A9F79E3F510580F00C9418120C94631229
:102590005F3FE4F3983ED4F3869577956795B795BA
:1025A000F795E7959F5FC1F7FE2B880F911D9695D4
:1025B000879597F908950E94F411880B990B089557
:0425C000F894FFCFBD
:1025C4000101010101010101013F065B4F666D7DBF
:1025D400077F6F000000003E039E02CB028B03FCCA
:1025E40002DA02EE020000000090056305BF05391F
:1025F400055C0549053A05494E41323139206E6F73
:102604007420636F6E6E656374656421000D0A0047
:102614004131563A002041314F3A002041314E3A7F
:1026240000204131553A00204131443A00204131E3
:102634004C6F636B3A00204132563A002041324FCE
:102644003A002041324E3A00204132553A002041AE
:1026540032443A002041324C6F636B3A00204656B4
:102664003A0020464F3A002041464E3A200020418D
:1026740046553A2000204146443A20002041464C29
:102684006F636B3A20002043757272656E745B6DE4
:10269400415D3A006E616E00696E66006F76660099
:1026A4002050726573737572652076616C3A0020F0
:1026B40050726573737572652061637475616C3AE9
:0426C40000202000D2
:00000001FF
