:100000000C9462000C948A000C948A000C948A0070
:100010000C948A000C948A000C948A000C948A0038
:100020000C948A000C948A000C948A000C948A0028
:100030000C948A000C948A000C948A000C948A0018
:100040000C944D040C948A000C948A000C948A0041
:100050000C948A000C948A000C948A000C948A00F8
:100060000C9497040C948A000000000024002700E0
:100070002A0000000000250028002B0000000000DE
:1000800023002600290004040404040404040202DA
:100090000202020203030303030301020408102007
:1000A0004080010204081020010204081020000012
:1000B0000008000201000003040700000000000027
:1000C0000000B60511241FBECFEFD8E0DEBFCDBFC4
:1000D00011E0A0E0B1E0E6EAF2E202C005900D9284
:1000E000A632B107D9F722E0A6E2B1E001C01D9225
:1000F000AF33B207E1F710E0C2E6D0E004C02197C9
:10010000FE010E947A0FC136D107C9F70E94E105AE
:100110000C9451110C940000833081F028F481304C
:1001200099F08230A9F008958730A9F08830C9F09D
:100130008430B1F4809180008F7D03C08091800075
:100140008F7780938000089584B58F7784BD08955C
:1001500084B58F7DFBCF8091B0008F778093B00006
:1001600008958091B0008F7DF9CFCF93DF93282F32
:1001700030E0F901E255FF4F8491F901E656FF4F57
:10018000D491F901EA57FF4FC491CC23A1F081111A
:100190000E948C00EC2FF0E0EE0FFF1FE458FF4FA1
:1001A000A591B491EC91ED2381E090E009F480E019
:1001B000DF91CF91089580E090E0FACF1F93CF9325
:1001C000DF93282F30E0F901E255FF4F8491F901C8
:1001D000E656FF4FD491F901EA57FF4FC491CC2363
:1001E000A9F0162F81110E948C00EC2FF0E0EE0F89
:1001F000FF1FEE58FF4FA591B4918FB7F894EC9183
:10020000111108C0D095DE23DC938FBFDF91CF9111
:100210001F910895DE2BF8CFCF93DF93C8E0D2E093
:1002200060E08C810E94DE0060E08D810E94DE0033
:1002300061E08C810E94DE0061E08D81DF91CF91D1
:100240000C94DE00CF93DF93C8E0D2E061E08C81B4
:100250000E94DE0061E08D810E94DE0060E08D8101
:100260000E94DE0060E08C81DF91CF910C94DE0073
:10027000CF93DF9390E0FC01E656FF4F24918A571D
:100280009F4FFC0184918823C9F090E0880F991F4B
:10029000FC01E859FF4FA591B491FC01EE58FF4FC6
:1002A000C591D49161110DC09FB7F8948C912095A0
:1002B00082238C938881282328839FBFDF91CF914D
:1002C0000895623051F49FB7F8943C91822F809545
:1002D00083238C93E8812E2BEFCF8FB7F894EC918A
:1002E0002E2B2C938FBFEACFEF92FF921F93CF93C9
:1002F000DF93182FD8E060E080910C020E94DE00AE
:10030000E12E012E000CFF0861E010FF60E08091FB
:100310000D020E94DE00F594E7941E2D61E08091AD
:100320000C020E94DE00D15031F760E080910C0297
:100330000E94DE0061E080910D020E94DE0061E01B
:1003400080910C020E94DE0060E080910D020E940C
:10035000380180910D020E94B500892B79F0CF5FA2
:10036000C83C91F761E080910D020E94380160E085
:1003700080910D020E94DE00C0E0E6CF61E0809136
:100380000D02DF91CF911F91FF90EF900C943801F7
:10039000EF92FF920F931F93CF93DF9300D000D083
:1003A000CDB7DEB789836A834B832C8380910B02A0
:1003B00090E0811190E89E012F5F3F4F79012C5F03
:1003C0003F4F8701F80180818F3779F510820F5FE9
:1003D0001F4F02171307B1F70E94220180E40E9409
:1003E00074010E940C010E942201809109020E9466
:1003F0007401F70181917F010E947401E016F106FA
:10040000C1F70E940C010E94220180910A020E9401
:1004100074010F900F900F900F90DF91CF911F916B
:100420000F91FF90EF900C940C01890F8083CFCF38
:10043000CF93DF93D82F80910B02811180E8C82FD2
:100440006F3739F0E62F660FFF0BE65FFE4FC08176
:10045000C80F0E94220184E40E9474010E940C01D2
:100460000E9422018D2F806C0E9474018C2F0E94AB
:1004700074010E940C010E94220180910A020E94D4
:100480007401DF91CF910C940C016FE780E00E9422
:1004900018026FE781E00E9418026FE782E00E9475
:1004A00018026FE783E00C9418021F93CF93DF9339
:1004B000182FEB0161E00E943801209739F460E0C9
:1004C000812FDF91CF911F910C94DE00CF3FD1059A
:1004D00011F461E0F5CFE12FF0E0E255FF4FE49138
:1004E000E33031F140F4E130B1F0E230E1F0C03816
:1004F000D1057CF7E4CFE73029F1E83059F1E43059
:10050000B1F780918000806280938000D0938B004F
:10051000C0938A0004C084B5806884BDC7BDDF91E4
:10052000CF911F91089584B5806284BDC8BDF7CF77
:1005300080918000806880938000D0938900C09370
:100540008800EDCF8091B00080688093B000C093A8
:10055000B300E5CF8091B00080628093B000C0937B
:10056000B400DDCF8E3008F08E502091090190E468
:10057000299F900111248770822B80937C008091A9
:100580007A00806480937A0080917A0086FDFCCFA7
:10059000809178009091790008953FB7F894809108
:1005A000040290910502A0910602B091070226B5BF
:1005B000A89B05C02F3F19F00196A11DB11D3FBF9B
:1005C000BA2FA92F982F8827BC01CD01620F711D6A
:1005D000811D911D42E0660F771F881F991F4A9564
:1005E000D1F708958F929F92AF92BF92CF92DF92F0
:1005F000EF92FF924B015C010E94CD026B017C01E6
:100600000E94CD026C197D098E099F09683E7340D6
:1006100081059105A8F321E0821A9108A108B1088B
:1006200088EEC80E83E0D81EE11CF11C81149104F1
:10063000A104B10429F7FF90EF90DF90CF90BF9015
:10064000AF909F908F90089508950895209147014D
:10065000260F3327331F21323105ECF42091B601E8
:10066000FC0190E080E0243069F082E00895A091E0
:1006700047012191AC01495D5E4FA40FB52FB11D1B
:100680002C930196861798F380914701680F609329
:10069000470180E0089581E008951092B60181E05D
:1006A0008093B5011092900161E082E10E94DE002A
:1006B00061E083E10E94DE00E9EBF0E080818E7F63
:1006C000808380818D7F808388E48093B80085E477
:1006D0008093BC000895CF93DF9391E0909326011F
:1006E0008823B9F0C091B800D091BA008091BC00C5
:1006F0008A7B8093BC0060E082E10E94DE0060E0C3
:1007000083E10E94DE000E944D03D093BA00C093A3
:10071000B800DF91CF9108950895E0916F01809125
:100720006E01E81730F4F0E0E059FE4F808190E070
:1007300008958FEF9FEF089590916F0180916E0162
:100740002FEF3FEF981748F4E92FF0E0E059FE4F04
:10075000208130E09F5F90936F01C90108958091DF
:100760006E0190916F01891B990B0895CF92DF92D2
:10077000EF92FF920F931F93CF93DF937C01CB01F6
:100780008A012091DF01222389F0EB016B01C40E65
:10079000D51ECC15DD0569F06991D701ED91FC916D
:1007A0000190F081E02DC7010995F3CF642F0E94DD
:1007B0002603C801DF91CF911F910F91FF90EF9019
:1007C000DF90CF900895CF93DF931F92CDB7DEB720
:1007D00069832091DF012223F9F02091DC0120328E
:1007E00058F021E030E0FC013383228390E080E088
:1007F0000F90DF91CF9108958091DD01E82FF0E017
:10080000E454FE4F998190838F5F8093DD01809344
:10081000DC0181E090E0ECCF61E0CE0101960E9426
:100820002603F7CF90E080E0089585ED8093BC002B
:100830008091B8019091B901A091BA01B091BB012A
:100840000796A11DB11D23E0B695A79597958795AD
:100850002A95D1F72091BC0024FD03C01092B60167
:1008600008954091B8015091B9016091BA01709119
:10087000BB01452B462B472B69F30097A105B1051A
:1008800041F025E32A95F1F700000197A109B1098C
:10089000E1CF8091B7010C946B031F920F920FB6BA
:1008A0000F9211242F933F938F939F93AF93BF93F6
:1008B0008091000290910102A0910202B091030286
:1008C0003091FF0123E0230F2D3758F50196A11D2C
:1008D000B11D2093FF018093000290930102A09329
:1008E0000202B09303028091040290910502A0914C
:1008F0000602B09107020196A11DB11D809304026A
:1009000090930502A0930602B0930702BF91AF91A6
:100910009F918F913F912F910F900FBE0F901F903D
:10092000189526E8230F0296A11DB11DD2CF1F9264
:100930000F920FB60F9211242F933F934F935F9313
:100940006F937F938F939F93AF93BF93EF93FF9397
:100950008091B900887F803609F44AC0F0F588326A
:1009600009F4A7C018F5803109F49BC0B8F48823B6
:1009700009F4F9C0883009F494C0FF91EF91BF9158
:10098000AF919F918F917F916F915F914F913F9127
:100990002F910F900FBE0F901F901895883109F47A
:1009A00088C0803251F78093B40114C0803409F4B8
:1009B0009DC040F48033B9F38833F9F68093B401D5
:1009C00085ECB0C0803509F485C0883509F496C03F
:1009D000883499F60E941504D0CF883909F48CC068
:1009E00038F5883729F050F4883611F0803729F629
:1009F00083E08093B6011092690157C0883809F4EA
:100A00007BC0803919F0803809F0B7CF8091690137
:100A1000803208F071C0E091690181E08E0F80930F
:100A200069018091BB00F0E0E75BFE4F80833DC031
:100A3000803B39F0E0F4803A09F479C0883A09F053
:100A40009CCF84E08093B601109248011092470138
:100A5000E0916C01F0916D01099580914701811140
:100A60000FC081E0809347011092270109C0803CAC
:100A700009F4A6CF883C09F4A3CF883B09F07DCFC9
:100A8000E091480181E08E0F80934801F0E0E95D3C
:100A9000FE4F80818093BB00909148018091470177
:100AA00029C0809191018093BB0085EC8093BC00AC
:100AB00064CF9091B3018091B201981758F5E091FD
:100AC000B30181E08E0F8093B301F0E0EE56FE4F4C
:100AD0008081E9CFE091B30181E08E0F8093B30173
:100AE0008091BB00F0E0EE56FE4F80839091B30101
:100AF0008091B2019817C8F285E8D8CFE091B30190
:100B000081E08E0F8093B3018091BB00F0E0EE5640
:100B1000FE4F80838091B50181115CCF81E080938D
:100B2000900184EA8093BC001092B60126CF85EC38
:100B30008093BC001092B60180916901803230F43C
:100B4000E0916901F0E0E75BFE4F1082609169017E
:100B500070E0E0916A01F0916B0189E491E0099500
:100B6000109269010ACF1092B40134CFCF93DF9372
:100B7000EEE0F2E01382128288EE93E0A0E0B0E0B3
:100B800084839583A683B78388E191E091838083F2
:100B9000AAE1B2E01996FC93EE93189780E41A96B6
:100BA0008C93C8E0D2E08CE08C838DE08D8361E093
:100BB0008CE00E94380161E08D81DF91CF910C942F
:100BC0003801789484B5826084BD84B5816084BD29
:100BD00085B5826085BD85B5816085BD80916E00DB
:100BE000816080936E00109281008091810082600C
:100BF0008093810080918100816080938100809149
:100C000080008160809380008091B1008460809337
:100C1000B1008091B00081608093B00080917A0033
:100C2000846080937A0080917A00826080937A0059
:100C300080917A00816080937A0080917A00806848
:100C400080937A001092C10010926F0110926E0191
:100C50001092DD011092DC010E944D0384E293E0CA
:100C600090936D0180936C0185E293E090936B010A
:100C700080936A010E94450280E48093080280EC20
:100C8000809309028AE880930A0260E08EE00E9465
:100C9000380162E088E00E94380160E08FE00E9445
:100CA000380162E089E00E94380160E080E10E9442
:100CB000380162E08AE00E94380161E082E00E942F
:100CC000380161E083E00E94380161E084E00E9425
:100CD000380161E085E00E94380161E086E00E9411
:100CE000380161E087E00E94380161E08CE00E94F9
:100CF000380161E08DE00E9438011092EC01109201
:100D0000EB011092EA0123E74DE660E18EE50E94D7
:100D1000C80164EF71E080E090E00E94F20228E7F1
:100D20004DE669E788E70E94C80164EF71E080E062
:100D300090E00E94F2022FE74FE76FE78FE70E94F3
:100D4000C80164EF71E080E090E00E94F20220E4CC
:100D500049E36FE380E40E94C80164EF71E080E042
:100D600090E00E94F20220E449E36DE680E40E94F4
:100D7000C80164EF71E080E090E00E94F20223E796
:100D80004DE660E18EE50E94C80164EF71E080E00D
:100D900090E00E94F20228E74DE669E788E70E94AA
:100DA000C80164EF71E080E090E00E94F20229E760
:100DB00047E36FE38FE30E94C80168EE73E080E0D1
:100DC00090E00E94F20283E08093090128E74DE65B
:100DD00069E788E70E94C80164EF71E080E090E075
:100DE0000E94F20220E446E06EE380E40E94C80123
:100DF00064EF71E080E090E00E94F20261E081E047
:100E00000E94DE0061E082E00E94DE0064E670E0A5
:100E100080E090E00E94F20285E10E94B202BC01F3
:100E2000990F880B990B0E942F106B017C012AE50A
:100E300034E64BE55FE30E94800F29E34FE387FD33
:100E40000EC028EF33E543E65FE3C701B6010E9419
:100E5000DF1029E34DE6181614F024E54CE566E0B2
:100E60008EE30E94C80164EF71E080E090E00E9490
:100E7000F20260E081E00E94DE0060E082E00E9419
:100E8000DE0028E74DE669E788E70E94C80164EFC5
:100E900071E080E090E00E94F20220E44BE56EE316
:100EA00080E40E94C80164EF71E080E090E00E945D
:100EB000F20261E081E00E94DE0061E083E00E94D6
:100EC000DE0064E670E080E090E00E94F20285E1DE
:100ED0000E94B202BC01990F880B990B0E942F103F
:100EE0006B017C012AE534E64BE55FE30E94800F4D
:100EF00029E34FE387FD0EC028EF33E543E65FE3C8
:100F0000C701B6010E94DF1029E34DE6181614F060
:100F100024E54CE56BE58EE30E94C80164EF71E0C7
:100F200080E090E00E94F20260E081E00E94DE003A
:100F300060E083E00E94DE0028E74DE669E788E78D
:100F40000E94C80164EF71E080E090E00E94F2022C
:100F500020E44FE46EE380E40E94C80164EF71E096
:100F600080E090E00E94F20261E081E00E94DE00F9
:100F700061E084E00E94DE0064E670E080E090E0E2
:100F80000E94F20285E10E94B202BC01990F880B17
:100F9000990B0E942F106B017C012AE534E64BE58A
:100FA0005FE30E94800F29E34FE387FD0EC028EF27
:100FB00033E543E65FE3C701B6010E94DF1029E392
:100FC0004DE6181614F024E54CE56FE48EE30E941C
:100FD000C80164EF71E080E090E00E94F20260E0FE
:100FE00081E00E94DE0060E084E00E94DE0028E7ED
:100FF0004DE669E788E70E94C80164EF71E080E090
:1010000090E00E94F20220E446E66EE380E40E9453
:10101000C80164EF71E080E090E00E94F20261E0BC
:1010200081E00E94DE0061E085E00E94DE0064E66F
:1010300070E080E090E00E94F20285E10E94B2023E
:10104000BC01990F880B990B0E942F106B017C013A
:101050002AE534E64BE55FE30E94800F29E34FE386
:1010600087FD0EC028EF33E543E65FE3C701B60115
:101070000E94DF1029E34DE6181614F024E54CE534
:1010800066E68EE30E94C80164EF71E080E090E0C4
:101090000E94F20260E081E00E94DE0060E085E0F4
:1010A0000E94DE0028E74DE669E788E70E94C80154
:1010B00064EF71E080E090E00E94F20220E44DE6EF
:1010C0006EE380E40E94C80164EF71E080E090E08C
:1010D0000E94F20261E081E00E94DE0061E086E0B1
:1010E0000E94DE0064E670E080E090E00E94F20280
:1010F00085E10E94B202BC01990F880B990B0E94F6
:101100002F106B017C012AE534E64BE55FE30E947A
:10111000800F29E34FE387FD0EC028EF33E543E658
:101120005FE3C701B6010E94DF1029E34DE6181600
:1011300014F024E54CE56DE68EE30E94C80164EFEF
:1011400071E080E090E00E94F20260E081E00E94A5
:10115000DE0060E086E00E94DE0028E74DE669E7F9
:1011600088E70E94C80164EF71E080E090E00E948F
:10117000F20220E44DE76EE380E40E94C80164EFD0
:1011800071E080E090E00E94F20261E081E00E9464
:10119000DE0061E087E00E94DE0064E670E080E04F
:1011A00090E00E94F20285E10E94B202BC01990F18
:1011B000880B990B0E942F106B017C012AE534E605
:1011C0004BE55FE30E94800F29E34FE387FD0EC0EC
:1011D00028EF33E543E65FE3C701B6010E94DF1065
:1011E00029E34DE6181614F024E54CE56DE78EE38F
:1011F0000E94C80164EF71E080E090E00E94F2027A
:1012000060E081E00E94DE0060E087E00E94DE0096
:101210002DE74EE366E08EE30E94C80164EF71E0C3
:1012200080E090E00E94F20228E74DE669E788E757
:101230000E94C80164EF71E080E090E00E94F20239
:1012400029E747E36FE38FE30E94C80168EE73E08C
:1012500080E090E00E94F2022EE64EE569E780E52C
:101260000E94C80168EB7BE080E090E00E94F202FF
:1012700035EF432E512C612C712C332433942224CE
:101280002A9480910801882361F060E08BE00E943D
:10129000DE0060E082E00E94DE0060E083E00E9409
:1012A000DE0080910701882361F060E08BE00E94FE
:1012B000DE0060E084E00E94DE0060E085E00E94E5
:1012C000DE0080910601882361F060E08BE00E94DF
:1012D000DE0060E086E00E94DE0060E087E00E94C1
:1012E000DE002FB7F8948091000290910102A09146
:1012F0000202B09103022FBF8093FB019093FC0187
:10130000A093FD01B093FE018091220290912302EF
:10131000209124023092DF012093DE011092DD0142
:101320001092DC01DC01ED91FC910190F081E02D47
:1013300064E00995D091DC01D13208F092C0C091EF
:10134000DE010E94CD026B017C018091B60181110A
:1013500063C082E08093B6011092B5012092B4017F
:101360001092B301D093B201ACEBB1E0E2E9F1E04D
:1013700080E0D813EAC01092910180919101CC0FC6
:10138000C82BC093910180919001813009F0E1C098
:10139000109290010E94CD026B017C01809191011D
:1013A0008093BB008091B8019091B901A091BA01DE
:1013B000B091BB01892B8A2B8B2B99F00E94CD0217
:1013C0000091B8011091B9012091BA013091BB018F
:1013D0006C197D098E099F09061717072807390719
:1013E000E0F18091BC0083FDD9CF85EC8093BC00F7
:1013F0000E94CD026B017C018091B601823009F41C
:10140000AAC08091B4018F3F61F18091B401803214
:1014100041F18091B40125C08091B8019091B9014A
:10142000A091BA01B091BB01892B8A2B8B2B09F4B7
:101430008CCF0E94CD020091B8011091B90120918A
:10144000BA013091BB016C197D098E099F090617FD
:1014500017072807390708F078CF8091B7010E9455
:101460006B031092DD011092DC011092DF01C0913C
:1014700024020E94CD026B017C018091B601811192
:101480008CC03092B6013092B5012092B401109216
:10149000B3013092B2013092910180919101CC0F51
:1014A000C82BC093910180919001813009F0BCC19B
:1014B000109290010E94CD026B017C0180919101FC
:1014C0008093BB008091B8019091B901A091BA01BD
:1014D000B091BB01892B8A2B8B2BA1F00E94CD02EE
:1014E0000091B8011091B9012091BA013091BB016E
:1014F0006C197D098E099F090617170728073907F8
:1015000008F46CC08091BC0083FDD8CF85EC80933B
:10151000BC000E94CD026B017C018091B60181303C
:1015200009F484C18091B301823008F0A1C1809197
:10153000B301E2E9F1E0A0E7B1E090E0981709F427
:1015400052C021912D939F5FF9CF9D9191938F5F11
:1015500010CF85EE4BCF8091B8019091B901A09149
:10156000BA01B091BB01892B8A2B8B2B09F444CF94
:101570000E94CD020091B8011091B9012091BA01E9
:101580003091BB016C197D098E099F090617170759
:101590002807390708F030CF60CF8091B8019091CB
:1015A000B901A091BA01B091BB01892B8A2B8B2B79
:1015B00009F463CF0E94CD020091B8011091B901E6
:1015C0002091BA013091BB016C197D098E099F09E8
:1015D000061717072807390708F04FCF8091B70182
:1015E0000E946B0380E010926F0180936E018091E6
:1015F000220290912302DC01ED91FC910084F1859F
:10160000E02D0995892B09F435C180912202909132
:101610002302DC01ED91FC910284F385E02D099514
:10162000C82F8091220290912302DC01ED91FC9160
:101630000284F385E02D0995D0E0DC2FCC27C80F7C
:10164000D11D80913C0270E060E0882331F120E000
:1016500030E048EC52E460912B0270912C028091B2
:101660002D0290912E020E94E4106B017C0160918A
:1016700025027091260290E080E00E942D109B01CF
:10168000AC01C701B6010E94E41020E030E040E860
:1016900059E30E94E4100E94F70F9E01261B370BAE
:1016A000B901072E000C880B990B0E942F106B01BB
:1016B0007C0120912F0230913002409131025091F3
:1016C0003202609133027091340280913502909120
:1016D00036020E94E4109B01AC01C701B6010E94D2
:1016E000850F6B017C0120E030E040E05FE30E9469
:1016F000800F87FDCBC020E030E040EF51E4C70110
:10170000B6010E94DF1018160CF4B7C020E030E0DC
:1017100040EA51E4C701B6010E94DF1018160CF42C
:10172000B2C020E030E048EC52E4C701B6010E94AC
:10173000E4100E94F70F9B01770F440B550B2059C3
:10174000314041095109AAEFB0E00E940E0F20E498
:1017500036E040E050E00E94EF0E3093F801209315
:10176000F70180910801811197C08EE00E94B202BA
:101770009093F6018093F50180910701811193C048
:101780008FE00E94B2029093F4018093F301809164
:10179000060181118BC080E10E94B2029093F20198
:1017A0008093F10188E00E94B5008C019093F001D4
:1017B0008093EF0189E00E94B500EC019093EE0167
:1017C0008093ED018AE00E94B5000130110509F017
:1017D00074C030920801219709F072C0309207015D
:1017E000019709F070C03092060110910701112392
:1017F00009F46CC080910601882309F467C08091C8
:101800000601811169C000910801002309F467C035
:1018100080910601882309F462C08091060181113C
:1018200051C2111165C05FC085EE71CE8091B801C3
:101830009091B901A091BA01B091BB01892B8A2B7B
:101840008B2B09F46ACE0E94CD020091B801109151
:10185000B9012091BA013091BB016C197D098E0943
:101860009F09061717072807390708F056CEB6CE86
:1018700082E05FCE80E0C0E0DFCEC12CD12C90EFC3
:10188000E92E91E4F92E3092F9014BCFC12CD12CE5
:10189000E12C8FE3F82E45CF44EF51E05093F60151
:1018A0004093F50169CF84EF91E06DCFA4EFB1E0F3
:1018B000B093F201A093F10175CF109208018BCF84
:1018C000109207018DCF109206018FCF3092EC015C
:1018D000112309F498CF93CF1092EC0194CF30925A
:1018E000EB0101119ACF3092EA01002379F0111136
:1018F0001092EA0160E08BE00E94DE0060E082E08E
:101900000E94DE0060E083E00E94DE00112361F0AF
:1019100060E08BE00E94DE0060E084E00E94DE0078
:1019200060E085E00E94DE00F0900601FF2061F09B
:1019300060E08BE00E94DE0060E086E00E94DE0056
:1019400060E087E00E94DE00C091F501D091F601D1
:10195000C530B2E0DB070CF4B8C19E010D2E000CBF
:10196000440B550B2550324041095109AFEFB0E00F
:101970000E940E0F2CED30E040E050E00E94EF0E90
:101980003093E9012093E80130920501109204019F
:10199000CD5DD140A99740F4109205011092040149
:1019A0001092E9011092E801C091F301D091F40185
:1019B000C83032E0D3070CF4ACC19E010D2E000CF0
:1019C000440B550B2850324041095109AFEFB0E0AC
:1019D0000E940E0FA30192010E94EF0E3093E701C7
:1019E0002093E6013092030110920201C15ED140C2
:1019F000A89740F410920301109202011092E7019F
:101A00001092E601C091F101D091F201C83052E08C
:101A1000D5070CF4A2C19E010D2E000C440B550BF2
:101A20002850324041095109AFEFB0E00E940E0F3B
:101A3000A30192010E94EF0E3093E5012093E4018F
:101A40003092010110920001C15ED140A89740F48C
:101A500010920101109200011092E5011092E40130
:101A6000002381F08091EC0181110CC060E08BE0DB
:101A70000E94DE0060E082E00E94DE0060E083E021
:101A80000E94DE00112381F08091EB0181110CC0D6
:101A900060E08BE00E94DE0060E084E00E94DE00F7
:101AA00060E085E00E94DE00FF2081F08091EA0185
:101AB00081110CC060E08BE00E94DE0060E086E0F7
:101AC0000E94DE0060E087E00E94DE008091050158
:101AD000882399F08091EC0181110FC06091E80199
:101AE0007091E9018BE00E94550261E082E00E9462
:101AF000DE0060E083E00E94DE0080910301882325
:101B000099F08091EB0181110FC06091E601709115
:101B1000E7018BE00E94550261E084E00E94DE0054
:101B200060E085E00E94DE0080910001882389F05A
:101B30008091EA0181110DC06091E4018BE00E9467
:101B4000DE0061E086E00E94DE0060E087E00E9447
:101B5000DE0080910401882399F08091EC018111CD
:101B60000FC06091E8017091E9018BE00E9455027D
:101B700060E082E00E94DE0061E083E00E94DE001F
:101B800080910201882399F08091EB0181110FC0AF
:101B90006091E6017091E7018BE00E94550260E0E0
:101BA00084E00E94DE0061E085E00E94DE0080911A
:101BB0000101882389F08091EA0181110DC06091B3
:101BC000E4018BE00E94DE0060E086E00E94DE001F
:101BD00061E087E00E94DE008090FB019090FC01B4
:101BE000A090FD01B090FE018091E0019091E10193
:101BF000A091E201B091E301A5019401281B390BEA
:101C00004A0B5B0BDA01C90184369105A105B105C8
:101C100008F4D7C08091FA018111C3C08091F90105
:101C20008111D7C00E944502C091F701D091F801FF
:101C3000CE016AE070E00E94520F8C01682F83E0B1
:101C40000E941802CA30D1050CF4B3C0CE0164E67C
:101C500070E00E94520F801B910B6AE070E00E94BE
:101C6000520F7B0182E00E941802C436D1050CF4A9
:101C7000A0C0CE0168EE73E00E94520F8E199F093A
:101C8000801B910B64E670E00E94520F6B0181E0B3
:101C90000E941802C83E33E0D3070CF48AC0CE017C
:101CA00060E177E20E94520F8C199D098E199F09FD
:101CB000801B910B68EE73E00E94520F80E00E943F
:101CC000180277C01092EB01ACCDCD3D21E0D207D8
:101CD0000CF05ECE9E010D2E000C440B550B3150C6
:101CE00041095109A1E0BFEF0E941C0F2CED30E02B
:101CF00040E050E00E94EF0E21503F4F4F4F5F4FAA
:101D00003093E9012093E80110920501309204011B
:101D10003FCEC13E41E0D4070CF068CE9E010D2EAF
:101D2000000C440B550B315041095109A1E0BFEFA4
:101D30000E941C0F20EE30E040E050E00E94EF0EC9
:101D400021503F4F4F4F5F4F3093E7012093E60103
:101D5000109203013092020149CEC13E81E0D807C2
:101D60000CF072CE9E010D2E000C440B550B315021
:101D700041095109A1E0BFEF0E941C0F20EE30E0A5
:101D800040E050E00E94EF0E21503F4F4F4F5F4F19
:101D90003093E5012093E40110920101309200019B
:101DA00053CE0E94450220E449E36FE380E40E94A1
:101DB000C8018092E0019092E101A092E201B0920C
:101DC000E30140E050E0452B09F45BCA0E940000AB
:101DD00054CA0E94450220E449E36DE6E7CF052E90
:101DE00097FB1EF400940E94060F57FD07D00E9437
:101DF000210F07FC03D04EF40C94060F509540952C
:101E0000309521953F4F4F4F5F4F089590958095A6
:101E1000709561957F4F8F4F9F4F08950E94430F9C
:101E2000A59F900DB49F900DA49F800D911D11242E
:101E30000895B7FF0C940E0F0E940E0F821B930B98
:101E40000895A1E21A2EAA1BBB1BFD010DC0AA1FFB
:101E5000BB1FEE1FFF1FA217B307E407F50720F013
:101E6000A21BB30BE40BF50B661F771F881F991F8E
:101E70001A9469F760957095809590959B01AC01D7
:101E8000BD01CF010895A29FB001B39FC001A39FE0
:101E9000700D811D1124911DB29F700D811D1124A3
:101EA000911D089597FB072E16F4009407D077FD37
:101EB00009D00E94660F07FC05D03EF490958195ED
:101EC0009F4F0895709561957F4F0895AA1BBB1B86
:101ED00051E107C0AA1FBB1FA617B70710F0A61B2A
:101EE000B70B881F991F5A95A9F780959095BC014B
:101EF000CD010895EE0FFF1F0590F491E02D099498
:101F00000E946A1008F481E008950E94990F0C94D1
:101F1000A5100E949E1058F00E94971040F029F4DE
:101F20005F3F29F00C948E1051110C94D9100C9431
:101F300094100E94B61068F39923B1F3552391F3DE
:101F4000951B550BBB27AA2762177307840738F028
:101F50009F5F5F4F220F331F441FAA1FA9F335D085
:101F60000E2E3AF0E0E832D091505040E695001C39
:101F7000CAF72BD0FE2F29D0660F771F881FBB1FF3
:101F8000261737074807AB07B0E809F0BB0B802DD1
:101F9000BF01FF2793585F4F3AF09E3F510578F0FD
:101FA0000C948E100C94D9105F3FE4F3983ED4F358
:101FB000869577956795B795F7959F5FC9F7880FD1
:101FC000911D9695879597F90895E1E0660F771F23
:101FD000881FBB1F621773078407BA0720F0621BB4
:101FE000730B840BBA0BEE1F88F7E09508950E94DF
:101FF000FE0F6894B1110C94D91008950E94BE1080
:1020000088F09F5798F0B92F9927B751B0F0E1F0B9
:10201000660F771F881F991F1AF0BA95C9F714C069
:10202000B13091F00E94D810B1E008950C94D8100E
:10203000672F782F8827B85F39F0B93FCCF38695A2
:1020400077956795B395D9F73EF4909580957095FF
:1020500061957F4F8F4F9F4F0895E89409C097FB7C
:102060003EF490958095709561957F4F8F4F9F4F6F
:102070009923A9F0F92F96E9BB279395F6958795B3
:1020800077956795B795F111F8CFFAF4BB0F11F476
:1020900060FF1BC06F5F7F4F8F4F9F4F16C088231D
:1020A00011F096E911C0772321F09EE8872F762F53
:1020B00005C0662371F096E8862F70E060E02AF094
:1020C0009A95660F771F881FDAF7880F9695879580
:1020D00097F90895990F0008550FAA0BE0E8FEEF55
:1020E00016161706E807F907C0F012161306E407DC
:1020F000F50798F0621B730B840B950B39F40A26D5
:1021000061F0232B242B252B21F408950A2609F4B2
:10211000A140A6958FEF811D811D089597F99F67B6
:1021200080E870E060E008959FEF80EC089500245F
:102130000A941616170618060906089500240A942C
:1021400012161306140605060895092E0394000CB2
:1021500011F4882352F0BB0F40F4BF2B11F460FF41
:1021600004C06F5F7F4F8F4F9F4F089557FD90586A
:10217000440F551F59F05F3F71F04795880F97FB4B
:10218000991F61F09F3F79F0879508951216130605
:102190001406551FF2CF4695F1DF08C01616170634
:1021A0001806991FF1CF8695710561050894089569
:1021B000E894BB2766277727CB0197F908950E94FB
:1021C0006A1008F48FEF08950E94F7100C94A51080
:1021D0000E94971038F00E949E1020F0952311F075
:1021E0000C948E100C94941011240C94D9100E940D
:1021F000B61070F3959FC1F3950F50E0551F629F85
:10220000F001729FBB27F00DB11D639FAA27F00D4F
:10221000B11DAA1F649F6627B00DA11D661F829F76
:102220002227B00DA11D621F739FB00DA11D621F5B
:10223000839FA00D611D221F749F3327A00D611D78
:10224000231F849F600D211D822F762F6A2F11245A
:102250009F5750409AF0F1F088234AF0EE0FFF1F8D
:10226000BB1F661F771F881F91505040A9F79E3FE4
:10227000510580F00C948E100C94D9105F3FE4F35C
:10228000983ED4F3869577956795B795F795E7953A
:102290009F5FC1F7FE2B880F911D9695879597F943
:0622A0000895F894FFCF41
:1022A600010101010101010101013F065B4F666D5C
:1022B6007D077F6F00000000E303B60312048C0362
:0622C600AF039C038D0331
:00000001FF
